:020000040002F8
:1060000010F70020116B0300937C02005FA00200D8
:106010009B7C0200238602005388020000000000DF
:10602000000000000000000000000000CDA20200FF
:106030004FA3020000000000F1A202002FAA0200FC
:10604000030B03009BBC0200216B03006D3F0300A8
:10605000EFEA0200970703003F110300B724030093
:106060006F2F0300EB2F0300E73303001F340300FF
:10607000BD6003002763030033630300F96E030070
:1060800049180300F1A10200FB6E0300FD6E03003E
:10609000FF6E0300016F030015CF0200036F0300C2
:1060A000056F0300076F0300096F03000B6F030008
:1060B0000D6F03000F6F03000000000000000000E0
:1060C000116F0300136F0300156F0300176F0300B8
:1060D000772A0300196F03001B6F03000000000004
:1060E00000000000000000000000000000000000B0
:1060F00000000000000000000000000000000000A0
:10610000000000000000000000000000000000008F
:10611000000000000000000000000000000000007F
:10612000000000000000000000000000000000006F
:10613000000000000000000000000000000000005F
:10614000000000000000000000000000000000004F
:10615000000000000000000000000000000000003F
:10616000000000000000000000000000000000002F
:10617000000000000000000000000000000000001F
:10618000000000000000000000000000000000000F
:1061900000000000000000000000000000000000FF
:1061A00000000000000000000000000000000000EF
:1061B00000000000000000000000000000000000DF
:1061C00000000000000000000000000000000000CF
:1061D00000000000000000000000000000000000BF
:1061E00000000000000000000000000000000000AF
:1061F000000000000000000000000000000000009F
:1062000010F0030F01D1012000E00020C0B2704760
:1062100038B5040000250AE0DFF8001C51F825001D
:10622000002803D0200051F8251088476D1C042D4C
:10623000F2D331BD0278012A09D03BD3032A14D00E
:1062400008D3052A2AD020D3062A30D032E00020F5
:1062500008702FE001220A7002898A818288CA812F
:10626000C06888600020087424E002220A70028955
:106270008A818288CA81C2688A60807D062801D1AD
:10628000012000E00020087414E003220A70C28894
:106290008A810289CA81C06888600BE004220A7082
:1062A000C08888810020C8810020886002E0052025
:1062B0000870FFE77047884205D2006810F1010FAF
:1062C00001D0012000E00020C0B27047418800EBFF
:1062D00081000C30704738B504000D002000FFF736
:1062E000F5FF854201D202200EE0A0884FF6FF7133
:1062F000884206D02088002803D0A06810F1010F42
:1063000001D1012000E0002032BD80B500280DD071
:10631000DFF8D01BCA68904208D30969814205D3CF
:10632000FFF76EFF002801D0012000E00020C0B27E
:1063300002BD002804D00168DFF8AC2B914201D0E7
:1063400003200BE04068DFF8A41B401A03D0401E76
:1063500003D1012002E0002000E003207047016823
:1063600011F1010F06D00168DFF87C2B914201D0BA
:1063700000200DE0012100E0491CB1F5806F06D23C
:1063800050F8212012F1010FF6D0002000E001208A
:10639000704710B41423DFF8044C020092B25A4341
:1063A00022441289511880B2584320444089411830
:1063B00089B240F20140814201DA012000E0002070
:1063C000C0B210BC704770B448F20962002300E00C
:1063D0005B1C1C00A4B2022C15DA1424DFF8BC5B91
:1063E0001E00B6B266432E4476688E42F0D21E007E
:1063F000B6B204FB06F42C44646814F58054A14240
:10640000E6D200220380100070BC7047F8B50D0082
:10641000140010F5805610F108070220288010E0C3
:10642000DFF8280C0168BA68914201D2B9680160AE
:1064300028887988C91C081828803800FFF746FF8B
:10644000070031003800FFF736FF002812D0310076
:106450003800FFF740FF0100C9B20029E0D0002C4E
:1064600001D001212170C0B20228E1D14FF4806037
:106470002880FFE7F1BD8A7D032A04DB0289CB88EF
:10648000DB1C9A1802814289C988521AD21E4281A5
:10649000704780B5002000900823DFF8CC2BDFF890
:1064A000CC0B0168DFF83C0A01F0AFF802BD80B503
:1064B0000100002000900823DFF8B42BDFF8240A45
:1064C00001F0A3F802BD2DE9F84306000D000024F9
:1064D000F61C300080B240F2FF31884202DB48F205
:1064E000086030E0002700E07F1C380080B20228FE
:1064F00022DA5FF01408DFF8A49A380080B208FBB3
:1065000000F019F800000028EED1310089B23800FF
:1065100080B2FFF73EFF0028E6D001242F8038002C
:1065200080B208FB00F04844BFB208FB07F709EB54
:106530000701498976184681E4B2002C01D0002079
:1065400001E048F20660BDE8F28310B41422DFF8DF
:106550004C3A0C00A4B254431C4489B25143194430
:106560004989081AC01E608110BC704780B501219E
:10657000DFF8D80A01F042FA02BD70B502000C0043
:106580001421DFF8183A100080B2484318444068DC
:1065900010F580552068002803D0FFF797FE06000D
:1065A0000BE092B24A4303EB0200406810F1080688
:1065B00003E03000FFF78AFE060029003000FFF7F5
:1065C0007AFE00280ED029003000FFF784FE002854
:1065D00003D0022804D0ECD3EFE72660012002E0CC
:1065E000002000E0002070BD38B504000D00606898
:1065F000FFF78BFE002815D02089DFF8081C0989D9
:1066000088420FD120686168896888420AD1616830
:106610002800FFF7D8FE002801D1012000E000206B
:10662000C0B21EE00020288002E02888401C28809C
:106630002888022814DA0020009069462888FFF78D
:106640009CFF0028F1D00098806821688842F4D12E
:1066500000986060DFF8AC0B00892081012000E029
:10666000002032BDF8B504000D0016001F00DFF851
:10667000980B0078002802D148F2016036E0002E25
:1066800001D0002F07D148F204602FE000203860CD
:10669000B888401CB880B888022825DADFF8FC18D2
:1066A000BA8814204243885C002800D0F0E7390003
:1066B000B888FFF762FF0028E8D03868002C03D0C4
:1066C000818822889142F2D1002D03D001882A8846
:1066D0009142ECD18068306038687060DFF8240B3C
:1066E00000893081002001E048F20960F2BD2DE907
:1066F000F0410F0014001D001421DFF8102B0300DF
:106700009BB24B4313445B6813F1080680B24843C5
:106710001044406810F580580BE02088401C208011
:1067200028887188C91C081828803000FFF7CEFD22
:10673000060041463000FFF7BEFD002820D041464C
:106740003000FFF7C8FD002803D0022809D0E4D3A9
:1067500015E03888401C38803000FFF7B7FD060090
:10676000E7E706982188491C21802988B8EB0606AE
:10677000B61016FA81F129800121017000E0D8E7F6
:10678000BDE8F08138B50100DFF8FC0B006801F0CE
:10679000FCF904001C2100222500280001F046FA23
:1067A000200032BD80B50100DFF8DC0B006801F08D
:1067B000FBF901BD80B50100DFF8CC0B006801F0EA
:1067C000FEF902BD80B50100DFF8BC0B006801F0E6
:1067D00005FA01BD80B50121DFF8B00B01F01CF90D
:1067E000002801D0012000E00020C0B202BD2DE948
:1067F000F04700270024032500265FF0000804E08E
:1068000001E00820074318F10108404680B2032840
:1068100080F2A380DFF8CC06C168424692B24FF402
:106820008050424301EB02094846FFF782FDC0B2A7
:10683000002841D0012860D00328E1D14846FFF765
:106840008EFD002826D0DFF824180868002819D00B
:106850001420DFF8B819022223009BB24343CA5424
:10686000220092B242430A44C2F80490220092B23B
:1068700000FB02F0084402210181DFF8880944800E
:10688000641C04E0C1F8009002208880012657F0C3
:10689000010710E06D1E1420DFF87019220092B27B
:1068A00042430A44C2F80490032223009BB200FB37
:1068B00003F00A54641CA6E71420DFF850190022E4
:1068C00023009BB24343CA54220092B242430A447B
:1068D000C2F80490220092B242430A4410322300CC
:1068E0009BB200FB03F0084410F108014846FFF793
:1068F0008DFD57F00207641C85E73000C0B2002808
:106900001AD01420DFF80419022223009BB243435B
:10691000CA54220092B242430A44DFF850371B683F
:106920005360220092B200FB02F008440221018170
:10693000DFF8D0084480641CDFF830A7CAF8009064
:1069400000221AF104014846FFF760FDBAF804007E
:1069500002287FF456AF042054E7ADB2022D00DACE
:1069600000273800C0B2BDE8F08780B502228275EA
:10697000002200920423021DDFF8C40A00F045FE45
:10698000002801D1002001E048F20D6002BD80B571
:106990000269002A01D0032200E001228275002250
:1069A0000092042310F10C020831DFF8940A00F081
:1069B0002CFE002801D1002001E048F20D6002BD4C
:1069C00080B50278032A01D1052200E006228275F3
:1069D00000220092042310F10802091DDFF8600A6A
:1069E00000F013FE002801D1002001E048F20D6004
:1069F00002BD1CB50C00002100910423DFF8442ADD
:106A00000100DFF8E00400F000FE002802D048F2A8
:106A10000D6009E00121DFF8F427A4B214204443FB
:106A200002EB04000174002016BD1FB5040001A88C
:106A300000210022002380E80E00E06801906946F2
:106A400001A8FFF7D1FD00280AD002988188E180D3
:106A500000882081BDF800100298FFF7CAFF01E00E
:106A600048F2096004B010BD3EB5DFF8DC592B00D8
:106A70006A460021801DFFF7F5FD0400002C05D1BA
:106A8000A9880198FFF7B5FF040004E0082100225F
:106A9000280001F0CBF820003EBD80B501228275B0
:106AA00000220092C288930002690C31DFF890093D
:106AB00000F0ABFD002801D1002001E048F20D609C
:106AC00002BD10B4DFF83C170889401C0881002083
:106AD000488000200873002210E0002009E0DFF861
:106AE0002C371400A4B214204443185D0028F4D1BC
:106AF000012013009BB20B449872521C100080B20C
:106B00000228ECDB10BC704730B4010000220023E7
:106B100000E05B1C180080B2022821DADFF8E446AE
:106B2000180080B22044807A0028F2D000201D0096
:106B3000ADB22C44A0721424DFF8D056180080B2F5
:106B400060432844C0680028E3D1180080B204FBE9
:106B500000F405EB0400007C0128DAD10B8001224F
:106B60001000C0B230BC704780B50520DFF8941625
:106B70000870DFF8F80402218180002301220168F7
:106B8000DFF8BC0800F0F6FD02BD38B5DFF874266A
:106B900051881424DFF80454080080B2604328446C
:106BA000C06800280DD1042010700023012289B292
:106BB000614305EB01004168DFF8840800F0DAFD6D
:106BC00001E0FFF7D1FF32BD80B5DFF8382650680D
:106BD000DFF898140B68898803EB81014088C01C9A
:106BE000032313700023009380B283005268DFF800
:106BF000500800F00AFD02BD80B5DFF86C09011DE8
:106C00004088FFF7BAFC002802D0FFF7DDFF01E063
:106C1000FFF7BBFF02BD80B5DFF8E8050621017074
:106C2000DFF8E81542881420424301EB0200406877
:106C3000FFF73DFC02BD80B5DFF8C80507210170F4
:106C400000214160FFF725FC02BD10B5DFF8B44517
:106C5000A01CFFF759FF002808D100202070002059
:106C600060800020606041F61D5001E0FFF7C4FF26
:106C700010BDDFF8900540684088C01CDFF8EC13B9
:106C80008A8880188880704730B4DFF8E0331A684B
:106C90001420DFF87045DFF87415658845430D440E
:106CA0006D681D60658845430D446A606288424393
:106CB0000A449D88158102229A80628800FB02F0B6
:106CC00008440021017430BC704710B5DFF834452A
:106CD000207800280AD003280DD0042810D00528D9
:106CE00013D0062811D0072812D014E0FFF7E9FED0
:106CF000012020700FE0FFF7BCFF022020700AE0A7
:106D0000FFF7C2FF0620207005E00720207002E098
:106D100001202070FFE710BD70B5020048F20E6040
:106D2000002A06D00020DFF8441848604FF40640DF
:106D300072E00A79002A05D0022A32D007D3032A4A
:106D40003BD05FE001200871FFF7A3FB5AE000246D
:106D5000002100E0491C0A0092B2022A14DA14222F
:106D60008E4B0D00ADB255435D5D022DF2D100207A
:106D70000C00A4B254431855012489B2514303EBCB
:106D800001004068FFF793FBE4B2002C08D1DFF864
:106D9000DC07012101700021416041F61D503BE0FC
:106DA00030E000200871B1480221818000230122D7
:106DB00001684C4800F0DEFC24E000200871AB4C78
:106DC0002068FFF774FBDFF83C144988256814221B
:106DD000724B0E00B6B256431E44766826600E0013
:106DE000B6B256431E4475600D00ADB255431D4406
:106DF000A6882E810225A580002489B202FB01F21B
:106E00009C54FFE7002806D00020DFF86017486098
:106E100048F20D6000E0002070BD000008ED002089
:106E200070B50D005D4AAB8A14214B4302EB03069B
:106E3000002806D029003000FFF71DFB4FF4064064
:106E40004FE07068318900EB8104A87D002818D0DC
:106E500002281CD027D3042804D01ED3062834D0FF
:106E600027D335E0DFF8080700214160A9690160F8
:106E7000DFF80017FFF7B8FB002802D148F20960DD
:106E80002FE021002800FFF770FD040022E0210020
:106E90002800FFF77CFD04001CE021002800FFF71C
:106EA000FCFD040016E021002800FFF789FD040026
:106EB00010E00620A875DFF8BC060188DFF8B006F0
:106EC0004068FFF796FD040004E041F61D5401E020
:106ED00048F20E64002C03D029003000FFF7CBFAF3
:106EE000200070BD245A0020DEC0ADDEFE011EF180
:106EF00080B5002802D04FF406401BE00879002836
:106F000003D0022811D006D312E002200871080035
:106F1000FFF78BFD0EE00800FFF7A6FD48F20961C0
:106F2000884201D141F61D5004E041F61D5001E0B8
:106F300048F20E6002BD10B5002802D04FF40640A2
:106F40002AE0B04C207B002802D00020207301E012
:106F5000FFF7BBFE207801280AD002280BD00328B7
:106F60000CD004280DD006280ED007280FD011E031
:106F7000FFF76BFE10E0FFF73FFE0DE0FFF724FE8A
:106F80000AE0FFF702FE07E0FFF745FE04E0FFF727
:106F900052FE01E048F20E6010BD000090EB0020B0
:106FA00030B585B00400DFF8D0552868002804D13A
:106FB000DFF8C805FFF7FEFB286028680078012885
:106FC00009D01FD303280CD00BD305280FD00ED324
:106FD000062812D016E029682000FFF79DFE040065
:106FE00012E029682000FFF71BFF04000CE029686D
:106FF0002000FFF77DFF040006E02000FFF79BFF65
:10700000040001E048F20E64002C09D06846142107
:1070100000F040FE41F61D50844202D1002400E001
:1070200012E0019469462868FFF704F96846FFF703
:10703000EFF8002028600024DFF84005FFF7C2FBCE
:10704000FFF7C8FB0028AED105B030BD30EE002000
:1070500080B50121DFF8340300F0C2FC002802D122
:107060000020FFF79DFF01BDD06C0300C4ED0020A0
:10707000D86C030080B54068FFF792FF01BD2DE991
:10708000FE4304000D0016001F005FF00008002002
:107090005D480078002802D148F2016063E0002DCD
:1070A00002D148F204605EE028884FF6FF71884202
:1070B00002D06888002802D148F2036053E0686873
:1070C000FFF79EF8002802D148F202604BE0002E44
:1070D00009D1D5F808906946484680B2FFF7F3F920
:1070E000002805D03FE03088ADF80000B6F80290E7
:1070F00001A8FFF747FB0600002E08D1BDF80010DD
:10710000484680B2FFF721FA48F207602BE037705B
:107110000020B075BDF80000B08268683061FFF7EC
:1071200025FAF060288830816888B080A6F806903B
:10713000FFB2032F03D10420B0752068B061A6F818
:107140000A8001A8FFF72EFB002C09D00020606008
:10715000F06820600020A072DFF80C040089208114
:10716000FFF776FF0020BDE8FE8380B5DFF810242E
:107170001168042902D148F20B6009E0DFF8041419
:10718000136841F823000121100000F037FC0020B3
:1071900002BD40F6F870016811F1010F03D1DFF86C
:1071A000E803006800E00068DFF8E0130968DFF832
:1071B000E023126810F1010F01D11000484370471D
:1071C00038B54FF44054DFF87852FFF7E2FF2861FA
:1071D0002869041BEC6031BD80B5FFF7F1FF002288
:1071E000DFF8B013DFF8580200F0DAF902BD80B51D
:1071F0001C238C22DFF8A0136348006800F0A0FC79
:1072000001BD000028ED0020BCED002090EB002027
:1072100038B586B001A8142100F03CFDDFF84C43DE
:107220002078002804D001A8FEF7F2FF002050E0EB
:10723000201D00F0FEFB002801D0002049E0FFF7F0
:10724000CBFF002845D1FFF7D2FFFFF7D0FA0500AA
:107250002800C0B2002804D0022802D0062803D09B
:107260000BE048F20A6034E00120207000206060EA
:1072700001A8FEF7CDFF00202BE06846FFF782FA59
:10728000002802D148F2076023E001210170EDB22D
:10729000012D0CD0032D0AD0052D11D0072D0FD0B4
:1072A000092D07D00A2D08D00B2D03D00BE00021AB
:1072B000017108E00321017105E00221017102E082
:1072C00001210171FFE76846FFF76CFAFFF7C0FE86
:1072D000002007B030BD7CB504000D00002C01D0AB
:1072E000002D02D148F204601CE069462000FFF73F
:1072F0007BF9002814D066680121DFF8A022BDF8D0
:1073000000301420434302EB03000C3000F076FB06
:107310002E6060680C3068600120A072002001E0DF
:1073200048F2096076BD1CB50400002C02D148F279
:10733000046027E069462000FFF756F900281FD0B7
:107340001421DFF85822BDF8000048431044C068FB
:10735000002812D0A07A00280FD0BDF800004843C2
:107360001044BDF8003001FB03F11144C968491E07
:10737000C1600020A072002004E048F2056001E036
:1073800048F2096016BD0000A06E030028EE002040
:1073900080B502230022FFF772FE02BD80B50028EF
:1073A00002D148F2046003E003230022FFF767FEE6
:1073B00002BD1CB504006D480078002802D148F2D7
:1073C00001601BE020004FF6FF7180B2884202D1BD
:1073D00048F2036012E06846FFF7D4F9002802D1B2
:1073E00048F207600AE00521017001210171C480A3
:1073F0006846FFF7D7F9FFF72BFE002016BD80B5D2
:107400005A480078002802D148F2016015E0684629
:10741000FFF7B8F9002802D148F207600DE0062115
:1074200001706846FFF7BEF94F490878002801D07F
:1074300001200873FFF70CFE002002BD00000000D1
:10744000245A0020A46E0300CCED002003B581B0C7
:1074500002A901A8FFF706F90EBD01B513000A0045
:1074600069460020FFF7FEF802BD01B513000A00CF
:1074700000216846FFF7F6F802BD002801D0002978
:1074800002D148F2046002E0006808600020704702
:107490002DE9F84304004FF480650020334800785C
:1074A000002802D148F201605AE0002C02D148F2D3
:1074B000046055E0122100222600300000F0B6FBE7
:1074C00003202080002646E05FF01408DFF8CC900F
:1074D000300080B208FB00F048440789300080B2D9
:1074E00008FB00F048444089C719300080B208FB0F
:1074F00000F048444068FEF71CFF032802D12088B2
:10750000401E20806188300080B208FB00F04844B3
:10751000C068411861802189300080B208FB00F802
:1075200009EB080040894118218160893818608181
:10753000EF1BA089390089B2884200D2A78114F1DB
:107540001000009014F10E03A21D211D300080B226
:10755000FFF7CDF8761C300080B20228B4DB0020A3
:10756000BDE8F2830000000028ED0020BCED002003
:1075700090ED0020E8EE002034EE002038EE0020F0
:107580002CEE002008ED0020141000101000001058
:10759000140000106061030060E7002090EB002001
:1075A0001CB5002814D10E200090DFF8B432DFF8AB
:1075B000B422DFF8B412DFF8B402DFF8B442001BE3
:1075C000C008000450F0010000F049FD0E201BE04F
:1075D000002914D10E200090DFF88432DFF89422C5
:1075E000DFF88412DFF88402DFF88442001BC00851
:1075F000000450F0010000F032FD0E2004E00160B4
:10760000110002681268904716BDF8B504000F001B
:1076100015001E00002C10D10E200090DFF85C3207
:10762000904A91499148924C001BC008000450F0C8
:10763000010000F014FD0E2098E0002D0FD10E2067
:1076400000908E4B8E4A88498848894C001BC008A0
:10765000000450F0010000F002FD0E2086E02068DA
:1076600000280FD108200090844B834A7E497F4830
:107670007F4C001BC008000450F0010000F0EFFC3C
:10768000082073E0002E0FD1092000907B4B38A218
:1076900075497648764C001BC008000450F0010084
:1076A00000F0DDFC092061E060684068B6FBF0F1A5
:1076B00000FB116000280FD0092000906F4B714A29
:1076C00069496A486A4C001BC008000450F0010078
:1076D00000F0C5FC092049E0380000F0EEF8002871
:1076E0000FD110200090654B674A5F495F48604C9E
:1076F000001BC008000450F0010000F0B0FC102096
:1077000034E0280000F0D9F800280FD110200090B4
:107710005A4B5E4A54495548554C001BC00800045A
:1077200050F0010000F09BFC10201FE032003900F7
:10773000200000F0B5F800280FD1102000904F4B2A
:10774000534A494949484A4C001BC008000450F0BC
:10775000010000F084FC102008E00698009033003F
:107760002A00390020002468E468A047F2BD000028
:107770006C656E00F8B505000E0014001F00002DAA
:107780000FD10E200090434B364A37493748384CCA
:10779000001BC008000450F0010000F060FC0E2047
:1077A0005BE0286800280FD108200090394B324A4E
:1077B0002D492E482E4C001BC008000450F001003B
:1077C00000F04DFC082048E0002C0FD1092000906B
:1077D000304B22A224492548254C001BC008000438
:1077E00050F0010000F03BFC092036E03100280099
:1077F00000F06BF800280FD110200090254B264A8E
:1078000019491A481A4C001BC008000450F0010026
:1078100000F025FC102020E06868026802FB04F2FA
:107820003100280000F03CF800280FD11020009013
:10783000184B1A4A0C490D480D4C001BC008000497
:1078400050F0010000F00BFC102006E03B0022008D
:10785000310028002C682469A047F2BD6C656E00D9
:1078600034670300586D03009C5B03005845030018
:1078700030450300606D0300E06B030048670300C0
:10788000686D0300C85B03000C6503007C5F0300A8
:10789000205E03005C670300485E0300DC500300C9
:1078A000C368994206D300695118491E884201D322
:1078B000012000E00020C0B2704710F0030F01D19A
:1078C000012000E00020C0B2704740680068401E00
:1078D000014201D1012000E00020C0B27047F0B4A5
:1078E0000246106895681318506803EB5004C007EF
:1078F0001DD54D441BE013F8017B05F8017B491EA3
:10790000F9D1A0B1B60813F8011B06F00306032E47
:1079100008BF13F8016B01EB06214942801C294482
:1079200005D011F8016B05F8016B401EF9D1A34297
:107930000ED013F8016B16F0030104BF13F8011BFE
:10794000C91C30090F28DAD113F8010B0F30D6E724
:10795000F0BC02F10C00704710B4020052E8000FB6
:107960000B4642E8003494F0000FF7D110BC70478A
:1079700010B4020052E8000F40EA010342E800346C
:1079800094F0000FF6D110BC7047000010B4020054
:1079900052E8003F43EA010042E8000494F0000F7F
:1079A000F6D110BC7047000010B4020052E8000F7E
:1079B00000EA010342E8003494F0000FF6D110BC55
:1079C0007047000010B4020052E8003F03EA0100D3
:1079D00042E8000494F0000FF6D110BC704700009C
:1079E00010B4020052E8000F00EB010342E800343B
:1079F00094F0000FF6D110BC7047000010B40200E4
:107A000052E8003F03EB010042E8000494F0000F4D
:107A1000F6D110BC7047000010B4020052E8003FDD
:107A2000A3EB010042E8000494F0000FF6D110BC73
:107A3000704780B50121FFF79BFF02BD80B5012192
:107A4000FFF7A4FF02BD80B50021FFF7ADFF02BD27
:107A50001CB450E8014FA2B2C3891A4483899A42E8
:107A600028BFD21A03899A4202BFBFF32F8F00208A
:107A700007E0C2EA040240E80123002BE9D14FF0FD
:107A8000010001948DF80000019808609DF8000045
:107A900016BC704750E8012FC2EA024240E80121BB
:107AA0000029F7D1704700001CB450E8024F1FFABC
:107AB000A4F2C3889A4202BFBFF32F8F00200DE0CB
:107AC000C3891A4483899A4228BFD21AC4EA02425F
:107AD00040E80223002BE8D14FF0010001948DF81B
:107AE0000000019808609DF8000016BC7047000077
:107AF00050E8022FC2EA224240E802210029F7D1D1
:107B00007047000081B050E8021FC288B1EB314FCE
:107B10004FF0000317BF89B242EA024241EA024233
:107B200004E04168B1EB314F08BF012340E8022176
:107B30000029E8D18DF800309DF8000001B07047B1
:107B400070B4002901D10E2013E01400A4B21D006E
:107B5000ADB294FBF5F605FB1644002C01D00920CC
:107B600007E0016000214160002181608281C381C2
:107B7000002070BC704780B5FFF7C4FFC0B200287A
:107B800001D0002000E0112002BD38B504000D0036
:107B900029002000FFF75CFF002803D02068298817
:107BA000084400E0002032BD80B50A8849888A4236
:107BB00003D1FFF76FFF012000E0002002BD38B5C0
:107BC00004000D0029002000FFF76EFF002803D0FD
:107BD00020686988084400E0002032BD80B50A882A
:107BE00049888A4203D1FFF783FF012000E000208B
:107BF00002BD30B4002513E050F8042BD30744BF76
:107C0000A9F101039A18091F042942F8045BFAD26A
:107C100013468C0744BF15809B1CC90748BF1D70C5
:107C200050F8041B0029E7D130BC704762F30F22E3
:107C300062F31F42401810F0030308D0C91A1FD383
:107C4000DB0748BF00F8012D28BF20F8022D1300E4
:107C500030B414461546103928BF20E93C00FAD844
:107C6000490728BF20E90C0048BF40F8042D8900CF
:107C700028BF20F8022D48BF00F8012D30BC704706
:107C8000C91818BF00F8012DCB0728BF00F8012D37
:107C90007047FEE7002200F0CFBBFEE780B5026828
:107CA0001268904701BD80B501684968884701BDE9
:107CB00080B501688968884701BDC0680171704757
:107CC000C068007970470121C06841717047C06881
:107CD0004079704780B50120DFF830170870DFF871
:107CE000300700F0C2FB00280AD1DFF8280700F0B7
:107CF00085FCDFF82417DFF82407081AC0080020E5
:107D000002BDDFF81407DFF81417401AC0087047E7
:107D100010B50400C9B2002913D0FFF7F2FF00210B
:107D200000E0491C81420AD2DFF8F42602EB81020E
:107D3000128823689A42F4D12160002002E00520D5
:107D400000E0002010BD01B5C9B26846FFF7E0FFB2
:107D5000002806D1DFF8CC06009900EBC1000068CE
:107D600000E0002002BDDFF8BC2602EBC000C9B273
:107D7000012906D00DD3032907D004D3042906D046
:107D800007E0022006E0042004E0007902E04079E8
:107D900000E00020C0B27047030000201A68C2F360
:107DA0008002002A17D0187810F00300012802D0B2
:107DB000022808D00EE008681A68C2F38312921CE9
:107DC0001018086006E008681A68920D921C1018D6
:107DD0000860FFE70120C0B27047F8B584B0002406
:107DE000DFF8285615F58360FFF728FE05F21446E4
:107DF0003000FFF723FEA8680090DFF82C06076824
:107E00000098384005EB80000C3004E000983840C2
:107E100005EB80000C306946FFF7BEFF0028F5D166
:107E200000200BE00099394005EB8101C96801AAE7
:107E300042F820100099491C0091401C0228F1D3FF
:107E4000019810F0030001280BD0022812D1BDF8D0
:107E50000A4000980199890DC91C10EB910000900F
:107E600008E0BDF80A4000990198C0F3831041185A
:107E70000091FFE73000FFF7E6FD002801D00098F1
:107E8000A860A4B2200005B0F0BD80B50021DFF8E5
:107E90009C05FFF761FD80F3100002BD2DE9F8435A
:107EA00004000D0016001F00DDF82080A1465FEAE7
:107EB0001949FFF7EAFFDFF854157A1C18EA0202A5
:107EC00001EB820259EA0049C2F80C9018EA070750
:107ED00001EB87000C30016864F3C50101600168A3
:107EE00066F389110160016865F39F21016001213A
:107EF000026861F301020260016831F0040101606F
:107F0000BDE8F1832DE9FC47050089461400AE1C4D
:107F1000012700208DF80000684600F0CFFBDFF855
:107F2000EC84D8F80400C9F80000DFF8FC94D9F814
:107F30000000401CD8F80410411AD8F80800411875
:107F400014E008F21C4A01215046FFF757FDFFF7E5
:107F500044FF01005046FFF751FDD9F80000401CD6
:107F6000D8F80410411AD8F808004118B142E8D3F3
:107F70003800C0B2002820D00021E4B2002C07D085
:107F8000012060F3010151F0040165F3891106E05D
:107F9000022060F3010151F0040165F39F51D8F80C
:107FA0000420D9F80000024008EB82000C30016088
:107FB000D8F804003618C8F804609DF8000000F0F6
:107FC00081FB3800C0B2BDE8F6872DE9FC41040012
:107FD0000D0017001E00DFF85004D0F800800122C9
:107FE00001A93000FFF78EFF002818D00198801CEF
:107FF00000210AE0DFF8142418EA000302EB8302F0
:1080000057F82130D360401C491CB142F2D3CDF85F
:108010000080019B320029002000FFF73FFFDFF8BE
:10802000EC030078002803D000F04CF80028FBD1C6
:10803000BDE8F38180B500230022FFF7C6FF01BD34
:1080400080B5009201236A46FFF7BFFF01BDE0B58E
:108050000092019302236A46FFF7B7FF07BD1FB5E1
:10806000069C00920193029403236A46FFF7ADFF3A
:108070001FBD38B584B0089C099D009201930294FD
:10808000039504236A46FFF7A0FF05B030BD78B51D
:1080900085B00A9C0B9D0C9E00920193029403955F
:1080A000049605236A46FFF790FF06B070BDDFF81F
:1080B0005C0381684068814201D1012000E000201A
:1080C000C0B270472DE9F84785B0FFF7F0FF0028F0
:1080D00001D0002040E1DFF834730020C7F8180415
:1080E000BFF34F8FB8680090DFF83C030568009835
:1080F000284007EB80000C3000240026002104E01B
:108100000098284007EB80000C306946FFF744FEDA
:1081100000280BD0D7F81804002807D100987968F8
:108120008842EDD37868B860002015E100200BE0AC
:108130000099294007EB8101C96802AA42F8201082
:108140000099491C0091401C0228F1D3029810F0BC
:10815000030002286FD1DDF808805FEA9858029882
:10816000800D502804DADDF808905FEA995901E0A3
:108170005FF05009029869F39F50029019F10801CD
:108180000298C0F3C200A24800F073F90400002C6A
:1081900000F09480200000F0BCF93300082202A90E
:1081A000200000F01BFA0836681C00992940401A8C
:1081B000800048452DD2002805D000990D4007EBDE
:1081C00085010C3101E017F10C01002801D0824635
:1081D00000E0CA46002802D017F10C0500E0002597
:1081E000002802D0B9EB000901E05FF0000933007C
:1081F0005246D2B2200000F0F1F956FA8AF3002D6F
:1082000012D05FFA89F94A462900200000F0E6F909
:108210000AE00098054007EB850010F10C013300DF
:108220004A46200000F0DAF9009818F1030810EB34
:108230009800009042E0029810F0030001283DD120
:108240000298C0F38310062803DA0298C0F3831063
:1082500000E00620029960F3891102910298C0F3B0
:108260008311891C0298C0F3C2008900684800F09D
:1082700000F90400002C21D0200000F04AF933005E
:10828000082202A9200000F0A9F908365FF00008D2
:108290000FE00098411C009133000422284007EBB6
:1082A000800010F10C01200000F098F9361D18F143
:1082B00001080298C0F383108045EAD3002C2FD028
:1082C000D7F81064D7F81804002813D0200000F065
:1082D00026F939E000253000FFF7F9FC012800D12C
:1082E0000125EDB2002D03D021003000FFF7D6FCB0
:1082F000F0680668002EEDD1200000F010F9002093
:108300008DF8040001A800F0D9F9D7F81804002866
:1083100001D10098B8609DF8040000F0D3F913E093
:10832000D7F8104404E02000FFF7C2FCE0680468BE
:10833000002CF8D13E493F48384A801AC008000452
:1083400050F00200FFF776FEFFF7B1FE002801D1E2
:10835000012000E00020C0B206B0BDE8F08770B593
:10836000002600E0761C0A2E13DA2848D0F81044C4
:10837000012501E0E0680468002C05D02000FFF72B
:108380009FFCB042F6D10025EDB2002DEAD03000BE
:1083900001E05FF0FF3070BD38B50500FFF7DFFF8B
:1083A000040014F1010F01D120001BE020000100A6
:1083B000C9B22800FFF781FC1449D1F81004002845
:1083C00005D1C1F810540020E968086009E0D1F82F
:1083D0001004C0680068EA681060D1F81004C06832
:1083E0000560200032BD10B50848D0F810440121C6
:1083F000017007E02000FFF766FC2000FFF753FC48
:10840000E0680468002CF5D110BD000078DE002083
:108410003C690300046C0300E045030030450300A1
:1084200000000000304503007859002094E200204D
:10843000706703006045030000B500BF1300964657
:108440009446103928BFA0E80C50FAD85FEA417C66
:1084500028BF0CC048BF40F8042BC90728BF20F82C
:10846000022B48BF00F8012B00BD80B500F03DF99C
:1084700002BD2DE9F04105002F8A3F1F7918C91C64
:10848000B1FBF7F6280000F04DF90400002C01D1F3
:10849000002020E00020207101206071E78027008B
:1084A000F6B2761E3D605FF0000807E06179491C76
:1084B000617138600560070018F10108B04509D204
:1084C000280000F02FF90028F0D1200000F005F876
:1084D000002000E02000BDE8F081F8B501000800B0
:1084E00044790A002300DBB25B1E002001E0126821
:1084F000401C9842FBD31768002505E00E68380041
:1085000000F03CF931006D1C2000C0B28542F5D36B
:10851000F1BD80B50121001DFFF770FA01BD1CB54A
:10852000040020000121001DFFF776FA0090684644
:108530000078002802D12000FFF7CFFF13BD2DE9FE
:10854000F84F05000700EC8868794443241FEE8843
:10855000181DB0FBF6F01D1DB5FBF6FC06FB1C5C00
:1085600015685D19AC4202D2E31A1C0000E01468E1
:10857000146001E03F68401E0028FBD15FF0000856
:10858000B6EB0C0A89460A9D544501D2A24601E089
:1085900000E0A246002C1FD009EB080107EB0C00FD
:1085A000001D2A00D2B2002A06D052468B46010096
:1085B000584600F0FBF804E052468346584600F067
:1085C000F5F85FF0000C3F68B4EB0A041AEB0808FA
:1085D000B442DED3B246DDE7BDE8F18FE0B50192EB
:1085E0000022009201AAFFF7AAFF07BDE0B50192A1
:1085F0000122009201AAFFF7A2FF07BD00218268B5
:10860000916000218268116100218268516100211E
:108610008268D16000218268516000218068016019
:108620007047FEE7EFF3108072B6704762B670478E
:1086300038B50400FFF7F6FF1A4A9168002910D1F7
:10864000012191601849194B1D680D401560196092
:1086500017490B6853605FF0FF320A6000212170F8
:1086600001E001212170002801D1FFF7DFFF002088
:1086700032BD10B50B4CA168002910D0C0B2002843
:108680000DD1FFF7CFFF21680A4A116061680A4ADD
:1086900011600021A160002801D1FFF7C7FF002071
:1086A00010BD000078ED0020FC06FFBD80E100E079
:1086B00084E100E000E100E004E100E080B5FFF7C4
:1086C000B7FF01BD80B5C0B2FFF7D3FF01BDC268DF
:1086D000C9B2008A414302EB01007047C268891A9F
:1086E000008AB1FBF0F0C0B2704710B4002801D18D
:1086F0000E2015E0816842688A1A41680368196093
:1087000005E0016809684B1C046823600A701100C9
:108710004A1EC9B20029F4D100210068017100206D
:1087200010BC704738B50400002500208DF800000B
:108730006846FFF7C3FF606821680968884217D25E
:1087400020680068401E2168086020680068017881
:108750002000FFF7BCFF0500A16820680068081A28
:10876000216809790200D2B2914201D221680871D0
:108770009DF80000FFF7A6FF280032BD7CB504007D
:108780000D0000208DF800006846FFF797FF206875
:108790000668701C2168086029002000FFF79EFF12
:1087A00030709DF80000FFF78DFF73BD62B38B073B
:1087B00008D0521E11F8013B00F8013B00F0248064
:1087C0008B07F6D1830740F0208000BF103A07D313
:1087D00030B4B1E83810103AA0E83810F9D230BC03
:1087E000530724BFB1E80810A0E8081044BF51F8AF
:1087F000043B40F8043BD20724BF31F8022B20F899
:10880000022B44BF0B7803707047121F17D35B0015
:1088100009D151F8043B20F8023B1B0C121F20F831
:10882000023BF6D20BE051F8043B00F8013B1B0A77
:1088300020F8023B1B0C121F00F8013BF3D238BF9B
:10884000121D521E24BF11F8013B00F8013BF8D85D
:108850007047FEE7EFF31180402181F311887047E4
:108860002DE9F84384B006000F009146984648462B
:1088700080B2800000F0C8FD0500002D0BD0542010
:1088800000F0C2FD0400002C01D0256304E02800A4
:1088900000F026FE00E00024002C13D00D990C9867
:1088A0000022039202940191009043461FFA89F935
:1088B0004A463900300000F00AF8200000F05AF86B
:1088C000012001E05FF0FF3005B0BDE8F0832DE945
:1088D000F84306000C0090461D000A9F5FEA8801DD
:1088E000A522D7F830904846FFF7A0F9386B00EB87
:1088F0008800B0F104085FEAD8085FEAC8080021E0
:1089000000E0491C102907D2605C07EB010282F8E5
:108910003400605C0028F4D1DDF82090002087F856
:108920004300B9F1060F01D35FF00509099CC7F8B0
:108930002C90C7F844900020B864381D00F071FEF8
:1089400017F1180000F06DFE3F61D9F10609C7F874
:1089500018907F620020F864002087F850002A00F9
:108960003100404600F0ACFE3860002C00D027609B
:10897000BDE8F18338B5040000F0D5FEDFF8EC1651
:108980000868401C0860DFF820572868002806D1D6
:108990002C60086801280DD100F026FB0AE0DFF802
:1089A0000C070068002805D1E06A2968C96A884276
:1089B00000D32C60DFF818070168491C0160DFF85C
:1089C00014070168E26A914201D2E16A0160211D47
:1089D000DFF87C28E36A1420434302EB030000F035
:1089E00023FE00F0A8FEDFF8C406006800280ED0C1
:1089F0002868C06AE16A884209D25FF08050DFF8D7
:108A0000D018086040BFBFF34F8FBFF36F8F31BDE9
:108A100038B5040000F087FE002C03D1DFF888068B
:108A20000468FFE7201D00F026FEA06A002803D09E
:108A300014F1180000F01FFEDFF894060168491CCD
:108A40000160DFF86456286884420AD1211DDFF8EE
:108A5000080700F0E9FDDFF804070168491C016020
:108A600009E0DFF808060168491E0160200000F0F7
:108A7000FFFA00F006FB00F05EFEDFF8300600684B
:108A800000280CD02868844209D15FF08050DFF8BC
:108A90004018086040BFBFF34F8FBFF36F8F31BDE9
:108AA00070B5040000F03FFE002C03D1DFF8F8059C
:108AB0000468FFE7201D00F0DEFDA06A002803D057
:108AC00014F1180000F0D7FDDFF89057211D2800A1
:108AD00000F0AAFD94F85000012802D1002084F88B
:108AE000500000F028FEDFF8C4653068002805D08B
:108AF00000F019FE00F0C5FA00F01DFEDFF8A81521
:108B00000868844218D1306800280AD05FF080508D
:108B1000DFF8BC17086040BFBFF34F8FBFF36F8F04
:108B20000AE02868DFF844251268904202D100204C
:108B3000086001E000F04DF970BD010000204A69B5
:108B4000DFF818379A4208D18A6ADFF87C389A42EF
:108B500003D0896A002900D10120704738B504008C
:108B6000002C31D0DFF84055286884422CD000F02A
:108B7000DAFD2000FFF7E1FF002823D0201D00F0E0
:108B80007AFDDFF850050168E26A914201D2E16A9C
:108B90000160211DDFF8B826E36A1420434302EB8D
:108BA000030000F041FDE06A2968C96A884209D3E0
:108BB0005FF08050DFF82017086040BFBFF34F8F91
:108BC000BFF36F8F00F0B7FD31BDE0B5DFF8900760
:108BD00001900020009000233C22DFF888170FF25C
:108BE000E130FFF73DFE012801D100F0C5FD01286D
:108BF00011D1402080F311885FF0FF30DFF8681753
:108C000008600120DFF8A41408600020DFF8BC171A
:108C1000086000F06BFD07BDDFF8B8070168491C6C
:108C20000160704770B50024002500F07CFDDFF87E
:108C3000AC060168491E01600068002856D1DFF8C3
:108C40002C040068002826D150E0C868C46814F1DC
:108C5000180000F010FD201D00F00DFDDFF8740479
:108C60000168E26A914201D2E16A0160211DDFF8E8
:108C7000E025E36A1420434302EB030000F0D4FC38
:108C8000E06ADFF824140968C96A884203D3012026
:108C9000DFF844170860DFF8301708680028D4D1DF
:108CA000002C01D000F0EDF9DFF830673468002CBB
:108CB0000CD000F028F8002803D00120DFF81817A6
:108CC0000860641E002CF4D100203060DFF8080733
:108CD000006800280AD001255FF08050DFF8F81501
:108CE000086040BFBFF34F8FBFF36F8F00F023FDCD
:108CF000280070BDDFF8D406006870470020DFF858
:108D0000CC0600687047F8B50025DFF8D00500688C
:108D1000002851D1DFF8A4040468641C0460002C0E
:108D20000ED1DFF830050168DFF82C2513680360E9
:108D30001160DFF8B0060168491C016000F0A1F97C
:108D4000DFF82466306884423BD323E0381D00F00E
:108D500092FCB86A002803D017F1180000F08BFCD1
:108D6000DFF870030168FA6A914201D2F96A016082
:108D7000391DDFF8DC24FB6A1420434302EB0300B7
:108D800000F052FCF86ADFF820130968C96A8842CB
:108D900000D30125DFF8BC1408680068002807D05C
:108DA0000868C068C76878688442CFD2306008E03D
:108DB0005FF0FF30306004E0DFF820060168491CF6
:108DC0000160DFF814060068002800D001252800A3
:108DD000F2BD10B4DFF804050068002804D00120BB
:108DE000DFF8F415086023E00020DFF8EC150860D8
:108DF000B8490A6800E0521E1423DFF8544403FB0C
:108E000002F020580028F6D003FB02F304EB030025
:108E100043685B684360436810F10804A34202D1D1
:108E200043685B6843604068C0689F4B18600A6095
:108E300010BC704710B50C00DFF8A4150968183194
:108E400000F0FEFB0121200000F090FA10BD10B5EB
:108E50001400DFF88C2551F0004113689961116806
:108E6000183100F0E1FB0121200000F07FFA10BD75
:108E700038B50D001400DFF868150968183100F0E6
:108E8000D3FB002C01D05FF0FF352100280000F05B
:108E90006DFA31BD10B5C068C46814F1180000F057
:108EA000EAFBDFF838040068002814D1201D00F028
:108EB000E2FB88480168E26A914201D2E16A0160FE
:108EC000211DDFF88C23E36A1420434302EB0300E7
:108ED00000F0AAFB05E014F11801DFF8EC0400F043
:108EE000A3FB71480068C06AE16A884205D201208C
:108EF0000121DFF8E424116000E0002010BD10B56E
:108F000051F000410160C46800F0B5FB201D00F085
:108F1000B2FB70480168E26A914201D2E16A0160E5
:108F2000211DDFF82C23E36A1420434302EB0300E6
:108F300000F07AFB5C480068C06AE16A884203D2AC
:108F40000120DFF89414086010BDDFF89814096858
:108F50000160DFF8781409684160704738B5040093
:108F60000D0000F0E0FB954800686168411A2A682E
:108F700012F1010F01D1002418E0DFF86824126813
:108F800023689A4204D06268904201D301240DE024
:108F90002868814207D22868411A29602000FFF71B
:108FA000D4FF002402E000202860012400F0C3FB6D
:108FB000200032BD0120DFF8201408607047000057
:108FC00080B500F038F8A2480068022809D35FF0A5
:108FD0008050DFF80413086040BFBFF34F8FBFF32A
:108FE0006F8F00F0BEFDECE738B5002407E098482D
:108FF000142101FB04F1084400F004FB641C062C5E
:10900000F5D3DFF8E443200000F0FCFADFF8DC538E
:10901000280000F0F7FADFF8B00300F0F3FA4E484A
:1090200000F0F0FA8D4800F0EDFA8A480460DFF8AD
:10903000C003056031BD38B513E000F074FB46484D
:10904000C068C468201D00F016FB08480168491E6E
:1090500001602868401E286000F06DFB200000F0D1
:1090600007F83E4D28680028E7D131BDA8EE002062
:1090700010B50400206B00F033FA200000F030FA45
:1090800010BD744908680068002805D15FF0FF3002
:10909000DFF8D412086006E00868C068C06840685D
:1090A000DFF8C4120860704798EE0020B4EE00208C
:1090B000DFF81C030068002801D1012007E0DFF879
:1090C00014030068002801D1022000E0002070474E
:1090D000C4EE0020B0EE0020F8B504000021002806
:1090E00038D0DFF8FC52E06A2A68D26A90422BD26C
:1090F000A069002804D42868C06AD0F10600A061E5
:10910000744E14276069E16A79433144884216D16C
:10911000201D00F0B0FA2868C06AE062DFF8D402CF
:109120000168E26A914201D2E16A0160211DE06AB0
:1091300007FB00F706EB070000F076FA02E028686C
:10914000C06AE062012105E0606C2A68D26A904240
:1091500000D201210800F2BDB8EC0020A4EE0020EE
:1091600010B504000021002825D0A06C401EA0648A
:10917000E06A626C90421ED0A06C00281BD1201DBA
:1091800000F079FA606CE062E06AD0F10600A0615C
:10919000DFF860020168E26A914201D2E16A01608F
:1091A000211DDFF85422E36A1420434302EB03003D
:1091B00000F03AFA0121080010BD0000ACEE0020DA
:1091C00070B50400012200282BD0606C884200D3C7
:1091D000616CE06A884224D0A06C904221D1E06AA0
:1091E000E162A269002A02D4D1F10601A161394DE0
:1091F0001426616970432844814212D1201D00F079
:109200003AFADFF8F0010168E26A914201D2E16ABC
:109210000160211DE06A06FB00F605EB060000F088
:1092200003FA70BDDFF8B811086880690A68096838
:10923000C96AD1F1060191617047DFF8A41108688D
:10924000002803D00868826C521C8264086870474A
:10925000ECE900209CEE0020A0EE0020CCEC0020E9
:1092600070B504000D0000F05EFADFF8746130683C
:10927000C06C002812D10120316881F85000002D07
:109280000CD00121280000F071F85FF080501249E5
:10929000086040BFBFF34F8FBFF36F8F00F04BFAF2
:1092A00000F041FA3068C56C002D08D0002C03D0C6
:1092B00000203168C86402E0681E3168C86400207C
:1092C000316881F8500000F036FA280070BD0000C7
:1092D00004ED00E0ECE9002004ED00E0D0EE002019
:1092E00070B506000C00FFF7B5FA050096F85000BF
:1092F000022186F85010F16C491CF164C0B20128BB
:109300002AD134480068002813D1301D00F0B3F989
:1093100038480168F26A914201D2F16A0160311D58
:10932000354AF36A1420434302EB030000F07CF952
:1093300004E016F11801244800F076F92848006886
:10934000C06AF16A884207D2002C02D00120206056
:1093500002E001202049086085F3118870BD0000FB
:10936000CCEE0020586E0300C8EE0020F8B50500D2
:109370000C00164806681A4F3868001D00F07BF98B
:1093800015F1010F07D1002C05D03868011D1B48CD
:1093900000F04AF916E0AD1938684560B54206D2CA
:1093A0003868011D1248006800F04AF90AE0386880
:1093B000011D1348006800F043F9124801688D420E
:1093C00000D20560F1BD0000A4EC0020ACEE00204E
:1093D000B4EE0020D0EE0020BCEE0020B8EE00205D
:1093E00098EE0020C0EE00207CEC002090EC0020E5
:1093F000A0EE0020B0EE0020ECE90020CCEC002034
:109400009CEE0020C8EE00202DE9F8430400002562
:10941000FFF702FCDFF8D091D9F80000002801D155
:1094200000F083F8714E3068044254D1002C0AD009
:109430006F480068041914F0070F04D014F10800F5
:1094400014F00704041B002C45D06A4F3868A04272
:1094500041D369480100D0F8008002E04146D8F8C5
:109460000080D8F80400A04203D2D8F800000028F9
:10947000F4D1D9F8000080452DD05D480A68036812
:1094800002EB0305D8F800200A6000684000D8F815
:109490000410091B884209D208EB0400D8F8041014
:1094A000091B4160C8F8044000F06EF83968D8F82C
:1094B0000400091A3960514839680268914201D2A2
:1094C00039680160D8F8041030680143C8F8041006
:1094D0000020C8F80000FFF7A5FB2800BDE8F283D4
:1094E00010B5010000281CD041480068404201EB43
:1094F00000043E4960680A68104212D020680028C3
:109500000FD16268086882436260FFF785FB3949C2
:109510000A68606882180A60200000F035F8FFF7DA
:1095200081FB10BD33480068704710B44FF400420F
:109530003348010011F0070F04D0C91DC908C90044
:10954000521A82182C4801600023436052182848A0
:109550000068121AD208D20023480260002304686F
:109560006360002304682360521A4A600068086040
:109570004868224A106048681E4908605FF0004051
:109580001A49086010BC704710B41B4A00E012680A
:1095900011688142FBD3110053681944814204D100
:1095A0005168406841185160100001004368194437
:1095B0001368994210D10C4913680C68A34208D073
:1095C000436811684968CB184360116809680160F5
:1095D00004E00968016001E011680160824200D086
:1095E000106010BC7047000040EE00204CEE0020E0
:1095F000BC6E030044EE0020D4ED002048EE0020B5
:10960000445A002010F1080141605FF0FF31816091
:1096100010F10801C16010F1080101610021016031
:10962000704700210161704742684A6093688B600F
:1096300093685960916008610168491C0160704736
:1096400010B40B6813F1010F01D1026907E010F1AA
:10965000080200E0526854682468A342FAD25368B2
:109660004B604B6899608A60516008610168491CD1
:10967000016010BC70470169826843689A60426863
:1096800083685A604A68824201D182684A60002237
:1096900002610868401E086008687047020052B204
:1096A000002A04D449012D4A40B2115407E049016F
:1096B0002B4A40B210F00F00104400F8041C704711
:1096C000001F284B1B680360001F0160001F0FF282
:1096D0001501016014380260001F7FF00201016073
:1096E00020387047402080F31188FEE780B50F21B5
:1096F0007FF00100FFF7D2FF00F0A8FD00201A491B
:10970000086000F023F81948016851F040410160F9
:109710001748016851F01001016000F0C3FDFFF728
:10972000E1FF002002BD402080F311880E4801684F
:10973000491C016070470C480168491E01600068BF
:10974000002802D1002080F3118870470948016881
:1097500051F47001016070470000000000E400E077
:1097600018ED00E0E86E030080EE002034EF00E02A
:1097700010ED00E088ED00E01CB5002400F0A8F931
:10978000DFF8A403006800280DD0DFF8A0030190E3
:109790000220009000235022DFF894130FF20510EE
:1097A000FFF75EF80400200016BD2DE9FC4105001E
:1097B0000E00170098462820FFF726FE0400002C14
:1097C00008D008980194009043463A0031002800E0
:1097D00000F003F82000BDE8F6812DE9F84305000C
:1097E0000E0017009846099C002C0DD0DDF8209043
:1097F00000F06EF92560A661E761C4F82080C4F826
:109800002490201DFFF70DFFBDE8F1837FB5040014
:109810001D000020DFF810633368002B1CD000917E
:1098200001920294062911DAFFF742FC022806D1C0
:10983000089A00236946306800F003FE0CE000231C
:1098400000226946306800F0FCFD05E000232A0094
:109850006946306800F07FFE04B070BD7CB504003E
:109860000D00DFF8D0020068C068C668301DFFF741
:1098700002FFF069012810D123002A00B1690919FB
:10988000300000F078F8002807D000200090002376
:10989000220000213000FFF7B9FF3000716A8847CD
:1098A00073BD000080B5684600F03FF8009900F0F5
:1098B00003F800F07FF8F6E77CB505000C00FFF731
:1098C000ABF9684600F044F806000098002829D15A
:1098D000002C08D1AE4206D3FFF7A4F931002800CE
:1098E000FFF7BCFF20E0002C07D093480068006819
:1098F000002801D1012400E000242200AD1B290032
:109900008948006801F06EF8FFF78CF900280BD148
:109910005FF080508949086040BFBFF34F8FBFF3AD
:109920006F8F01E0FFF77EF973BD824A1168096805
:10993000002901D1012100E00021C9B201600068C5
:10994000002803D11068C068006800E0002070475C
:1099500070B50400FFF7CEF90500794E30688542F6
:1099600004D200F086F80120206001E00020206091
:109970003560280070BD10B50024416000618A4246
:109980000BD3D21A81698A4201D3012410E0011D50
:1099900069480068FFF754FE0AE09A4203D29942F0
:1099A00001D3012404E0011D62480068FFF748FE6E
:1099B000200010BD10B586B019E0029B0A00029984
:1099C000A06941182000FFF7D6FF00280FD0200023
:1099D000616A8847E069012809D1002000900023CE
:1099E000029AA069821800212000FFF70FFF0022D1
:1099F00001A94D48006800F00EFE002837D00198FC
:109A0000002804D502AA916850681268904701980E
:109A10000028ECD4039C6069002802D0201DFFF7C9
:109A20002AFE05A8FFF794FF010001980028C4D082
:109A30000228C2D0C1D304280AD008D30628BCD03B
:109A400010D3082803D0B8D3092801D00EE0CEE700
:109A50000298A0610B000A00A06941182000FFF7DE
:109A60008AFFC4E72000FFF73BFDC0E7BFE706B071
:109A700010BD7CB505E070603661311D2068FFF7D0
:109A8000DFFD2C4C2068006800281BD02068C068CF
:109A900005682068C068C668301DFFF7ECFD30001F
:109AA000716A8847F0690128EBD1B0694019854295
:109AB000E1D30020009000232A0000213000FFF7AE
:109AC000A5FEDEE720681C490A682260086073BDB5
:109AD00070B5FFF728FE144C2068002818D1194DE6
:109AE0002800FFF78FFD184E3000FFF78BFD11485F
:109AF00005601148066000221021202000F06EFC55
:109B000020602068002803D01049206800F054FF2E
:109B1000FFF711FE70BD10B50400FFF704FE246AC4
:109B2000FFF709FE200010BDDCEE0020E0EE002073
:109B3000606E0300D4EE0020D8EE002004ED00E0BB
:109B4000E4EE0020E0EC0020F4EC0020686E03005E
:109B500080B5FEF7B7FA0028FBD10020FEF7A0FF82
:109B6000F7E780B5DFF86C050068FEF7F7FF01BD89
:109B7000DFF8640500884A88904203D1088840F6DF
:109B80007721884270471CB50400002020880428F3
:109B900000F0AE8010282ED011281CD012286DD0D5
:109BA000132879D0142800F08580152800F09080C3
:109BB000192800F0B4801A2800F0D5801B2831D075
:109BC00026283DD0352800F0E880392800F0D980DB
:109BD000572845D0EDE0DFF80415DFF80405DFF87D
:109BE0000425801AC008000450F00300FEF722FA92
:109BF00000F09DFFEDE0DFF8F014DFF8E404DFF89B
:109C0000E424801AC008000450F00300FEF712FAA2
:109C1000DFF8C404A1880180DFF8D01400887EDF5B
:109C20000028D6E0DFF8C814DFF8B404DFF8B42465
:109C3000801AC008000450F00300FEF7FBF9C8E0EA
:109C400000F08BFFDFF8AC14DFF89404DFF8942405
:109C5000801AC008000450F00300FEF7EBF9B8E0EA
:109C6000DFF89414DFF87804DFF87824801AC0084D
:109C7000000450F00300FEF7DDF9AAE0DFF87C14E1
:109C8000DFF85C04DFF85C24801AC008000450F0A0
:109C90000300FEF7CFF99CE0DFF86414DFF840041E
:109CA000DFF84024801AC008000450F00300FEF7DB
:109CB000C1F98EE0DFF84C14DFF82404DFF8242427
:109CC000801AC008000450F00300FEF7B3F980E0EA
:109CD00014F10802DFF83014DFF80404DFF804346C
:109CE000C01AC008000450F00300FEF7A9F970E0A4
:109CF000DFF81814DFF8E803DFF8E823801AC0085B
:109D0000000450F00300FEF795F9DFF80404007832
:109D10008DF8040001A9A08801F09DF959E0207A8E
:109D200000280DD1DFF8EC13DFF8B403DFF8B4231B
:109D3000801AC008000450F00300FEF77BF911E020
:109D4000DFF8D413DFF89803DFF89823801AC008EF
:109D5000000450F00300FEF76DF91321DFF87803DB
:109D6000008876DF35E0DFF8B413DFF87403DFF83E
:109D70007423801AC008000450F00300FEF75AF95B
:109D800027E0DFF89C13D648D64A801AC0080004A2
:109D900050F00300FEF74EF91BE0DFF88813D048BF
:109DA000D04A801AC008000450F00300FEF742F9C0
:109DB0000FE09D200090DFF870332288DFF86C13ED
:109DC000C748C84C001BC008000450F00300FEF751
:109DD00046F913BD80B501F0E3FB00280020009098
:109DE0006946012001F09BFC684601F0F7FC002861
:109DF00001BD18B585B003A8CD490722FEF7D6FCF2
:109E00009DF8000010F0F00050F001008DF8000007
:109E10009DF8000010F00F0050F030008DF80000A9
:109E20000622C44968467CDF00284FF4207078DFA2
:109E300000280821002201AC2000FDF7F7FE4FF4B6
:109E4000A070ADF804004FF40270ADF806000020D9
:109E5000ADF808004FF4C870ADF80A0001A87ADF29
:109E6000002806B010BD10B5B34CB449200001F075
:109E700051FE00281721200001F065FE002810BDCA
:109E80001CB54FF400410020FDF724FF040001F051
:109E9000E5FE002C8F4801900120009000234FF434
:109EA0008072A749A748FEF7DBFC012805D0A64A27
:109EB00040F21F11042001F0E1FE13BD80B501F056
:109EC00015FF0028002001F04EFF01BD10B5040071
:109ED0009E498348834A801AC008000450F003005A
:109EE000FEF7A8F8207800280AD13B217A4800889C
:109EF00076DF002804D0944A4FF4A17101F0BEFE31
:109F000010BD10B5040092497548764A801AC00801
:109F1000000450F00300FEF78DF88B4A40F249111F
:109F2000200001F0ABFE10BD18B587B01C21002247
:109F30006C462000FDF77AFE002000905FF4203090
:109F400001905FF47020029003208DF80C00002037
:109F5000ADF80E0000208DF810007E4805907E4878
:109F60000690684602F061F8002804D0764A40F274
:109F70005D1101F083FE08B010BD1CB50400200087
:109F800002F0EDF92078042808D1744800788DF8A3
:109F900000006946608801F05EF80DE02078032833
:109FA0000AD1207A002804D1608941F20601884252
:109FB00002D01321608876DF200002F012FA13BD70
:109FC00038B5012400F077FF002804D05E4A40F243
:109FD000FF1101F053FEE4B2002C02D001F059F859
:109FE000002805210022414C25002800FDF71EFE17
:109FF000207850F001002070207810F0FD002070D3
:10A00000207810F0FB002070207810F0F70020700E
:10A01000207810F08F0050F030002070207810F081
:10A020007F002070072060701020A070E07850F052
:10A030000100E070E07850F00200E070207950F00C
:10A0400001002071207950F002002071200000F002
:10A05000E7FF0028424800F0CBFF002831BD80B563
:10A0600040491F481F4A801AC008000450F00300EE
:10A07000FDF7E0FFFEE780B5FFF702FFFFF71EFFE9
:10A080003948016851F004010160FFF7A3FEFFF7B2
:10A09000B0FEFFF7E8FE02F04BFC00F08CFDFFF78E
:10A0A00043FFFFF78DFF02F072FC02F094FD02F017
:10A0B000DCFC02F001FF0021002002F04FFFFEF760
:10A0C00084FD214A40F2BD210F2001F0D7FDF8E7C1
:10A0D0000000000050EE0020385A00208069030084
:10A0E0006045030030450300BC6B0300DCED00203D
:10A0F000086D0300DC640300585F03000061030087
:10A100002061030040610300C86B03006463030027
:10A110001C6F030090690300A069030080630300C3
:10A120000C670300F85D030070690300D46B030043
:10A13000106D0300186D030040EC0020719B0200BD
:10A14000206D0300519B0200245A03002067030086
:10A150009C630300CD9E0200039F02001D6F03005D
:10A160007B9F0200F464030010ED00E0010049B29F
:10A17000002908D4012210F01F018A40444940B24E
:10A18000400941F820207047020052B2002A04D44E
:10A190004901404A40B2115407E049013E4A40B2E9
:10A1A00010F00F00104400F8041C7047EFF311800A
:10A1B000402181F311887047C0F80413704781B0C3
:10A1C00000220B001BB2C25009B240580090009808
:10A1D00001B07047D0F804057047C0F80815704703
:10A1E000012250FA81F002607047C0F844137047B2
:10A1F000F8B50024FFF7DAFF0500284E3000FFF71E
:10A20000E9FF07004FF480713000FFF7D8FFFEF739
:10A2100071FD0600BE1B26F07F46022E08D3FEF716
:10A2200047FF022804D0012602E0FEF76CFD04433C
:10A230003000461E0028F8D1002C04D05FF080507A
:10A240001749086040BF85F31188F1BD10B50020A3
:10A2500001F089FD114C1F212000FFF7BEFF0121F5
:10A260002000FFF7A9FF08212000FFF7B9FF002118
:10A270002000FFF7B5FF02212000FFF7B6FF0F21F6
:10A280001120FFF781FF1120FFF770FF10BD0000C4
:10A2900000E100E000E400E018ED00E00010014003
:10A2A00004ED00E00748006880F3088862B661B6F4
:10A2B000BFF34F8FBFF36F8F4FF4F07080F31188AF
:10A2C00000DF00BF0060020070470000064B196805
:10A2D0000868B0E8F04F80F30988BFF36F8F4FF044
:10A2E000000080F31188704798EE0020704700004E
:10A2F000EFF30980BFF36F8F134B1A681EF0100F36
:10A3000008BF20ED108A20E9F04F106008B44FF02C
:10A31000400080F31188BFF34F8FBFF36F8FFEF7BC
:10A3200058FD4FF0000080F3118808BC19680868D8
:10A33000B0E8F04F1EF0100F08BFB0EC108A80F3A9
:10A340000988BFF36F8F704798EE00207047FEE7D3
:10A35000EFF31180402181F31188704738B5050073
:10A360000C00FFF7E0F92968EA6B286C424301EB27
:10A37000020068600020A8632868A8602968EA6B6A
:10A38000521E286C424301EB0200E8605FF0FF3090
:10A3900085F8440085F84500002C13D12869002871
:10A3A00018D015F11000FEF775FD002812D05FF0EF
:10A3B0008050DFF82816086040BFBFF34F8FBFF30F
:10A3C0006F8F07E015F11000FFF71CF915F124005D
:10A3D000FFF718F9FFF7AFF9012032BDF8B5060015
:10A3E0000D001700002D01D1002001E005FB06F053
:10A3F0004830FFF709F80400002C08D014F1480297
:10A4000000943B00DBB22900300000F002F820008D
:10A41000F2BD80B5029B002901D11B6000E01A60EB
:10A42000D863196401211800FFF798FF01BD10B52A
:10A430000C0002220021FFF7D1FF002800D0846326
:10A4400010BDF7B505000E001F00002430E0029893
:10A4500000285ED0002C03D16846FEF776FD01246B
:10A46000FFF769F9FEF7D8FBFFF75DF995F94400AE
:10A4700010F1010F02D1002085F8440095F9450044
:10A4800010F1010F02D1002085F84500FFF753F9C4
:10A4900002A96846FEF762FD002855D1280000F0A9
:10A4A0007CFA002839D1280000F032FAFEF7BAFB16
:10A4B000FFF739F9A86BE96B884201D3022FC6D1A7
:10A4C0003A003100280000F0CBF9696A002910D069
:10A4D00015F12400FEF7DEFC002816D05FF0805056
:10A4E000DFF8F814086040BFBFF34F8FBFF36F8FE2
:10A4F0000BE0002809D05FF08050DFF8E01408601E
:10A5000040BFBFF34F8FBFF36F8FFFF714F90120E8
:10A5100020E0FFF710F900201CE0029915F110006F
:10A52000FEF788FC280000F0F3F9FEF77BFB00281B
:10A53000BED15FF08050DFF8A414086040BFBFF3C5
:10A540004F8FBFF36F8FB3E7280000F0E1F9FEF7FC
:10A5500069FB0020FEBD2DE9F84306008846140083
:10A560009946FFF7F5FE0500B06BF16B884202D308
:10A57000B9F1020F1FD196F945704A4641463000A5
:10A5800000F06EF938005FF0FF3140B288420DD123
:10A59000706A00280DD016F12400FEF77BFC00281D
:10A5A00007D0002C05D00120206002E07F1C86F837
:10A5B0004570012000E0002085F31188BDE8F2839A
:10A5C00070B506000C00FFF7C3FE0500B06BF16B21
:10A5D00088421CD296F94510401CB06308005FF019
:10A5E000FF3240B290420DD1706A00280DD016F1B2
:10A5F0002400FEF74FFC002807D0002C05D00120D6
:10A60000206002E0491C86F84510012000E000208F
:10A6100085F3118870BDF7B506000F00002404E033
:10A62000300000F075F9FEF7FDFAFFF77CF8B56B26
:10A63000002D06D10298002820D1FFF77CF80020D9
:10A6400067E03900300000F04EF96D1EB5633069E7
:10A6500000280FD016F11000FEF71CFC002809D0CE
:10A660005FF08050DFF87413086040BFBFF34F8F76
:10A67000BFF36F8FFFF75FF801204AE0002C03D192
:10A680006846FEF762FC0124FFF755F8FEF7C4FAAE
:10A69000FFF749F896F9440010F1010F02D10020AC
:10A6A00086F8440096F9450010F1010F02D1002010
:10A6B00086F84500FFF73FF802A96846FEF74EFC12
:10A6C00000281BD1300000F05AF90028A8D00299C8
:10A6D00016F12400FEF7AEFB300000F019F9FEF78A
:10A6E000A1FA0028A1D15FF08050DFF8F0120860D5
:10A6F00040BFBFF34F8FBFF36F8F96E7300000F07E
:10A7000007F9FEF78FFA300000F039F900288CD0F5
:10A710000020FEBD73B582B006000024002504E0D1
:10A72000300000F0F5F8FEF77DFAFEF7FCFFB06BA5
:10A73000002806D10398002822D1FEF7FCFF002054
:10A7400082E0401EB0633068002802D1FEF775FD3C
:10A750007060306900280FD016F11000FEF79AFBE8
:10A76000002809D05FF08050DFF87012086040BF09
:10A77000BFF34F8FBFF36F8FFEF7DDFF012063E064
:10A78000002C03D16846FEF7E0FB0124FEF7D3FF5F
:10A79000FEF742FAFEF7C7FF96F9440010F1010FE9
:10A7A00002D1002086F8440096F9450010F1010F0F
:10A7B00002D1002086F84500FEF7BDFF03A96846D8
:10A7C000FEF7CCFB002826D1300000F0D8F8002896
:10A7D000A6D03068002807D1FEF7A5FF7068FEF705
:10A7E0007BFC0500FEF7A7FF039916F12400FEF796
:10A7F00021FB300000F08CF8FEF714FA002894D109
:10A800005FF08050DFF8D411086040BFBFF34F8F76
:10A81000BFF36F8F89E7300000F07AF8FEF702FA95
:10A82000300000F0ACF800283FF47FAF002D0AD0D4
:10A83000FEF779FF300000F009F801007068FEF7BC
:10A84000BFFCFEF778FF002004B070BD416A00290C
:10A8500004D0006B0068D0F1060000E000207047D3
:10A860002DE9F041060015000027B46B306C00287C
:10A8700009D13068002831D17068FEF771FC0700FB
:10A88000002070602AE0002D0FD1326CB5682800DE
:10A89000FDF78CFFB068316C0844B060B068716837
:10A8A00088421BD33068B06018E0326CD6F80C8058
:10A8B0004046FDF77BFFF068316C49420844F06088
:10A8C000F0683168884204D27068316C49420844AB
:10A8D000F060022D02D1002C00D0641E641CB46311
:10A8E0003800BDE8F08110B50C00016C00290ED0D5
:10A8F000C168026C1144C160C1684268914201D3D1
:10A900000168C160026CC1682000FDF74FFF10BDF7
:10A9100070B50400FEF707FF94F9455008E014F104
:10A920002400FEF7B7FA002801D0FEF743FB6D1EA6
:10A93000280040B2012802DB606A0028EFD15FF0F6
:10A94000FF3584F84550FEF7F6FEFEF7ECFE94F96D
:10A95000446008E014F11000FEF79CFA002801D0D2
:10A96000FEF728FB761E300040B2012802DB20698A
:10A970000028EFD184F84450FEF7DDFE70BD10B51D
:10A980000400FEF7D0FEA06B002801D1012400E0F6
:10A990000024FEF7D0FE200010BD10B50400FEF725
:10A9A000C2FEA06BE16B884201D1012400E00024CB
:10A9B000FEF7C1FE200010BD10B4002300E05B1CB8
:10A9C000022B09D2064C54F83320002AF7D144F860
:10A9D000331004EBC301486010BC704704ED00E085
:10A9E00058ED002070B504000D001600FEF79BFE28
:10A9F00094F9440010F1010F02D1002084F84400C2
:10AA000094F9450010F1010F02D1002084F84500AF
:10AA1000FEF791FEA06B002805D13200290014F149
:10AA20002400FEF725FA2000FFF772FF70BDFEE755
:10AA300080B5C0B2002817D002282BD01FD304281D
:10AA400033D006D3062846D03AD3082859D04DD360
:10AA500062E076497648774A801AC008000450F0D0
:10AA60000300FDF7E7FA61E073497148714A801A03
:10AA7000C008000450F00300FDF7DCFA56E06F490F
:10AA80006B486C4A801AC008000450F00300FDF7C0
:10AA9000D1FA4BE06A496648664A801AC008000449
:10AAA00050F00300FDF7C6FA40E066496048614A8D
:10AAB000801AC008000450F00300FDF7BBFA35E02F
:10AAC00061495B485B4A801AC008000450F00300EB
:10AAD000FDF7B0FA2AE05D495548564A801AC00889
:10AAE000000450F00300FDF7A5FA1FE05849504854
:10AAF000504A801AC008000450F00300FDF79AFA8B
:10AB000014E054494A484B4A801AC008000450F0E7
:10AB10000300FDF78FFA09E04F494548454A801A7E
:10AB2000C008000450F00300FDF784FA01BD80B5B1
:10AB30004A493F483F4A801AC008000450F00300C9
:10AB4000FDF778FA0321464802F009FC002803D0FB
:10AB5000444A402101F092F801BD00B58BB068462F
:10AB600002F02AFE002206E01621684600EB4200B1
:10AB7000808876DF521C00988242F5D3384890F8DE
:10AB8000540074DF0BB000BD38B504000094374B9F
:10AB9000F12237492648274D401BC008000450F0D9
:10ABA0000300FDF75CFA002C04D02E4AF2212000AD
:10ABB00001F064F831BD18B5ABB00020AC21002223
:10ABC0006C462000FDF732F802208DF800000120CD
:10ABD0008DF8020006208DF8030000208DF82D006E
:10ABE00024482A902048299001208DF878000120DF
:10ABF0008DF87C004FF4967022904FF4FA60239009
:10AC000001208DF87D004FF4FA70249042F6E06048
:10AC10002590134C6946200002F01DFB00280121FD
:10AC2000200002F015FB2CB010BD000044660300AC
:10AC300060450300304503007C6403009464030016
:10AC4000105F0300C0600300805D0300A85D030087
:10AC5000445B0300705B0300806B030058660300D5
:10AC600044DA00202459030031AA0200AC64030036
:10AC70008C6B030089AB020038B50400002506E0A8
:10AC80002000DFF8B01451F8251088476D1CDFF85C
:10AC9000B40500788542F3DB31BD38B5DFF8984460
:10ACA000DFF89854002300222900200000F048FA21
:10ACB000052804D14FF6FF7121800021296000286A
:10ACC00001D0052804D10120DFF87C15087003E0CD
:10ACD0000020DFF87415087031BDF8B58AB00500A2
:10ACE0000124A88802F0A2FF68802878082808D0EC
:10ACF000C0F0AC800A2854D03DD30B2800F08680E9
:10AD0000A4E0687A002822D1DFF8401508680028FE
:10AD10000CD00868EA68904208D100200860A88832
:10AD2000DFF8141408800020E86023E0DFF818053D
:10AD3000007800281ED0A888DFF8FC130988884214
:10AD400018D1287A062815D1FFF7A7FF12E0687AF4
:10AD500001280FD1DFF8F004007800280AD0A88875
:10AD6000DFF8D4130988884204D1287A062801D153
:10AD7000FFF793FF6AE0687A002811D1DFF8CC145E
:10AD8000086800280CD00868EA68904208D10020C2
:10AD90000860DFF8A8030168491E01600020E86030
:10ADA00054E0DFF8B0753878002821D04FF6FF76F0
:10ADB000300003F0F9FAB0421AD1300003F0F9FA8A
:10ADC000B04215D1002038701421002205AC2000BB
:10ADD000FCF72CFF0C208DF81400ADF81860ADF8CE
:10ADE000166000242800FFF747FF05A8FFF744FF7F
:10ADF000DFF854040078002807D0A888DFF838135B
:10AE00000988884201D1FFF748FF1FE0DFF84415A9
:10AE10000878002819D000200870142100226C4600
:10AE20002000FCF703FF0D208DF800004FF6FF70A7
:10AE3000ADF80400ADF80200A868029000242800D4
:10AE4000FFF71AFF6846FFF717FFFFE7E4B2002C91
:10AE500002D02800FFF710FF0BB0F0BD80B500282E
:10AE600001D0FFF709FF01BD80B5FFF705FF01BD68
:10AE700080B5FFF701FF01BD80B5FFF7FDFE01BD05
:10AE800010B50400DFF8D0040078002808D02000B6
:10AE900002F063FD200003F04FFD200004F07BF979
:10AEA00010BD4FF6FF70DFF8901208800020DFF829
:10AEB000AC140860704710B503F016F9002813D0E1
:10AEC00004F09AFA0300DFF89824DFF89814DFF80A
:10AED0009804DFF89844001BC008000450F00100FB
:10AEE000FDF7B5F8032082E004F08CFC002813D0B5
:10AEF00004F082FA0300DFF86824DFF87414DFF846
:10AF00006804DFF86844001BC008000450F001002A
:10AF1000FDF79DF803206AE003F0E8FC002813D059
:10AF200004F06AFA0300DFF83824DFF84814DFF889
:10AF30003804DFF83844001BC008000450F001005A
:10AF4000FDF785F8032052E005F0ECF8002813D057
:10AF500004F052FA0300DFF80824DFF81C14DFF8CD
:10AF60000804DFF80844001BC008000450F001008A
:10AF7000FDF76DF803203AE004F080F8002813D0C4
:10AF800004F03AFA0300DFF8D823DFF8F013DFF813
:10AF9000D803DFF8D843001BC008000450F00100BC
:10AFA000FDF755F8032022E005F0A5FA002813D09C
:10AFB00004F022FA0300DFF8A823DFF8C413DFF857
:10AFC000A803DFF8A843001BC008000450F00100EC
:10AFD000FDF73DF803200AE0FFF763FF0020DFF8EC
:10AFE000681208700120DFF870130870002010BD8F
:10AFF000DFF864130978002901D108200FE0DFF899
:10B0000044120A78032A01DB042008E0DFF8242137
:10B010000B7842F823000878401C08700020704725
:10B0200080B5DFF834130978002901D1082001E048
:10B0300003F001FD02BD80B5DFF81C231278002A61
:10B0400001D1082006E0C9B280B203F047FD08280C
:10B0500000D1112002BD80B5002902D080B203F0DA
:10B060000AFD01BD80B5DFF8F0221278002A01D177
:10B07000082002E080B203F031FB02BD80B5B64982
:10B080000978002901D1082002E080B202F014FE04
:10B0900002BD78B585B0B0480078002801D10820FD
:10B0A00044E0AC4E012030704FF6FF74200003F0F6
:10B0B0007BF905002800210080B2884219D10020C8
:10B0C0003070142100226E463000FCF7AFFD0C20DA
:10B0D0008DF800002000ADF804002000ADF802005B
:10B0E0006846FFF7C9FD04E0280080B203F05CF970
:10B0F0000500280080B2A04217D0280080B2FFF7D8
:10B10000BDFF0028F0D004F077F90300ADB2009540
:10B110009C4A9D499448954C001BC008000450F07F
:10B120000100FCF79CFF032000E0002006B070BD8A
:10B13000000000009CED0020EEEE002078EE0020E4
:10B140002DE9F34F85B014001D00834800780028D6
:10B1500001D1082072E04FF6FF76300003F024F9A9
:10B1600007000020009004200190884AD2E90001E5
:10B17000CDE902016846039001AB02AA062138001E
:10B1800080B202F0E2FF5FF000085FF0FF39B246E4
:10B19000B34607281BD1052050E000280BD10098AA
:10B1A000404502D3DDF80080BA460098484502D2F7
:10B1B000DDF80090BB46380080B203F0F5F80700D8
:10B1C00001AB02AA0621380080B202F0BEFF0028BF
:10B1D000E3D00528E1D03900320089B291421DD177
:10B1E000504680B2B04203D0584680B2B04201D13E
:10B1F000052000E000200599002901D0A1F800A059
:10B200000699002901D0C1F80080002C01D0A4F8D3
:10B2100000B0002D12D0C5F800900FE004F0ECF85B
:10B22000BFB23B0002005A494F48504C001BC008B7
:10B23000000450F00100FCF70AFF032007B0BDE84E
:10B24000F08F000008EF002006EF002074EE0020D1
:10B2500080B5FFF722FD01BDF0B587B005003E487F
:10B260000078002801D1082071E04A48D0E9002385
:10B27000CDE90523484C2078002801D1FFF7E8FFED
:10B280002078002803D0354E3068002801D01124E2
:10B290005CE028004149098880B2884227D14048B3
:10B2A0000068002823D00024142100226E463000BC
:10B2B000FCF7BCFC08208DF80000280080B202F0EA
:10B2C000B5FCADF80200ADF8045006208DF808007A
:10B2D00000208DF80900002003909DF8100010F068
:10B2E000FE008DF810006846FFF7C6FC2EE02C4FDC
:10B2F000386810F1010F01D1132427E03868401C91
:10B300003860320005A9280080B202F0B6FF0400C0
:10B31000002C1BD0002030603868401E3860112C93
:10B3200014D0862C12D0072C10D0200004F064F822
:10B33000ADB22B0002001B490B480C4C001BC0088F
:10B34000000450F00100FCF782FE0324200007B047
:10B35000F0BD000007EF002005EF002074EE002094
:10B36000006E0300205C0300C0450300304503006D
:10B370004C5C0300785C0300A45C0300D05C030019
:10B38000FC5C0300706A030070540300086E030045
:10B39000B8540300106E030006EF0020EEEE00200C
:10B3A00078EE0020C8560300010049B2002909D4F4
:10B3B000012210F01F018A40DFF8101340B240094B
:10B3C00041F820207047010049B200290DD4012224
:10B3D00010F01F018A40DFF8F81240B2400941F82E
:10B3E0002020BFF34F8FBFF36F8F7047010049B22A
:10B3F000002905D4DFF8DC1240B2085C400908E0FF
:10B40000DFF8D41240B210F00F00084410F8040C1A
:10B4100040097047806870470100080040B220284A
:10B4200005DADFF8B802C84010F001000EE00800AD
:10B4300040B2402809DA012020398840002801D094
:10B44000012000E00020C0B200E001207047082881
:10B4500003D2EC210141C80701D4002000E0012003
:10B46000704710B50400200040B2FFF7D5FF002858
:10B4700002D142F2010022E0200040B2FFF7B6FF05
:10B48000FFF7E5FF002802D142F2020017E09449DD
:10B49000886800280ED0200040B2400951F82020D2
:10B4A000012314F01F0083401A4364B2640941F879
:10B4B000242003E0200040B2FFF776FF002010BDFB
:10B4C00010B50400200040B2FFF7A6FF002802D10B
:10B4D00042F2010017E08249886800280ED020005F
:10B4E00040B2400951F82020012314F01F0083408E
:10B4F0009A4364B2640941F8242003E0200040B27A
:10B50000FFF761FF002010BD1FB5040075496846B4
:10B5100005F026F902E0684605F029F96846FFF7CC
:10B5200079FF00280BD06846FFF774FF0268416876
:10B530002000C0B290470028EDD1112000E000208B
:10B5400004B010BD1FB504006749684605F008F94E
:10B550000AE06846FFF75EFF026841682000C0B25B
:10B560009047684605F003F96846FFF753FF002847
:10B57000EFD11FBD80B51620FFF773FF002803D061
:10B580005A4AA12100F07AFB01BD80B51620FFF7D1
:10B5900097FF002803D0554AAD2100F06FFB01BD95
:10B5A0007CB5534D2878002801D0082033E0514E57
:10B5B000012030700020FFF7A7FF112801D10020E3
:10B5C00029E00020FFF7BEFF4B48006801900020F3
:10B5D0008DF800006846FDF771F8484901A810DFB2
:10B5E0000400002C02D10120287001E00020287006
:10B5F0009DF80000FDF766F8002C01D020000AE05D
:10B600000020307000203E490870FFF7B3FF012092
:10B61000FFF798FF002076BD7CB5354D28780028CF
:10B6200001D1082026E0334E012030700120FFF7C1
:10B630006BFF112801D100201CE00220FFF782FFE0
:10B6400000208DF800006846FDF738F811DF04008F
:10B65000002028709DF80000FDF734F8002C01D080
:10B66000200007E000203070FFF78FFF0320FFF776
:10B6700069FF002076BD80B51E480078002801D102
:10B68000082008E01A480078002802D0FFF7C4FF1D
:10B6900001E0FFF785FF02BD154800787047E0B56F
:10B6A0001849684605F05CF808E06846FFF7B2FE06
:10B6B000016840688847684605F059F86846FFF712
:10B6C000A9FE0028F1D107BD0000000000E100E064
:10B6D00080E100E000E400E018ED00E0FC06FFBDC2
:10B6E00078ED00201C6C0300286C03002854030034
:10B6F000FBEE0020FDEE0020CC6E030045080300A9
:10B70000FCEE0020346C030080687047002801D1F3
:10B710000E2003E0504909680160002070477FB5A2
:10B7200005000C002000FFF7F1FF002854D10C2188
:10B7300000226E463000FCF779FA8DF800500120A7
:10B740008DF802000620ADF804002268694620202A
:10B7500069DF00280C2100226D462800FCF766FAFC
:10B7600001208DF8010000208DF8020000208DF8E6
:10B77000030022686946402069DF00280C2100226E
:10B780006D462800FCF752FA01208DF8000022686F
:10B790006946012069DF00280C2100226D4628003F
:10B7A000FCF744FA4FF4B060009022686946A1208B
:10B7B00069DF00280C2100226D462800FCF736FACC
:10B7C0009DF8000050F001008DF8000022686946E5
:10B7D000A02069DF0028002004B070BD01000A68C5
:10B7E000080060DF0B689A4201D309689142002883
:10B7F00003D10121194A1170FFE7704718B591B0C4
:10B8000016480078002818D106E0052804D0144A0C
:10B8100040F23B1100F032FA12B010BD01A8FFF760
:10B8200073FF026841682000904701A804F09FFF61
:10B8300001A8FFF769FF0028F0D13420ADF800001F
:10B84000694604A861DF0028DFD104AC054901A8DE
:10B8500004F086FFECE70000D06E0300FEEE00204F
:10B86000645203004C6C03001721018017214180B2
:10B8700000210171002141711B2181711B21C171C6
:10B880007047F8B584B00500DFF89803D0E90023CD
:10B89000CDE90223ADF80810ADF80A10DFF88803EF
:10B8A000D0E90023CDE900236A4602A9280080B22E
:10B8B00090DF0400002C37D0200003F09DFD030032
:10B8C000DFF86863DFF86873ADB22A00DFF864134D
:10B8D000B81BC008000450F00100FCF7B8FBBDF82D
:10B8E0000000002803D1BDF8020000280CD0BDF8EC
:10B8F0000230BDF80020DFF84013B81BC008000478
:10B9000050F00100FCF7A3FBBDF8040000280BD0A9
:10B91000BDF80420DFF82413BE1BF608360456F0E9
:10B9200001063000FCF78CFB200005B0F0BD38B5F7
:10B930008C88220092B200EBC202951D0279AA7196
:10B94000C97B012902D0022903D005E000882880A4
:10B9500002E040882880FFE76888298888421DD255
:10B960002988200080B2A5DF002802D1012068715B
:10B9700014E0112802D1012028710FE003F03CFDF2
:10B980000200DFF8BC12DFF8A802DFF8A032C01A0C
:10B99000C008000450F00100FCF752FBE879A979D7
:10B9A000884205D2A97989B2200080B2FFF769FFE9
:10B9B00031BD80B5898800EBC100801DFFF754FFC1
:10B9C00001BDFEB58A88498913009BB200EBC30311
:10B9D0009C1D0B0025889BB2AB4200D3218861805F
:10B9E0006188172901DA172100E061886180016907
:10B9F00000290FD0617900290CD09249D1E9006764
:10BA0000CDE90067ADF802206188ADF80410694601
:10BA1000026990470020607100202071F7BD7CB55D
:10BA200004008D88C888290089B204EBC1018E1DED
:10BA3000010089B2172901DA1720FFE701003288D7
:10BA400089B2914200D330887080002030713188F3
:10BA5000280080B2B5DF00280CD003F0CDFC020036
:10BA600079497348714BC01AC008000450F00100B6
:10BA7000FCF7E6FA7079002810D1206900280DD073
:10BA80007248D0E90023CDE90023ADF80250708858
:10BA9000ADF80400694620002269904773BD18B5CF
:10BAA0008BB004006846091D2C22FCF78FFEBDF800
:10BAB0000010BDF804000A0092B204EBC2025073F9
:10BAC0002069002810D06248D0E90023CDE9002386
:10BAD000ADF8021089B204EBC100407B8DF8040080
