:020000040002F8
:1060000098F80020718F0500AF5E0400FD9E04002B
:10601000C37704007F790400DB93040000000000D4
:10602000000000000000000000000000D5A30400F4
:1060300057A4040000000000F9A304001BAA0400F8
:10604000EF17050097AB0400754B0500A729050065
:10605000B3290500A7AF0400C932050079CF0400B9
:10606000F3CD0400771005004F140500CB1B05008D
:1060700093330500AB3305004F3505007F35050030
:10608000BF780500ADA10400AF350500FF41050054
:10609000FF440500E34B050059CC0400DB5105002B
:1060A0001F590500858505008F8705009B87050022
:1060B000CB930500CD930500000000000000000018
:1060C000CF930500D1930500D3930500894A0500BD
:1060D000731E0500D5930500D7930500000000004E
:1060E00000000000000000000000000000000000B0
:1060F00000000000000000000000000000000000A0
:10610000000000000000000000000000000000008F
:10611000000000000000000000000000000000007F
:10612000000000000000000000000000000000006F
:10613000000000000000000000000000000000005F
:10614000000000000000000000000000000000004F
:10615000000000000000000000000000000000003F
:10616000000000000000000000000000000000002F
:10617000000000000000000000000000000000001F
:10618000000000000000000000000000000000000F
:1061900000000000000000000000000000000000FF
:1061A00000000000000000000000000000000000EF
:1061B00000000000000000000000000000000000DF
:1061C00000000000000000000000000000000000CF
:1061D00000000000000000000000000000000000BF
:1061E00000000000000000000000000000000000AF
:1061F000000000000000000000000000000000009F
:10620000101000F000F0011B000000000000000072
:10621000000000000000000000000000000000007E
:10622000000000000000000000000000000000006E
:10623000000000000000000000000000000000005E
:10624000000000000000000000000000000000004E
:10625000000000000000000000000000000000003E
:10626000000000000000000000000000000000002E
:10627000000000000000000000000000000000001E
:10628000000000000000000000000000000000000E
:1062900000000000000000000000000000000000FE
:1062A00000000000000000000000000000000000EE
:1062B00000000000000000000000000000000000DE
:1062C00000000000000000000000000000000000CE
:1062D00000000000000000000000000000000000BE
:1062E00000000000000000000001000100010001AA
:1062F0000001000100010001000100010001000097
:106300000842A534318700000000000000000000B2
:10631000000000000000000000000000000000007D
:10632000000000000000000000000000000000006D
:10633000000000000000000000000000000000005D
:10634000000000000000000000000000000000004D
:10635000000000000000000000000000000000003D
:10636000000000000000000000000000000000002D
:10637000000000000000000000000000000000001D
:10638000000000000000000000000000000000000D
:1063900000000000000000000000000000000000FD
:1063A00000000000000000000000000000000000ED
:1063B00000000000000000000000000000000000DD
:1063C00000000000000000000000000000000000CD
:1063D00000000000000000000000000000000000BD
:1063E00000000000000000000000000000000000AD
:1063F000000000000000000000000000000000009D
:10640000000000000000000000000000000000008C
:10641000000000000000000000000000000000007C
:10642000000000000000000000000000000000006C
:10643000000000000000000000000000000000005C
:10644000000000000000000000000000000000004C
:10645000000000000000000000000000000000003C
:10646000000000000000000000000000000000002C
:10647000000000000000000000000000000000001C
:10648000000000000000000000000000000000000C
:1064900000000000000000000000000000000000FC
:1064A00000000000000000000000000000000000EC
:1064B00000000000000000000001000100010001D8
:1064C00000010001000100010001000100010001C4
:1064D00000010001000100010001000100000000B6
:1064E0000842D69A420900000001000100010001A3
:1064F0000001000100010001000000000000000098
:10650000000000000000000000000000000000008B
:10651000000000000000000000000000000000007B
:10652000000000000000000000000000000000006B
:10653000000000000000000000000000000000005B
:10654000000000000000000000000000000000004B
:10655000000000000000000000000000000000003B
:10656000000000000000000000000000000000002B
:10657000000000000000000000000000000000001B
:10658000000000000000000000000000000000000B
:1065900000000000000000000000000000000000FB
:1065A00000000000000000000000000000000000EB
:1065B00000000000000000000000000000000000DB
:1065C00000000000000000000000000000000000CB
:1065D00000000000000000000000000000000000BB
:1065E00000000000000000000000000000000000AB
:1065F000000000000000000000000000000000009B
:10660000000000000000000000000000000000008A
:10661000000000000000000000000000000000007A
:10662000000000000000000000000000000000006A
:10663000000000000000000000000000000000005A
:10664000000000000000000000000000000000004A
:10665000000000000000000000000000000000003A
:10666000000000000000000000000000000000002A
:10667000000000000000000000000000000000001A
:106680000000000000000000000000000000000109
:1066900000010001000100010000000000010001F4
:1066A00000010001000100010001000100010001E2
:1066B00000010001000100010000000100010000D4
:1066C0000842D6BA420800000001000100010001A2
:1066D00000010001000000000001000100010001B4
:1066E00000010000000000000000000000000000A9
:1066F000000000000000000000000000000000009A
:106700000000000000000000000000000000000089
:106710000000000000000000000000000000000079
:106720000000000000000000000000000000000069
:106730000000000000000000000000000000000059
:106740000000000000000000000000000000000049
:106750000000000000000000000000000000000039
:106760000000000000000000000000000000000029
:106770000000000000000000000000000000000019
:106780000000000000000000000000000000000009
:1067900000000000000000000000000000000000F9
:1067A00000000000000000000000000000000000E9
:1067B00000000000000000000000000000000000D9
:1067C00000000000000000000000000000000000C9
:1067D00000000000000000000000000000000000B9
:1067E00000000000000000000000000000000000A9
:1067F0000000000000000000000000000000000099
:106800000000000000000000000000000000000088
:106810000000000000000000000000000000000078
:106820000000000000000000000000000000000068
:106830000000000000000000000000000000000058
:106840000000000000000000000000000000000048
:106850000000000000000000000000000000000038
:106860000000000100010001000100010001000121
:106870000001000100000000000100010001000112
:106880000001000100010001000100010001000100
:1068900000010001000100010001000100010000F1
:1068A0000862D6BA39E800000001000100010001C9
:1068B00000010001000100010000000000010001D2
:1068C00000010001000100010001000100010000C1
:1068D00000000000000000000000000000000000B8
:1068E00000000000000000000000000000000000A8
:1068F0000000000000000000000000000000000098
:106900000000000000000000000000000000000087
:106910000000000000000000000000000000000077
:106920000000000000000000000000000000000067
:106930000000000000000000000000000000000057
:106940000000000000000000000000000000000047
:106950000000000000000000000000000000000037
:106960000000000000000000000000000000000027
:106970000000000000000000000000000000000017
:106980000000000000000000000000000000000007
:1069900000000000000000000000000000000000F7
:1069A00000000000000000000000000000000000E7
:1069B00000000000000000000000000000000000D7
:1069C00000000000000000000000000000000000C7
:1069D00000000000000000000000000000000000B7
:1069E00000000000000000000000000000000000A7
:1069F0000000000000000000000000000000000097
:106A00000000000000000000000000000000000086
:106A10000000000000000000000000000000000076
:106A20000000000000000000000000000000000066
:106A30000000000000000000000000010001000153
:106A4000000100010001000100010001000100013E
:106A5000000100010001000100010001000100012E
:106A6000000100010001000100010001000100011E
:106A7000000100010001000100010001000100000F
:106A80001062DEFC4208000000010001000100016C
:106A900000010001000100010001000100010001EE
:106AA00000010001000100010001000100010001DE
:106AB00000010001000100000000000000000000D3
:106AC00000000000000000000000000000000000C6
:106AD00000000000000000000000000000000000B6
:106AE00000000000000000000000000000000000A6
:106AF0000000000000000000000000000000000096
:106B00000000000000000000000000000000000085
:106B10000000000000000000000000000000000075
:106B20000000000000000000000000000000000065
:106B30000000000000000000000000000000000055
:106B40000000000000000000000000000000000045
:106B50000000000000000000000000000000000035
:106B60000000000000000000000000000000000025
:106B70000000000000000000000000000000000015
:106B80000000000000000000000000000000000005
:106B900000000000000000000000000000000000F5
:106BA00000000000000000000000000000000000E5
:106BB00000000000000000000000000000000000D5
:106BC00000000000000000000000000000000000C5
:106BD00000000000000000000000000000000000B5
:106BE00000000000000000000000000000000000A5
:106BF0000000000000000000000000000000000095
:106C00000000000000000000000000000000000084
:106C1000000000010001000100010001000100016D
:106C2000000100010001000100000001000100015D
:106C3000000100010001000100010001000100014C
:106C4000000100010001000100010001000100013C
:106C5000000100010001000100010000000100002E
:106C60001083E73C4209000000010001000100011F
:106C7000000100010001000100010001000100010C
:106C800000010001000100000001000100010001FD
:106C900000010001000100010001000100010000ED
:106CA00000000000000000000000000000000000E4
:106CB00000000000000000000000000000000000D4
:106CC00000000000000000000000000000000000C4
:106CD00000000000000000000000000000000000B4
:106CE00000000000000000000000000000000000A4
:106CF0000000000000000000000000000000000094
:106D00000000000000000000000000000000000083
:106D10000000000000000000000000000000000073
:106D20000000000000000000000000000000000063
:106D30000000000000000000000000000000000053
:106D40000000000000000000000000000000000043
:106D50000000000000000000000000000000000033
:106D60000000000000000000000000000000000023
:106D70000000000000000000000000000000000013
:106D80000000000000000000000000000000000003
:106D900000000000000000000000000000000000F3
:106DA00000000000000000000000000000000000E3
:106DB00000000000000000000000000000000000D3
:106DC00000000000000000000000000000000000C3
:106DD00000000000000000000000000000000000B3
:106DE00000000000000000000000000000000001A2
:106DF000000100010001000100010001000100018B
:106E0000000100010001000100010001000100017A
:106E1000000100010001000100010001000100016A
:106E2000000100010001000100010001000100015A
:106E3000000100010001000100000001000100004C
:106E40001062EF5D42090000000100010001000135
:106E5000000100010001000100010001000100012A
:106E6000000100010001000100010001000100011A
:106E7000000100010001000100010001000100010A
:106E80000001000000000000000000000000000001
:106E900000000000000000000000000000000000F2
:106EA00000000000000000000000000000000000E2
:106EB00000000000000000000000000000000000D2
:106EC00000000000000000000000000000000000C2
:106ED00000000000000000000000000000000000B2
:106EE00000000000000000000000000000000000A2
:106EF0000000000000000000000000000000000092
:106F00000000000000000000000000000000000081
:106F10000000000000000000000000000000000071
:106F20000000000000000000000000000000000061
:106F30000000000000000000000000000000000051
:106F40000000000000000000000000000000000041
:106F50000000000000000000000000000000000031
:106F60000000000000000000000000000000000021
:106F70000000000000000000000000000000000011
:106F80000000000000000000000000000000000001
:106F900000000000000000000000000000000000F1
:106FA00000000000000000000000000000000000E1
:106FB00000000000000000000000000000000000D1
:106FC00000000000000000000001000100010001BD
:106FD00000010001000000000001000100010001AB
:106FE0000001000100010001000100010001000199
:106FF0000001000100010001000100010001000189
:107000000001000100010001000100010001000178
:10701000000100010001000100000001000100006A
:107020001083EF7D422900000001000100010001F2
:107030000001000100010001000100010001000148
:107040000001000100010001000100010001000138
:10705000000100010001000100000000000100012A
:10706000000100010001000100000000000000001C
:107070000000000000000000000000000000000010
:107080000000000000000000000000000000000000
:1070900000000000000000000000000000000000F0
:1070A00000000000000000000000000000000000E0
:1070B00000000000000000000000000000000000D0
:1070C00000000000000000000000000000000000C0
:1070D00000000000000000000000000000000000B0
:1070E00000000000000000000000000000000000A0
:1070F0000000000000000000000000000000000090
:10710000000000000000000000000000000000007F
:10711000000000000000000000000000000000006F
:10712000000000000000000000000000000000005F
:10713000000000000000000000000000000000004F
:10714000000000000000000000000000000000003F
:10715000000000000000000000000000000000002F
:10716000000000000000000000000000000000001F
:10717000000000000000000000000000000000000F
:1071800000000000000000000000000000000000FF
:1071900000000000000000000000000000000000EF
:1071A00000000001000100010001000100010001D8
:1071B00000010001000100010001000100010001C7
:1071C00000010001000100010001000100010001B7
:1071D00000010001000100010001000100010001A7
:1071E0000001000100010001000100010001000197
:1071F0000001000100010001000000010001000089
:107200001083F79E422900000001000100010001E7
:107210000001000100010001000100010001000166
:107220000001000100010001000100010001000156
:107230000001000100010001000100010001000146
:107240000001000100010001000100010001000037
:10725000000000000000000000000000000000002E
:10726000000000000000000000000000000000001E
:10727000000000000000000000000000000000000E
:1072800000000000000000000000000000000000FE
:1072900000000000000000000000000000000000EE
:1072A00000000000000000000000000000000000DE
:1072B00000000000000000000000000000000000CE
:1072C00000000000000000000000000000000000BE
:1072D00000000000000000000000000000000000AE
:1072E000000000000000000000000000000000009E
:1072F000000000000000000000000000000000008E
:10730000000000000000000000000000000000007D
:10731000000000000000000000000000000000006D
:10732000000000000000000000000000000000005D
:10733000000000000000000000000000000000004D
:10734000000000000000000000000000000000003D
:10735000000000000000000000000000000000002D
:10736000000000000000000000000000000000001D
:10737000000000000000000000000000000000010C
:1073800000010001000100010001000100010001F5
:1073900000010001000100010001000100010001E5
:1073A00000010001000100010001000100010001D5
:1073B00000010001000100010001000100010001C5
:1073C00000010001000100010001000100010001B5
:1073D00000010001000100010001000100010000A6
:1073E0001083F79E42290000000100010001000106
:1073F0000001000100010001000100010001000185
:107400000001000100010001000100010001000174
:107410000001000100010001000100010001000164
:107420000001000100010001000100010001000154
:10743000000100000000000000000000000000004B
:10744000000000000000000000000000000000003C
:10745000000000000000000000000000000000002C
:10746000000000000000000000000000000000001C
:10747000000000000000000000000000000000000C
:1074800000000000000000000000000000000000FC
:1074900000000000000000000000000000000000EC
:1074A00000000000000000000000000000000000DC
:1074B00000000000000000000000000000000000CC
:1074C00000000000000000000000000000000000BC
:1074D00000000000000000000000000000000000AC
:1074E000000000000000000000000000000000009C
:1074F000000000000000000000000000000000008C
:10750000000000000000000000000000000000007B
:10751000000000000000000000000000000000006B
:10752000000000000000000000000000000000005B
:10753000000000000000000000000000000000004B
:10754000000000000000000000000000000000003B
:107550000000000000000000000100010001000127
:107560000001000100010001000100010001000113
:107570000001000100010001000100010001000103
:1075800000010001000100010001000100010001F3
:1075900000010001000100010001000100010001E3
:1075A00000010001000100010001000100010001D3
:1075B00000010001000100010001000100010000C4
:1075C0001083F7BE424900000001000100010001E4
:1075D00000010001000100010001000100010001A3
:1075E0000001000100010001000100010001000193
:1075F0000001000100010001000100010001000183
:107600000001000100010001000100010001000172
:107610000001000100010001000000000000000066
:10762000000000000000000000000000000000005A
:10763000000000000000000000000000000000004A
:10764000000000000000000000000000000000003A
:10765000000000000000000000000000000000002A
:10766000000000000000000000000000000000001A
:10767000000000000000000000000000000000000A
:1076800000000000000000000000000000000000FA
:1076900000000000000000000000000000000000EA
:1076A00000000000000000000000000000000000DA
:1076B00000000000000000000000000000000000CA
:1076C00000000000000000000000000000000000BA
:1076D00000000000000000000000000000000000AA
:1076E000000000000000000000000000000000009A
:1076F000000000000000000000000000000000008A
:107700000000000000000000000000000000000079
:107710000000000000000000000000000000000069
:107720000000000000000000000000000000000059
:107730000000000000010001000100010001000143
:107740000001000100010000000100010001000132
:107750000001000100010001000100010001000121
:107760000001000100010001000100010001000111
:107770000001000100010001000100010001000101
:1077800000010001000100010001000100010001F1
:1077900000010001000100010001000100010000E2
:1077A0001083FFDF424900000001000100010001D9
:1077B00000010001000100010001000100010001C1
:1077C00000010001000100010001000100010001B1
:1077D00000010001000100010001000100010001A1
:1077E0000001000100010001000000010001000192
:1077F0000001000100010001000100010000000083
:107800000000000000000000000000000000000078
:107810000000000000000000000000000000000068
:107820000000000000000000000000000000000058
:107830000000000000000000000000000000000048
:107840000000000000000000000000000000000038
:107850000000000000000000000000000000000028
:107860000000000000000000000000000000000018
:107870000000000000000000000000000000000008
:1078800000000000000000000000000000000000F8
:1078900000000000000000000000000000000000E8
:1078A00000000000000000000000000000000000D8
:1078B00000000000000000000000000000000000C8
:1078C00000000000000000000000000000000000B8
:1078D00000000000000000000000000000000000A8
:1078E0000000000000000000000000000000000098
:1078F0000000000000000000000000000000000088
:107900000000000000000000000000000000000176
:10791000000100010001000100010001000100015F
:10792000000100010001000100010001000100014F
:10793000000100010001000100010001000100013F
:10794000000100010001000100010001000100012F
:10795000000100010001000100010001000100011F
:10796000000100010001000100010001000100010F
:107970000001000100010001000100010001000000
:107980001083FFFF4A4900000001000100010001CF
:1079900000010001000100010001000100010001DF
:1079A00000010001000100010001000100010001CF
:1079B00000010001000100010001000100010001BF
:1079C00000010001000100010001000100010001AF
:1079D000000100010001000100010001000100019F
:1079E0000001000000000000000000000000000096
:1079F0000000000000000000000000000000000087
:107A00000000000000000000000000000000000076
:107A10000000000000000000000000000000000066
:107A20000000000000000000000000000000000056
:107A30000000000000000000000000000000000046
:107A40000000000000000000000000000000000036
:107A50000000000000000000000000000000000026
:107A60000000000000000000000000000000000016
:107A70000000000000000000000000000000000006
:107A800000000000000000000000000000000000F6
:107A900000000000000000000000000000000000E6
:107AA00000000000000000000000000000000000D6
:107AB00000000000000000000000000000000000C6
:107AC00000000000000000000000000000000000B6
:107AD00000000000000000000000000000000000A6
:107AE0000000000000000000000000000001000194
:107AF000000100010001000000010001000100017F
:107B0000000100010001000100010001000100016D
:107B1000000100010001000100010001000100015D
:107B2000000100010001000100010001000100014D
:107B3000000100010001000100010001000100013D
:107B4000000100010001000100010001000100012D
:107B5000000100010001000100010001000100001E
:107B60001083FFFF4A4A00000001000100010001EC
:107B700000010001000100010001000100010001FD
:107B800000010001000100010001000100010001ED
:107B900000010001000100010001000100010001DD
:107BA00000010001000100010001000100010001CD
:107BB00000010001000100010000000100010001BE
:107BC00000010001000000000000000000000000B3
:107BD00000000000000000000000000000000000A5
:107BE0000000000000000000000000000000000095
:107BF0000000000000000000000000000000000085
:107C00000000000000000000000000000000000074
:107C10000000000000000000000000000000000064
:107C20000000000000000000000000000000000054
:107C30000000000000000000000000000000000044
:107C40000000000000000000000000000000000034
:107C50000000000000000000000000000000000024
:107C60000000000000000000000000000000000014
:107C70000000000000000000000000000000000004
:107C800000000000000000000000000000000000F4
:107C900000000000000000000000000000000000E4
:107CA00000000000000000000000000000000000D4
:107CB00000000000000000000000000000000000C4
:107CC00000000000000000000001000100010001B0
:107CD000000100010001000100010001000100019C
:107CE000000100010001000100010001000100018C
:107CF000000100010001000100010001000100017C
:107D0000000100010001000100010001000100016B
:107D1000000100010001000100010001000100015B
:107D2000000100010001000100010001000100014B
:107D3000000100010001000100010001000100003C
:107D40001083FFFF4A4A000000010001000100010A
:107D5000000100010001000100010001000100011B
:107D6000000100010001000100010001000100010B
:107D700000010001000100010001000100010001FB
:107D800000010001000100010001000100010001EB
:107D900000010001000100010001000100010001DB
:107DA00000010001000100010000000000000000CF
:107DB00000000000000000000000000000000000C3
:107DC00000000000000000000000000000000000B3
:107DD00000000000000000000000000000000000A3
:107DE0000000000000000000000000000000000093
:107DF0000000000000000000000000000000000083
:107E00000000000000000000000000000000000072
:107E10000000000000000000000000000000000062
:107E20000000000000000000000000000000000052
:107E30000000000000000000000000000000000042
:107E40000000000000000000000000000000000032
:107E50000000000000000000000000000000000022
:107E60000000000000000000000000000000000012
:107E70000000000000000000000000000000000002
:107E800000000000000000000000000000000000F2
:107E900000000000000000000000000000000000E2
:107EA00000000000000100010001000100010001CC
:107EB00000010001000100010001000100010001BA
:107EC00000010001000100010001000100010001AA
:107ED000000100010001000100010001000100019A
:107EE000000100010001000100010001000100018A
:107EF000000100010001000100010001000100017A
:107F00000001000100010001000100010001000169
:107F1000000100010001000100010001000100005A
:107F20001083FFFF4A4A0000000100010000000129
:107F30000001000100010001000100010001000139
:107F40000001000100010001000100010001000129
:107F50000001000100010001000100010001000119
:107F60000001000100010001000100010001000109
:107F700000010001000100010001000100010001F9
:107F800000010001000100010001000100000000EB
:107F900000000000000000000000000000000000E1
:107FA00000000000000000000000000000000000D1
:107FB00000000000000000000000000000000000C1
:107FC00000000000000000000000000000000000B1
:107FD00000000000000000000000000000000000A1
:107FE0000000000000000000000000000000000091
:107FF0000000000000000000000000000000000081
:108000000000000000000000000000000000000070
:108010000000000000000000000000000000000060
:108020000000000000000000000000000000000050
:108030000000000000000000000000000000000040
:108040000000000000000000000000000000000030
:108050000000000000000000000000000000000020
:108060000000000000000000000000000000000010
:108070000000000000000000000000000000000000
:1080800000010001000100010001000100010001E8
:1080900000010001000100010001000100010001D8
:1080A00000010001000100010001000100010001C8
:1080B00000010001000100010001000100010001B8
:1080C00000010001000100010001000100010001A8
:1080D0000001000100010001000100010001000198
:1080E0000001000100010001000100010001000188
:1080F0000001000100010001000100010001000079
:108100001083FFFF4A6A0000000100010001000126
:108110000001000100010001000100010001000157
:108120000001000100010001000100010001000147
:108130000001000100010001000100010001000137
:108140000001000100010001000100010001000127
:108150000001000100010001000100010001000117
:108160000001000100010001000100010001000107
:1081700000000000000000000000000000000000FF
:1081800000000000000000000000000000000000EF
:1081900000000000000000000000000000000000DF
:1081A00000000000000000000000000000000000CF
:1081B00000000000000000000000000000000000BF
:1081C00000000000000000000000000000000000AF
:1081D000000000000000000000000000000000009F
:1081E000000000000000000000000000000000008F
:1081F000000000000000000000000000000000007F
:10820000000000000000000000000000000000006E
:10821000000000000000000000000000000000005E
:10822000000000000000000000000000000000004E
:10823000000000000000000000000000000000003E
:10824000000000000000000000000000000000002E
:10825000000000000000000000000000000000011D
:108260000001000100010001000100010001000106
:1082700000010001000100010001000100010001F6
:1082800000010001000100010001000100010001E6
:1082900000010001000100010001000100010001D6
:1082A00000010001000100010001000100010001C6
:1082B00000010001000100010001000100010001B6
:1082C00000010001000100010001000100010001A6
:1082D0000001000100010001000100010001000097
:1082E0001083FFFF4A6A0000000100010001000145
:1082F0000001000100010001000100010001000176
:108300000001000100010001000100010001000165
:108310000001000100010001000100010001000155
:108320000001000100010001000100010001000145
:108330000001000100010001000100010001000135
:108340000001000100010001000100010001000125
:10835000000100000000000000000000000000001C
:10836000000000000000000000000000000000000D
:1083700000000000000000000000000000000000FD
:1083800000000000000000000000000000000000ED
:1083900000000000000000000000000000000000DD
:1083A00000000000000000000000000000000000CD
:1083B00000000000000000000000000000000000BD
:1083C00000000000000000000000000000000000AD
:1083D000000000000000000000000000000000009D
:1083E000000000000000000000000000000000008D
:1083F000000000000000000000000000000000007D
:10840000000000000000000000000000000000006C
:10841000000000000000000000000000000000005C
:10842000000000000000000000000000000000004C
:10843000000000000000000000000000000100013A
:108440000001000100010001000100010001000124
:108450000001000100010001000100010001000114
:108460000001000100010001000100010001000104
:1084700000010001000100010001000100010001F4
:1084800000010001000100010001000100010001E4
:1084900000010001000100010001000100010001D4
:1084A00000010001000100010001000100010001C4
:1084B00000010001000100010001000100010000B5
:1084C0001083FFFF4A6A0000000100010001000163
:1084D0000001000100010001000100010001000194
:1084E0000001000100010001000100010001000184
:1084F0000001000100010001000100010001000174
:108500000001000100010001000100010001000163
:108510000001000100010001000100010001000153
:108520000001000100010001000100010001000143
:108530000001000100000000000000000000000039
:10854000000000000000000000000000000000002B
:10855000000000000000000000000000000000001B
:10856000000000000000000000000000000000000B
:1085700000000000000000000000000000000000FB
:1085800000000000000000000000000000000000EB
:1085900000000000000000000000000000000000DB
:1085A00000000000000000000000000000000000CB
:1085B00000000000000000000000000000000000BB
:1085C00000000000000000000000000000000000AB
:1085D000000000000000000000000000000000009B
:1085E000000000000000000000000000000000008B
:1085F000000000000000000000000000000000007B
:10860000000000000000000000000000000000006A
:108610000000000000000001000100010001000155
:108620000001000100010001000100010001000142
:108630000001000100010001000100010001000132
:108640000001000100010001000100010001000122
:108650000001000100010001000100010001000112
:108660000001000100010001000100010001000102
:1086700000010001000100010001000100010001F2
:1086800000010001000100010001000100010001E2
:1086900000010001000100010001000100010000D3
:1086A0001083FFFF4A6A0000000100010001000181
:1086B00000010001000100010001000100010001B2
:1086C00000010001000100010001000100010001A2
:1086D0000001000100010001000100010001000192
:1086E0000001000100010001000100010001000182
:1086F0000001000100010001000100010001000172
:108700000001000100010001000100010001000161
:108710000001000100010001000100000000000054
:108720000000000000000000000000000000000049
:108730000000000000000000000000000000000039
:108740000000000000000000000000000000000029
:108750000000000000000000000000000000000019
:108760000000000000000000000000000000000009
:1087700000000000000000000000000000000000F9
:1087800000000000000000000000000000000000E9
:1087900000000000000000000000000000000000D9
:1087A00000000000000000000000000000000000C9
:1087B00000000000000000000000000000000000B9
:1087C00000000000000000000000000000000000A9
:1087D0000000000000000000000000000000000099
:1087E0000000000000000000000000000000000089
:1087F0000000000000010001000100010001000173
:108800000001000100010001000100010001000160
:108810000001000100010001000100010001000150
:108820000001000100010001000100010001000140
:108830000001000100010001000100010001000130
:108840000001000100010001000100010001000120
:108850000001000100010001000100010001000110
:108860000001000100010001000100010001000100
:1088700000010001000100010001000100010000F1
:108880001083FFFF4A6A000000010001000100019F
:1088900000010021000100010001000100010001B0
:1088A00000010001000100010001000100010001C0
:1088B00000010001000100010001000100010001B0
:1088C00000010001000100010001000100010001A0
:1088D0000001000100010001000100010001000190
:1088E0000001000100010001000100010001000180
:1088F0000001000100010001000100010000000072
:108900000000000000000000000000000000000067
:108910000000000000000000000000000000000057
:108920000000000000000000000000000000000047
:108930000000000000000000000000000000000037
:108940000000000000000000000000000000000027
:108950000000000000000000000000000000000017
:108960000000000000000000000000000000000007
:1089700000000000000000000000000000000000F7
:1089800000000000000000000000000000000000E7
:1089900000000000000000000000000000000000D7
:1089A00000000000000000000000000000000000C7
:1089B00000000000000000000000000000000000B7
:1089C00000000000000000000000000000000000A7
:1089D000000100010001000100010001000100018F
:1089E000000100010001000100010001000100017F
:1089F000000100010001000100010001000100016F
:108A0000000100010001000100010001000100015E
:108A1000000100010001000100010001000100014E
:108A2000000100010001000100010001000100013E
:108A3000000100010001000100010001000100012E
:108A4000000100010001000100010001000100011E
:108A5000000100010001000100010001000100000F
:108A60001083FFFF4A6A00000001000100010001BD
:108A700000010021000100010001000100010001CE
:108A800000010001000100010001000100010001DE
:108A900000010001000100010001000100010001CE
:108AA00000010001000100010001000100010001BE
:108AB00000010001000100010001000100010001AE
:108AC000000100010001000100010001000100019E
:108AD000000100010001000100010001000100018E
:108AE0000000000000000000000000000000000086
:108AF0000000000000000000000000000000000076
:108B00000000000000000000000000000000000065
:108B10000000000000000000000000000000000055
:108B20000000000000000000000000000000000045
:108B30000000000000000000000000000000000035
:108B40000000000000000000000000000000000025
:108B50000000000000000000000000000000000015
:108B60000000000000000000000000000000000005
:108B700000000000000000000000000000000000F5
:108B800000000000000000000000000000000000E5
:108B900000000000000000000000000000000000D5
:108BA00000000000000000000000000000000001C4
:108BB00000010001000100000001000100010001AE
:108BC000000100010001000100010001000100019D
:108BD000000100010001000100010001000100018D
:108BE000000100010001000100010001000100017D
:108BF000000100010001000100010001000100016D
:108C0000000100010001000100010001000100015C
:108C1000000100010001000100010001000100014C
:108C2000000100010001000100010001000100013C
:108C3000000100010001000100010001000100002D
:108C40001083FFFF4A6A00000001000100010001DB
:108C500000010842000100010001000100010001C3
:108C600000010001000100010001000100010001FC
:108C700000010001000100010001000100010001EC
:108C800000010001000100010001000100010001DC
:108C900000010001000100010001000100010001CC
:108CA00000010001000100010001000100010001BC
:108CB00000010001000100010000000100010001AD
:108CC00000010000000000000000000000000000A3
:108CD0000000000000000000000000000000000094
:108CE0000000000000000000000000000000000084
:108CF0000000000000000000000000000000000074
:108D00000000000000000000000000000000000063
:108D10000000000000000000000000000000000053
:108D20000000000000000000000000000000000043
:108D30000000000000000000000000000000000033
:108D40000000000000000000000000000000000023
:108D50000000000000000000000000000000000013
:108D60000000000000000000000000000000000003
:108D700000000000000000000000000000000000F3
:108D800000000000000000000000000000010001E1
:108D900000010001000100010001000100010001CB
:108DA00000010001000100010001000100010001BB
:108DB00000010001000100010001000100010001AB
:108DC000000100010001000100010001000100019B
:108DD000000100010001000100010001000100018B
:108DE000000100010001000100010001000100017B
:108DF000000100010001000100010001000100016B
:108E0000000100010001000100010001000100015A
:108E1000000100010001000100010001000100004B
:108E20001083FFFF4A6A00000001000100010001F9
:108E300000210842000100010001000100010001C1
:108E4000000100010001000100010001000100011A
:108E5000000100010001000100010001000100010A
:108E600000010001000100010001000100010001FA
:108E700000010001000100010001000100010001EA
:108E800000010001000100010001000100010001DA
:108E900000010001000100010001000100010001CA
:108EA00000010001000000000000000000000000C0
:108EB00000000000000000000000000000000000B2
:108EC00000000000000000000000000000000000A2
:108ED0000000000000000000000000000000000092
:108EE0000000000000000000000000000000000082
:108EF0000000000000000000000000000000000072
:108F00000000000000000000000000000000000061
:108F10000000000000000000000000000000000051
:108F20000000000000000000000000000000000041
:108F30000000000000000000000000000000000031
:108F40000000000000000000000000000000000021
:108F50000000000000000000000000000000000011
:108F600000000000000000000001000100010001FD
:108F700000010001000100010001000100010001E9
:108F800000010001000100010001000100010001D9
:108F900000010001000100010001000100010001C9
:108FA00000010001000100010001000100010001B9
:108FB00000010001000100010001000100010001A9
:108FC0000001000100010001000100010001000199
:108FD0000001000100010001000100010001000189
:108FE0000001000100010001000100010001000179
:108FF000000100010001000100010001000100006A
:109000001083FFFF4A6A0000000100010001000117
:1090100000210842000100010001000100010001DF
:109020000001000100010001000100010001000138
:109030000001000100010001000100010001000128
:109040000001000100010001000100010001000118
:109050000001000100010001000100010001000108
:1090600000010001000100010001000100010001F8
:1090700000010001000100010001000100010001E8
:1090800000010001000100010000000000000000DC
:1090900000000000000000000000000000000000D0
:1090A00000000000000000000000000000000000C0
:1090B00000000000000000000000000000000000B0
:1090C00000000000000000000000000000000000A0
:1090D0000000000000000000000000000000000090
:1090E0000000000000000000000000000000000080
:1090F0000000000000000000000000000000000070
:10910000000000000000000000000000000000005F
:10911000000000000000000000000000000000004F
:10912000000000000000000000000000000000003F
:10913000000000000000000000000000000000002F
:10914000000000000000000000010001000100011B
:109150000001000100010001000100010001000107
:1091600000010001000100010001000100010001F7
:1091700000010001000100010001000100010001E7
:1091800000010001000100010001000100010001D7
:1091900000010001000100010001000100010001C7
:1091A00000010001000100010001000100010001B7
:1091B00000010001000100010001000100010001A7
:1091C0000001000100010001000100010001000197
:1091D0000001000100010001000100010001000088
:1091E0001083FFFF4A6A0000000100010001000136
:1091F0000001002100010001000100010001000147
:109200000001000100010001000100010001000156
:109210000001000100010001000100010001000146
:109220000001000100010001000100010001000136
:109230000001000100010001000100010001000126
:109240000001000100010001000100010001000116
:109250000001000100010001000100010001000106
:1092600000010001000100010000000000000000FA
:1092700000000000000000000000000000000000EE
:1092800000000000000000000000000000000000DE
:1092900000000000000000000000000000000000CE
:1092A00000000000000000000000000000000000BE
:1092B00000000000000000000000000000000000AE
:1092C000000000000000000000000000000000009E
:1092D000000000000000000000000000000000008E
:1092E000000000000000000000000000000000007E
:1092F000000000000000000000000000000000006E
:10930000000000000000000000000000000000005D
:10931000000000000000000000000000000000004D
:109320000000000100010001000100010001000136
:109330000001000100010001000100010001000125
:109340000001000100010001000100010001000115
:109350000001000100010001000100010001000105
:1093600000010001000100010001000100010001F5
:1093700000010001000100010001000100010001E5
:1093800000010001000100010001000100010001D5
:1093900000010001000100010001000100010001C5
:1093A00000010001000100010001000100010001B5
:1093B00000010001000100010001000100010000A6
:1093C0001083FFFF4A6A0000000100010001000154
:1093D0000001002100010001000100010001000165
:1093E0000001000100010001000100010001000175
:1093F0000001000100010001000100010001000165
:109400000001000100010001000100010001000154
:109410000001000100010001000100010001000144
:109420000001000100010001000100010001000134
:109430000001000100010001000100010001000124
:109440000001000100010001000100010001000015
:10945000000000000000000000000000000000000C
:1094600000000000000000000000000000000000FC
:1094700000000000000000000000000000000000EC
:1094800000000000000000000000000000000000DC
:1094900000000000000000000000000000000000CC
:1094A00000000000000000000000000000000000BC
:1094B00000000000000000000000000000000000AC
:1094C000000000000000000000000000000000009C
:1094D000000000000000000000000000000000008C
:1094E000000000000000000000000000000000007C
:1094F000000000000000000000000000000000006C
:109500000001000100010001000100010001000153
:109510000001000100010001000100010001000143
:109520000001000100010001000100010001000133
:109530000001000100010001000100010001000123
:109540000001000100010001000100010001000113
:109550000001000100010001000100010001000103
:1095600000010001000100010001000100010001F3
:1095700000010001000100010001000100010001E3
:1095800000010001000100010001000100010001D3
:1095900000010001000100010001000100010000C4
:1095A0001083FFFF4A6A0000000100010001000172
:1095B00000010001000100010001000100010001A3
:1095C0000001000100010001000100010001000193
:1095D0000001000100010001000100010001000183
:1095E0000001000100010001000100010001000173
:1095F0000001000100010001000100010001000163
:109600000001000100010001000100010001000152
:109610000001000100010001000100010001000142
:109620000001000100010001000100010001000132
:10963000000000000000000000000000000000002A
:10964000000000000000000000000000000000001A
:10965000000000000000000000000000000000000A
:1096600000000000000000000000000000000000FA
:1096700000000000000000000000000000000000EA
:1096800000000000000000000000000000000000DA
:1096900000000000000000000000000000000000CA
:1096A00000000000000000000000000000000000BA
:1096B00000000000000000000000000000000000AA
:1096C000000000000000000000000000000000009A
:1096D0000000000000000000000000000000000189
:1096E0000001000100010001000100010001000172
:1096F0000001000100010001000100010001000162
:109700000001000100010001000100010001000151
:109710000001000100010001000100010001000141
:109720000001000100010001000100010001000131
:109730000001000100010001000100010001000121
:109740000001000100010001000100010001000111
:109750000001000100010001000100010001000101
:1097600000010001000100010001000100010001F1
:1097700000010001000100010001000100010000E2
:109780001083FFFF4A6A0000000100010001000190
:1097900000010001000100010001000100010001C1
:1097A00000010001000100010001000100010001B1
:1097B00000010001000100010001000100010001A1
:1097C0000001000100010001000100010001000191
:1097D0000001000100010001000100010001000181
:1097E0000001000100010001000100010001000171
:1097F0000001000100010001000100010001000161
:109800000001000100010001000100010001000150
:109810000001000000000000000000000000000047
:109820000000000000000000000000000000000038
:109830000000000000000000000000000000000028
:109840000000000000000000000000000000000018
:109850000000000000000000000000000000000008
:1098600000000000000000000000000000000000F8
:1098700000000000000000000000000000000000E8
:1098800000000000000000000000000000000000D8
:1098900000000000000000000000000000000000C8
:1098A00000000000000000000000000000000000B8
:1098B00000000000000000000000000000010001A6
:1098C0000001000100010000000100010001000191
:1098D0000001000100010001000100010001000180
:1098E0000001000100010001000100010001000170
:1098F0000001000100010001000100010001000160
:10990000000100010001000100010001000100014F
:10991000000100010001000100010001000100013F
:10992000000100010001000100010001000100012F
:10993000000100010001000100010001000100011F
:10994000000100010001000100010001000100010F
:109950000001000100010001000100010001000000
:109960001083FFFF4A6A00000001000100010001AE
:1099700000010001000100010001000100010001DF
:1099800000010001000100010001000100010001CF
:1099900000010001000100010001000100010001BF
:1099A00000010001000100010001000100010001AF
:1099B000000100010001000100010001000100019F
:1099C000000100010001000100010001000100018F
:1099D000000100010001000100010001000100017F
:1099E0000001000100010001000000010001000170
:1099F0000001000100000000000000000000000065
:109A00000000000000000000000000000000000056
:109A10000000000000000000000000000000000046
:109A20000000000000000000000000000000000036
:109A30000000000000000000000000000000000026
:109A40000000000000000000000000000000000016
:109A50000000000000000000000000000000000006
:109A600000000000000000000000000000000000F6
:109A700000000000000000000000000000000000E6
:109A800000000000000000000000000000000000D6
:109A900000000000000000000000000100010001C3
:109AA00000010001000100000001000100010001AF
:109AB000000100010001000100010001000100019E
:109AC000000100010001000100010001000100018E
:109AD000000100010001000100010001000100017E
:109AE000000100010001000100010001000100016E
:109AF000000100010001000100010001000100015E
:109B0000000100010001000100010001000100014D
:109B1000000100010001000100010001000100013D
:109B2000000100010001000100010001000100012D
:109B3000000100010001000100010001000100001E
:109B40001083FFFF4A6A00000001000100010001CC
:109B500000010001000100010001000100010001FD
:109B600000010001000100010001000100010001ED
:109B700000010001000100010001000100010001DD
:109B800000010001000100010001000100010001CD
:109B900000010001000100010001000100010001BD
:109BA00000010001000100010001000100010001AD
:109BB000000100010001000100010001000100019D
:109BC000000100010001000100000001000100018E
:109BD0000001000100010000000000000000000082
:109BE0000000000000000000000000000000000075
:109BF0000000000000000000000000000000000065
:109C00000000000000000000000000000000000054
:109C10000000000000000000000000000000000044
:109C20000000000000000000000000000000000034
:109C30000000000000000000000000000000000024
:109C40000000000000000000000000000000000014
:109C50000000000000000000000000000000000004
:109C600000000000000000000000000000000000F4
:109C700000000000000000000001000100000001E1
:109C800000010001000100010001000100010001CC
:109C900000010001000100010001000100010001BC
:109CA00000010001000100010001000100010001AC
:109CB000000100010001000100010001000100019C
:109CC000000100010001000100010001000100018C
:109CD000000100010001000100010001000100017C
:109CE000000100010001000100010001000100016C
:109CF000000100010001000100010001000100015C
:109D0000000100010001000100010001000100014B
:109D1000000100010001000100010001000100003C
:109D20001083FFFF4A6A00000001000100010001EA
:109D3000000100010001000100010001000100011B
:109D4000000100010001000100010001000100010B
:109D500000010001000100010001000100010001FB
:109D600000010001000100010001000100010001EB
:109D700000010001000100010001000100010001DB
:109D800000010001000100010001000100010001CB
:109D900000010001000100010001000100010001BB
:109DA00000010001000100010001000100010001AB
:109DB00000010000000100010000000000000000A0
:109DC0000000000000000000000000000000000093
:109DD0000000000000000000000000000000000083
:109DE0000000000000000000000000000000000073
:109DF0000000000000000000000000000000000063
:109E00000000000000000000000000000000000052
:109E10000000000000000000000000000000000042
:109E20000000000000000000000000000000000032
:109E30000000000000000000000000000000000022
:109E40000000000000000000000000000000000012
:109E500000000000000000010001000100010001FD
:109E600000010001000100010001000100010001EA
:109E700000010001000100010001000100010001DA
:109E800000010001000100010001000100010001CA
:109E900000010001000100010001000100010001BA
:109EA00000010001000100010001000100010001AA
:109EB000000100010001000100010001000100019A
:109EC000000100010001000100010001000100018A
:109ED000000100010001000100010001000100017A
:109EE000000100010001000100010001000100016A
:109EF000000100010001000100010001000100005B
:109F00001083FFFF4A6A0000000100010001000108
:109F10000001000100010001000100010001000139
:109F20000001000100010001000100010001000129
:109F30000001000100010001000100010001000119
:109F40000001000100010001000100010001000109
:109F500000010001000100010001000100010001F9
:109F600000010001000100010001000100010001E9
:109F700000010001000100010001000100010001D9
:109F800000010001000100010001000100010001C9
:109F900000010001000100010001000000000000BC
:109FA00000000000000000000000000000000000B1
:109FB00000000000000000000000000000000000A1
:109FC0000000000000000000000000000000000091
:109FD0000000000000000000000000000000000081
:109FE0000000000000000000000000000000000071
:109FF0000000000000000000000000000000000061
:10A000000000000000000000000000000000000050
:10A010000000000000000000000000000000000040
:10A020000000000000000000000000000000000030
:10A03000000000000001000100010001000100011A
:10A040000001000100010001000100010001000108
:10A0500000010001000100010001000100010001F8
:10A0600000010001000100010001000100010001E8
:10A0700000010001000100010001000100010001D8
:10A0800000010001000100010001000100010001C8
:10A0900000010001000100010001000100010001B8
:10A0A00000010001000100010001000100010001A8
:10A0B0000001000100010001000100010001000198
:10A0C0000001000100010001000100010001000188
:10A0D0000001000100010001000100010001000079
:10A0E0001083FFFF4A6A0000000100010001000127
:10A0F0000001000100010001000100010001000158
:10A100000001000100010001000100010001000147
:10A110000001000100010001000100010001000137
:10A120000001000100010001000100010001000127
:10A130000001000100010001000100010001000117
:10A140000001000100010001000100010001000107
:10A1500000010001000100010001000100010001F7
:10A1600000010001000100010001000100010001E7
:10A1700000010001000100010001000100000000D9
:10A1800000000000000000000000000000000000CF
:10A1900000000000000000000000000000000000BF
:10A1A00000000000000000000000000000000000AF
:10A1B000000000000000000000000000000000009F
:10A1C000000000000000000000000000000000008F
:10A1D000000000000000000000000000000000007F
:10A1E000000000000000000000000000000000006F
:10A1F000000000000000000000000000000000005F
:10A20000000000000000000000000000000000004E
:10A210000000000100010001000100010001000137
:10A220000001000100010001000100010001000126
:10A230000001000100010001000100010001000116
:10A240000001000100010001000100010001000106
:10A2500000010001000100010001000100010001F6
:10A2600000010001000100010001000100010001E6
:10A2700000010001000100010001000100010001D6
:10A2800000010001000100010001000100010001C6
:10A2900000010001000100010001000100010001B6
:10A2A00000010001000100010001000100010001A6
:10A2B0000001000100010001000100010001000097
:10A2C0001083FFFF4A6A0000000100010001000145
:10A2D0000001000100010001000100010001000176
:10A2E0000001000100010001000100010001000166
:10A2F0000001000100010001000100010001000156
:10A300000001000100010001000100010001000145
:10A310000001000100010001000100010001000135
:10A320000001000100010001000100010001000125
:10A330000001000100010001000100010001000115
:10A340000001000100010001000100010001000105
:10A3500000010001000100010001000100010000F6
:10A3600000000000000000000000000000000000ED
:10A3700000000000000000000000000000000000DD
:10A3800000000000000000000000000000000000CD
:10A3900000000000000000000000000000000000BD
:10A3A00000000000000000000000000000000000AD
:10A3B000000000000000000000000000000000009D
:10A3C000000000000000000000000000000000008D
:10A3D000000000000000000000000000000000007D
:10A3E000000000000000000000000000000000006D
:10A3F0000001000100010001000100010001000155
:10A400000001000100010001000100010001000144
:10A410000001000100010001000100010001000134
:10A420000001000100010001000100010001000124
:10A430000001000100010001000100010001000114
:10A440000001000100010001000100010001000104
:10A4500000010001000100010001000100010001F4
:10A4600000010001000100010001000100010001E4
:10A4700000010001000100010001000100010001D4
:10A4800000010001000100010001000100010001C4
:10A4900000010001000100010001000100010000B5
:10A4A0001083FFFF4A6A0000000100010001000163
:10A4B0000001000100010001000100010001000194
:10A4C0000001000100010001000100010001000184
:10A4D0000001000100010001000100010001000174
:10A4E0000001000100010001000100010001000164
:10A4F0000001000100010001000100010001000154
:10A500000001000100010001000100010001000143
:10A510000001000100010001000100010001000133
:10A520000001000100010001000100010001000123
:10A530000001000100010001000100010001000113
:10A54000000000000000000000000000000000000B
:10A5500000000000000000000000000000000000FB
:10A5600000000000000000000000000000000000EB
:10A5700000000000000000000000000000000000DB
:10A5800000000000000000000000000000000000CB
:10A5900000000000000000000000000000000000BB
:10A5A00000000000000000000000000000000000AB
:10A5B000000000000000000000000000000000009B
:10A5C000000000000000000000000000000000018A
:10A5D0000001000100010001000100010001000173
:10A5E0000001000100010001000100010001000163
:10A5F0000001000100010001000100010001000153
:10A600000001000100010001000100010001000142
:10A610000001000100010001000100010001000132
:10A620000001000100010001000100010001000122
:10A630000001000100010001000100010001000112
:10A640000001000100010001000100010001000102
:10A6500000010001000100010001000100010001F2
:10A6600000010001000100010001000100010001E2
:10A6700000010001000100010001000100010000D3
:10A680001083FFFF4A6A0000000100010001000181
:10A6900000010001000100010001000100010001B2
:10A6A00000010001000100010001000100010001A2
:10A6B0000001000100010001000100010001000192
:10A6C0000001000100010001000100010001000182
:10A6D0000001000100010001000100010001000172
:10A6E0000001000100010001000100010001000162
:10A6F0000001000100010001000100010001000152
:10A700000001000100010001000100010001000141
:10A710000001000100010001000100010001000131
:10A720000001000000000000000000000000000028
:10A730000000000000000000000000000000000019
:10A740000000000000000000000000000000000009
:10A7500000000000000000000000000000000000F9
:10A7600000000000000000000000000000000000E9
:10A7700000000000000000000000000000000000D9
:10A7800000000000000000000000000000000000C9
:10A7900000000000000000000000000000000000B9
:10A7A00000000000000000000000000000010001A7
:10A7B0000001000100010001000100010001000191
:10A7C0000001000100010001000100010001000181
:10A7D0000001000100010001000100010001000171
:10A7E0000001000100010001000100010001000161
:10A7F0000001000100010001000100010001000151
:10A800000001000100010001000100010001000140
:10A810000001000100010001000100010001000130
:10A820000001000100010001000100010001000120
:10A830000001000100010001000100010001000110
:10A840000001000100010001000100010001000100
:10A8500000010001000100010001000100010000F1
:10A860001083FFFF4A6A000000010001000100019F
:10A8700000010001000100010001000100010001D0
:10A8800000010001000100010001000100010001C0
:10A8900000010001000100010001000100010001B0
:10A8A00000010001000100010001000100010001A0
:10A8B0000001000100010001000100010001000190
:10A8C0000001000100010001000100010001000180
:10A8D0000001000100010001000100010001000170
:10A8E0000001000100010001000100010001000160
:10A8F0000001000100010001000100010001000150
:10A900000001000100000000000000000000000045
:10A910000000000000000000000000000000000037
:10A920000000000000000000000000000000000027
:10A930000000000000000000000000000000000017
:10A940000000000000000000000000000000000007
:10A9500000000000000000000000000000000000F7
:10A9600000000000000000000000000000000000E7
:10A9700000000000000000000000000000000000D7
:10A9800000000000000000000000000100010001C4
:10A9900000010001000100010001000100010001AF
:10A9A000000100010001000100010001000100019F
:10A9B000000100010001000100010001000100018F
:10A9C000000100010001000100010001000100017F
:10A9D000000100010001000100010001000100016F
:10A9E000000100010001000100010001000100015F
:10A9F000000100010001000100010001000100014F
:10AA0000000100010001000100010001000100013E
:10AA1000000100010001000100010001000100012E
:10AA2000000100010001000100010001000100011E
:10AA3000000100010001000100010001000100000F
:10AA40001083FFFF4A6A00000001000100010001BD
:10AA500000010001000100010001000100010001EE
:10AA600000010001000100010001000100010001DE
:10AA700000010001000100010001000100010001CE
:10AA800000010001000100010001000100010001BE
:10AA900000010001000100010001000100010001AE
:10AAA000000100010001000100010001000100019E
:10AAB000000100010001000100010001000100018E
:10AAC000000100010001000100010001000100017E
:10AAD000000100010001000100010001000100016E
:10AAE0000001000100010000000000000000000063
:10AAF0000000000000000000000000000000000056
:10AB00000000000000000000000000000000000045
:10AB10000000000000000000000000000000000035
:10AB20000000000000000000000000000000000025
:10AB30000000000000000000000000000000000015
:10AB40000000000000000000000000000000000005
:10AB500000000000000000000000000000000000F5
:10AB600000000000000000000001000100010001E1
:10AB700000010001000100010001000100010001CD
:10AB800000010001000100010001000100010001BD
:10AB900000010001000100010001000100010001AD
:10ABA000000100010001000100010001000100019D
:10ABB000000100010001000100010001000100018D
:10ABC000000100010001000100010001000100017D
:10ABD000000100010001000100010001000100016D
:10ABE000000100010001000100010001000100015D
:10ABF000000100010001000100010001000100014D
:10AC0000000100010001000100010001000100013C
:10AC1000000100010001000100010001000100002D
:10AC20001083FFFF4A6A00000001000100010001DB
:10AC3000000100010001000100010001000100010C
:10AC400000010001000100010001000100010001FC
:10AC500000010001000100010001000100010001EC
:10AC600000010001000100010001000100010001DC
:10AC700000010001000100010001000100010001CC
:10AC800000010001000100010001000100010001BC
:10AC900000010001000100010001000100010001AC
:10ACA000000100010001000100010001000100019C
:10ACB000000100010001000100010001000100018C
:10ACC0000001000100010001000000000000000080
:10ACD0000000000000000000000000000000000074
:10ACE0000000000000000000000000000000000064
:10ACF0000000000000000000000000000000000054
:10AD00000000000000000000000000000000000043
:10AD10000000000000000000000000000000000033
:10AD20000000000000000000000000000000000023
:10AD30000000000000000000000000000000000013
:10AD400000000000000000010001000100010001FE
:10AD500000010001000100010001000100010001EB
:10AD600000010001000100010001000100010001DB
:10AD700000010001000100010001000100010001CB
:10AD800000010001000100010001000100010001BB
:10AD900000010001000100010001000100010001AB
:10ADA000000100010001000100010001000100019B
:10ADB000000100010001000100010001000100018B
:10ADC000000100010001000100010001000100017B
:10ADD000000100010001000100010001000100016B
:10ADE000000100010001000100010001000100015B
:10ADF000000100010001000100010001000100004C
:10AE00001083FFFF4A6A00000001000100010001F9
:10AE1000000100010001000100010001000100012A
:10AE2000000100010001000100010001000100011A
:10AE3000000100010001000100010001000100010A
:10AE400000010001000100010001000100010001FA
:10AE500000010001000100010001000100010001EA
:10AE600000010001000100010001000100010001DA
:10AE700000010001000100010001000100010001CA
:10AE800000010001000100010001000100010001BA
:10AE900000010001000100010001000100010001AA
:10AEA000000100010001000100010000000000009D
:10AEB0000000000000000000000000000000000092
:10AEC0000000000000000000000000000000000082
:10AED0000000000000000000000000000000000072
:10AEE0000000000000000000000000000000000062
:10AEF0000000000000000000000000000000000052
:10AF00000000000000000000000000000000000041
:10AF10000000000000000000000000000000000031
:10AF2000000000000001000100010001000100011B
:10AF30000001000100010001000100010001000109
:10AF400000010001000100010001000100010001F9
:10AF500000010001000100010001000100010001E9
:10AF600000010001000100010001000100010001D9
:10AF700000010001000100010001000100010001C9
:10AF800000010001000100010001000100010001B9
:10AF900000010001000100010001000100010001A9
:10AFA0000001000100010001000100010001000199
:10AFB0000001000100010001000100010001000189
:10AFC0000001000100010001000100010001000179
:10AFD000000100010001000100010001000100006A
:10AFE0001083FFFF4A6A0000000100010001000118
:10AFF0000001000100010001000100010001000149
:10B000000001000100010001000100010001000138
:10B010000001000100010001000100010001000128
:10B020000001000100010001000100010001000118
:10B030000001000100010001000100010001000108
:10B0400000010001000100010001000100010001F8
:10B0500000010001000100010001000100010001E8
:10B0600000010001000100010001000100010001D8
:10B0700000010001000100010001000100010001C8
:10B0800000010001000100010001000100000000BA
:10B0900000000000000000000000000000000000B0
:10B0A00000000000000000000000000000000000A0
:10B0B0000000000000000000000000000000000090
:10B0C0000000000000000000000000000000000080
:10B0D0000000000000000000000000000000000070
:10B0E0000000000000000000000000000000000060
:10B0F0000000000000000000000000000000000050
:10B100000000000100010000000100010001000139
:10B110000001000100010001000100010001000127
:10B120000001000100010001000100010001000117
:10B130000001000100010001000100010001000107
:10B1400000010001000100010001000100010001F7
:10B1500000010001000100010001000100010001E7
:10B1600000010001000100010001000100010001D7
:10B1700000010001000100010001000100010001C7
:10B1800000010001000100010001000100010001B7
:10B1900000010001000100010001000100010001A7
:10B1A0000001000100010001000100010001000197
:10B1B0000001000100010001000100010001000088
:10B1C0001083FFFF4A6A0000000100010001000136
:10B1D0000001000100010001000100010001000167
:10B1E0000001000100010001000100010001000157
:10B1F0000001000100010001000100010001000147
:10B200000001000100010001000100010001000136
:10B210000001000100010001000100010001000126
:10B220000001000100010001000100010001000116
:10B230000001000100010001000100010001000106
:10B2400000010001000100010001000100010001F6
:10B2500000010001000100010001000100010001E6
:10B2600000010001000100010000000100010000D8
:10B2700000000000000000000000000000000000CE
:10B2800000000000000000000000000000000000BE
:10B2900000000000000000000000000000000000AE
:10B2A000000000000000000000000000000000009E
:10B2B000000000000000000000000000000000008E
:10B2C000000000000000000000000000000000007E
:10B2D000000000000000000000000000000000006E
:10B2E0000001000100010001000100010001000156
:10B2F0000001000100010001000100010001000146
:10B300000001000100010001000100010001000135
:10B310000001000100010001000100010001000125
:10B320000001000100010001000100010001000115
:10B330000001000100010001000100010001000105
:10B3400000010001000100010001000100010001F5
:10B3500000010001000100010001000100010001E5
:10B3600000010001000100010001000100010001D5
:10B3700000010001000100010001000100010001C5
:10B3800000010001000100010001000100010001B5
:10B3900000010001000100010001000100010000A6
:10B3A0001083FFFF4A6A0000000100010001000154
:10B3B0000001000100010001000100010001000185
:10B3C0000001000100010001000100010001000175
:10B3D0000001000100010001000100010001000165
:10B3E0000001000100010001000100010001000155
:10B3F0000001000100010001000100010001000145
:10B400000001000100010001000100010001000134
:10B410000001000100010001000100010001000124
:10B420000001000100010001000100010001000114
:10B430000001000100010001000100010001000104
:10B4400000010001000100010001000100010001F4
:10B4500000000000000000000000000000000000EC
:10B4600000000000000000000000000000000000DC
:10B4700000000000000000000000000000000000CC
:10B4800000000000000000000000000000000000BC
:10B4900000000000000000000000000000000000AC
:10B4A000000000000000000000000000000000009C
:10B4B000000000000000000000000000000000018B
:10B4C0000001000100010001000100010001000174
:10B4D0000001000100010001000100010001000164
:10B4E0000001000100010001000100010001000154
:10B4F0000001000100010001000100010001000144
:10B500000001000100010001000100010001000133
:10B510000001000100010001000100010001000123
:10B520000001000100010001000100010001000113
:10B530000001000100010001000100010001000103
:10B5400000010001000100010001000100010001F3
:10B5500000010001000100010001000100010001E3
:10B5600000010001000100010001000100010001D3
:10B5700000010001000100010001000100010000C4
:10B580001083FFFF4A6A0000000100010001000172
:10B5900000010001000100010001000100010001A3
:10B5A0000001000100010001000100010001000193
:10B5B0000001000100010001000100010001000183
:10B5C0000001000100010001000100010001000173
:10B5D0000001000100010001000100010001000163
:10B5E0000001000100010001000100010001000153
:10B5F0000001000100010001000100010001000143
:10B600000001000100010001000100010001000132
:10B610000001000100010001000100010001000122
:10B620000001000100010001000100010001000112
:10B630000001000000000000000000000000000009
:10B6400000000000000000000000000000000000FA
:10B6500000000000000000000000000000000000EA
:10B6600000000000000000000000000000000000DA
:10B6700000000000000000000000000000000000CA
:10B6800000000000000000000000000000000000BA
:10B6900000000000000000000000000000010001A8
:10B6A0000001000100010001000100010001000192
:10B6B0000001000100010001000100010001000182
:10B6C0000001000100010001000100010001000172
:10B6D0000001000100010001000100010001000162
:10B6E0000001000100010001000100010001000152
:10B6F0000001000100010001000100010001000142
:10B700000001000100010001000100010001000131
:10B710000001000100010001000100010001000121
:10B720000001000100010001000100010001000111
:10B730000001000100010001000100010001000101
:10B7400000010001000100010001000100010001F1
:10B7500000010001000100010001000100010000E2
:10B760001083FFFF4A6A0000000100010001000190
:10B7700000010001000100010001000100010001C1
:10B7800000010001000100010001000100010001B1
:10B7900000010001000100010001000100010001A1
:10B7A0000001000100010001000100010001000191
:10B7B0000001000100010001000100010001000181
:10B7C0000001000100010001000100010001000171
:10B7D0000001000100010001000100010001000161
:10B7E0000001000100010001000100010001000151
:10B7F0000001000100010001000100010001000141
:10B800000001000100010001000100010001000130
:10B810000001000100000000000000000000000026
:10B820000000000000000000000000000000000018
:10B830000000000000000000000000000000000008
:10B8400000000000000000000000000000000000F8
:10B8500000000000000000000000000000000000E8
:10B8600000000000000000000000000000000000D8
:10B8700000000000000000000000000000010001C6
:10B8800000010001000100010001000100010001B0
:10B8900000010001000100010001000100010001A0
:10B8A0000001000100010001000100010001000190
:10B8B0000001000100010001000100010001000180
:10B8C0000001000100010001000100010001000170
:10B8D0000001000100010001000100010001000160
:10B8E0000001000100010001000100010001000150
:10B8F0000001000100010001000100010001000140
:10B90000000100010001000100010001000100012F
:10B91000000100010001000100010001000100011F
:10B92000000100010001000100010001000100010F
:10B930000001000100010001000100010001000000
:10B940001083FFFF4A6A00000001000100010001AE
:10B9500000010001000100010001000100010001DF
:10B9600000010001000100010001000100010001CF
:10B9700000010001000100010001000100010001BF
:10B9800000010001000100010001000100010001AF
:10B99000000100010001000100010001000100019F
:10B9A000000100010001000100010001000100018F
:10B9B000000100010001000100010001000100017F
:10B9C000000100010001000100010001000100016F
:10B9D000000100010001000100010001000100015F
:10B9E000000100010001000100010001000100014F
:10B9F0000001000100000000000000000000000045
:10BA00000000000000000000000000000000000036
:10BA10000000000000000000000000000000000026
:10BA20000000000000000000000000000000000016
:10BA30000000000000000000000000000000000006
:10BA400000000000000000000000000000000000F6
:10BA500000000000000000000000000000010001E4
:10BA600000010000000000010001000100010001D0
:10BA700000010001000100010001000100010001BE
:10BA800000010001000100010001000100010001AE
:10BA9000000100010001000100010001000100019E
:10BAA000000100010001000100010001000100018E
:10BAB000000100010001000100010001000100017E
:10BAC000000100010001000100010001000100016E
:10BAD000000100010001000100010001000100015E
