:020000040002F8
:10600000C0F9002075B903004396020001CD0200DB
:10601000E797020073980200BB9A0200000000009C
:10602000000000000000000000000000E9D30200B2
:10603000379C0200000000000DD40200DFAD02001A
:106040009340030013AE020025D20200798A0300B8
:106050001FB102005FCE0200D7CE02005FCF020068
:1060600053D0020087D202006BD4020097D90200FD
:106070009FF30200A3010300F30103005704030090
:10608000B59D03000DD302007F200300273D0300D0
:10609000E7420300BB570300F1000300C7600300A1
:1060A000EB6303007B6A03001F6C0300376F030080
:1060B000337303006DAE0300000000000000000019
:1060C00047B1030053B10300CBB4030081BD03000B
:1060D0008390030083BD030085BD03000000000022
:1060E00000000000000000000000000000000000B0
:1060F00000000000000000000000000000000000A0
:10610000000000000000000000000000000000008F
:10611000000000000000000000000000000000007F
:10612000000000000000000000000000000000006F
:10613000000000000000000000000000000000005F
:10614000000000000000000000000000000000004F
:10615000000000000000000000000000000000003F
:10616000000000000000000000000000000000002F
:10617000000000000000000000000000000000001F
:10618000000000000000000000000000000000000F
:1061900000000000000000000000000000000000FF
:1061A00000000000000000000000000000000000EF
:1061B00000000000000000000000000000000000DF
:1061C00000000000000000000000000000000000CF
:1061D00000000000000000000000000000000000BF
:1061E00000000000000000000000000000000000AF
:1061F000000000000000000000000000000000009F
:1062000080B5002806D0DFF8942852F00102402122
:106210004843904701BD10B50400002C06D04FF450
:106220007A70FFF7EDFF641E002CF8D110BD1CB58D
:10623000DFF86C4894F8241000291AD0C0B2002866
:1062400003D002208DF8000002E000208DF800004D
:106250006B4601222068C17B6068007801F07CFDFC
:10626000002802D05FF0FF302DE09DF80000607440
:1062700028E0A17A002902D15FF0FF3023E001007D
:10628000C9B2002904D0617C002901D000201AE0A5
:10629000C0B2002803D001208DF8000002E00020E9
:1062A0008DF800006B4601222068C17B6068007891
:1062B00001F052FD002802D05FF0FF3003E09DF8AE
:1062C00000006074002016BD3EB580208DF80000EF
:1062D000DFF8CC476B4601222068817C606800783B
:1062E00001F03AFD002802D05FF0FF30CAE06420E0
:1062F000FFF791FF00208DF800006B460122206817
:10630000817C6068007801F027FD002802D05FF0F2
:10631000FF30B7E06B4606222068817D6068007818
:1063200001F0F4FC002802D05FF0FF30AAE06846DC
:106330009DF80510890011F00401C278520012F096
:1063400002021143407810F0010001430800C0B27E
:10635000002815D00800C0B2012802D10120E07445
:1063600036E00800C0B2022802D10020E0742FE01D
:10637000C9B2DFF8DC0801F0B9FE5FF0FF3081E060
:106380006B4601222068C1786068007801F0BEFC8D
:10639000002802D05FF0FF3074E09DF8000010F09C
:1063A0000F000100C9B2002906D1DFF8A80801F0EA
:1063B0009DFE5FF0FF3065E0C0B2042806D1DFF833
:1063C000980801F093FE0120E07401E00020E074E1
:1063D000FF20A07220726072E0724FF6FF71E181BF
:1063E0002074A07401202073012084F82200002072
:1063F00084F8230000206075002020750C21002205
:1064000014F11605280001F085FE002084F8240010
:10641000002084F825000020E0844FF4FA6000F0AA
:10642000A3F9002802D05FF0FF302BE0022000F03B
:1064300001FA002802D05FF0FF3023E02A2000F0AC
:1064400060FA002802D05FF0FF301BE0322000F03D
:10645000B1FA002802D05FF0FF3013E0002000F016
:106460004DFB002802D05FF0FF300BE0002000F071
:106470005FFC002802D05FF0FF3003E0002000F056
:1064800078FB00203EBD1CB504002000C0B22928C6
:1064900002DB5FF0FF306AE02000C0B200281BD1B1
:1064A000002000F0EDFC00208DF8000007208DF8A2
:1064B0000100DFF8EC456B4602222068817C6068B1
:1064C000007801F049FC002802D05FF0FF304EE078
:1064D0000020207500204AE0012000F0D1FC20209F
:1064E0008DF800002000C0B2012806D100208DF8F0
:1064F0000100052000F005FA1AE02000C0B20628CD
:1065000006DA01208DF80100052000F0FAF90FE00D
:10651000E4B2152C06DA02208DF801000A2000F002
:10652000F0F905E003208DF80100142000F0E9F9EE
:1065300068464178890151F007014170DFF86045F4
:106540006B4602222068817C6068007801F004FCC0
:10655000002802D05FF0FF3009E00820A072002080
:10656000207301202075002000F0C8FA002016BD1D
:106570001CB5DFF8E846A07A002802D15FF0FF30B2
:10658000D3E000208DF800006B4601222068C17B1B
:106590006068007801F0E0FB002802D05FF0FF3077
:1065A000C3E06B460122206841796068007801F001
:1065B000D3FB002802D05FF0FF30B6E06B4601222B
:1065C000206801796068007801F0C6FB002802D0DD
:1065D0005FF0FF30A9E094F82400002852D00C208E
:1065E0008DF800006B460122206801796068007810
:1065F00001F0B2FB002802D05FF0FF3095E03220BE
:10660000FFF709FEC0208DF80000A07AC00705D56D
:106610009DF8000050F020008DF800006B4601222C
:10662000206801796068007801F096FB002802D0AC
:106630005FF0FF3079E0607C002803D002208DF805
:10664000000002E000208DF800006B460122206867
:10665000C17B6068007801F07FFB002802D05FF00A
:10666000FF3062E000208DF800006B4601222068B8
:1066700041796068007801F06FFB002854D05FF02A
:10668000FF3052E004208DF800006B4601222068A4
:1066900001796068007801F05FFB002802D05FF0AC
:1066A000FF3042E0A07C002802D1A07AC00703D4CA
:1066B00040208DF8000002E060208DF800006B465D
:1066C0000122206801796068007801F045FB00280C
:1066D00002D05FF0FF3028E03220FFF79CFD607CA5
:1066E000002803D001208DF8000002E000208DF882
:1066F00000006B4601222068C17B6068007801F0D1
:106700002BFB002802D05FF0FF300EE014F11003E5
:106710000122206841796068007801F01DFB0028A3
:1067200002D05FF0FF3000E0002016BDDFF82C152E
:10673000097A002905D002290AD005D303290BD0F4
:106740000EE0FA2101800DE04FF4FA71018009E0BA
:106750004FF47A71018005E04FF4FA61018001E0A5
:1067600000210180002070471CB5DFF8F044A17AB9
:10677000002902D15FF0FF303AE080B2FA2809D058
:10678000B0F5FA7F12D0B0F57A7F13D0B0F5FA6F7A
:1067900014D017E000208DF80000207A9DF800103A
:1067A000C9B2B0EBD10F10D1002021E008208DF844
:1067B0000000F2E710208DF80000EEE718208DF8B9
:1067C0000000EAE75FF0FF3012E06B46012220682C
:1067D00081796068007801F0BFFA002802D05FF08C
:1067E000FF3005E09DF80000C0B2C0082072002014
:1067F00016BDDFF868144A7A002A05D0022A10D0A4
:106800000CD3032A10D012E002220270C97C0029A6
:1068100002D0017849000170002070470422027004
:10682000F4E708220270F1E710220270EEE75FF051
:10683000FF30F2E71CB5DFF82444A17A002902D129
:106840005FF0FF3037E0C0B2022806D0042810D035
:10685000082812D0102814D017E000208DF800006E
:10686000607A9DF80010C9B2B0EBD10F10D10020B2
:1068700021E008208DF80000F2E710208DF80000DC
:10688000EEE718208DF80000EAE75FF0FF3012E035
:106890006B4601222068C1796068007801F05CFADB
:1068A000002802D05FF0FF3005E09DF80000C0B284
:1068B000C0086072002016BDDFF8A013C97A012954
:1068C00009D01AD303290CD008D305290FD00BD334
:1068D00006290FD011E0BC21018010E06221018067
:1068E0000DE02A2101800AE01421018007E00A213D
:1068F000018004E00521018001E0002101800020E9
:1069000070471CB5DFF85443A17A002902D15FF02B
:10691000FF3041E0010089B2BC2903DB01208DF882
:10692000000021E0010089B2622903DB02208DF81A
:10693000000019E0010089B22A2903DB03208DF849
:10694000000011E0010089B2142903DB04208DF856
:10695000000009E080B20A2803DB05208DF8000062
:1069600002E006208DF80000E07A9DF800108842D1
:1069700001D1002010E06B46012220688178606818
:10698000007801F0E9F9002802D05FF0FF3003E061
:106990009DF80000E072002016BDDFF8C02292F8DA
:1069A0002410002902D05FF0FF3002E0D18901807D
:1069B0000020704738B50500394CA07A002802D174
:1069C0005FF0FF304BE094F82400002802D05FF025
:1069D000FF3044E0207D002810D0280080B200283D
:1069E00009D0280080B2292805DA2800C0B2FFF7B4
:1069F0004AFD002033E00020FFF745FD280080B26B
:106A0000042801DA042507E0280080B240F2E931C9
:106A1000884201DB4FF47A754FF47A70ADB290FB87
:106A2000F5F0401E8DF800006B4601222068417889
:106A30006068007801F090F9002802D05FF0FF3024
:106A40000DE04FF47A709DF80010491C90FBF1F0B6
:106A5000E081E08980B24008FFF753FF002032BD9B
:106A60000F49097A002905D002290CD007D3032940
:106A70000DD010E0DFF80817016000207047DFF844
:106A800004170160F9E7DFF800170160F5E7DFF8A8
:106A9000FC160160F1E75FF0FF30EFE780BB030019
:106AA00084590020DFF8B4114A7A002A05D0022A5E
:106AB00013D00ED3032A14D017E04FF48042028083
:106AC000C97C002903D0018889B2490801800020CF
:106AD000704741F69C720280F2E74FF480520280C8
:106AE000EEE74FF400620280EAE75FF0FF30EFE785
:106AF000DFF86811097C017000207047F8B50400C8
:106B0000002014F0FE04DFF8545195F8240000280A
:106B100001D000202CE0A87A002802D15FF0FF30DD
:106B200026E02E7CA87A20402874287C2100C9B257
:106B3000884202D05FF0FF3700E000272000C0B29B
:106B4000002802D1287D002803D00120FFF76FFB29
:106B500002E00020FFF76BFBE4B2002C07D0FFF748
:106B600007FD002803D02E745FF0FF3000E03800EE
:106B7000F2BD38B5040014F0700F03D001208DF879
:106B800000000AE02000C0B2002803D000208DF8E9
:106B9000000002E040208DF80000DFF8C0506B4696
:106BA00001222868817C6868007801F0D5F8002807
:106BB00004D00020A8725FF0FF3048E09DF800008C
:106BC00010F0BF00287300208DF80000600605D487
:106BD0009DF8000050F004008DF80000A00605D4D8
:106BE0009DF8000050F002008DF80000E00605D48A
:106BF0009DF8000050F001008DF80000200705D43A
:106C00009DF8000050F038008DF800006B4601221E
:106C10002868C17C6868007801F09EF8002804D0DC
:106C20000020A8725FF0FF3011E02000C0B2002801
:106C300006D02000C0B2082802D0002000F020F9C1
:106C4000AC72002028753220FFF7E5FA002032BD33
:106C500058AB0300DC9D0300D0AE03008459002034
:106C60002DE9FC4104000D001600DFF82C7D97F89B
:106C70002400002802D15FF0FF3057E0B87A0028E6
:106C800002D15FF0FF3051E06B4602223868817A12
:106C90007868007801F03AF8002802D05FF0FF3001
:106CA00044E09DF800009DF8018058EA0028404625
:106CB000210080B289B2884204D2002030705FF097
:106CC000FF3033E07868408880B24008414689B29E
:106CD000884215D26B4601223868417C786800787A
:106CE00001F014F8002802D05FF0FF301EE09DF89C
:106CF0000000C00604D5FFF73BFC7FF0010015E063
:106D00002B002200D2B23868C17A7868007800F08F
:106D1000FDFF002802D05FF0FF3007E01FFA88F87F
:106D2000A4B298FBF4F0401E30700020BDE8F6815C
:106D300038B50400DFF8605CA87C2100C9B2884245
:106D400001D100209BE02000C0B2002846D06B4655
:106D50000122286801796868007800F0D7FF0028D0
:106D600002D05FF0FF308AE09DF8000010F0DF00F5
:106D70008DF800006B460122286801796868007868
:106D800000F0EAFF002802D05FF0FF3077E0032038
:106D9000FFF741FA02208DF8000095F82200002844
:106DA00005D09DF8000050F080008DF8000095F8A7
:106DB0002300002805D09DF8000050F030008DF829
:106DC00000006B4601222868017D6868007800F0A9
:106DD000C3FF002851D05FF0FF3050E06B46012226
:106DE000286801796868007800F090FF002802D0D8
:106DF0005FF0FF3043E0A87AC00706D59DF8000099
:106E000050F020008DF8000005E09DF8000010F023
:106E1000DF008DF800006B46012228680179686860
:106E2000007800F099FF002802D05FF0FF3026E0E4
:106E30000320FFF7F0F995F82200002803D0802006
:106E40008DF8000002E000208DF8000095F8230086
:106E5000002805D09DF8000050F030008DF80000AB
:106E60006B4601222868017D6868007800F074FF95
:106E7000002802D05FF0FF3001E0AC74002032BD8A
:106E800038B50400DFF8105B95F823002100C9B283
:106E9000884201D100202DE02000C0B2002803D09C
:106EA00030208DF8000002E000208DF80000A87C62
:106EB000002805D09DF8000050F002008DF8000079
:106EC00095F82200002805D09DF8000050F08000C1
:106ED0008DF800006B4601222868017D6868007803
:106EE00000F03AFF002802D05FF0FF3002E085F8A2
:106EF0002340002032BD00001CB504006B46042274
:106F00000D21DFF8940A4068007800F0FFFE0028A9
:106F100001D0072057E06A469DF80010C9B2C908A1
:106F200011F01C01D078C0F3011001438DF804105A
:106F300001A95378DBB2DB0813F01C03D078C0F34F
:106F4000810003434B709078C0B2C00810F01C0061
:106F5000D27812F003021043887000221CE0100067
:106F6000C0B204EB800090ED000ADFED810A20EE54
:106F7000200A1000C0B204EB800080ED000A10006F
:106F8000C0B2085C401E1300DBB2C8541000C0B28F
:106F9000085C0028E3D1521C1000C0B2032811DAAB
:106FA0001000C0B2085C002805D11000C0B2002358
:106FB00044F82030EFE71000C0B2DFF8E03944F8C1
:106FC0002030DCE7002016BDFEB504000D000027D0
:106FD0006846FFF791FF002645E0DFF8C409D0EDD1
:106FE000070AB4EE600AF1EE10FA06D4D0ED080AF2
:106FF000F4EE400AF1EE10FA34D50120B040074318
:1070000030E054F8260055F82610401A01F0B5F883
:1070100000EE100AB8EEC00ADFED560A80EE200A34
:10702000684600EB8601D1ED000AF5EE400AF1EE6C
:1070300010FAD2D000EB8600D0ED000A80EE200AD4
:10704000FFEE000A30EE200ADFF85409D0ED090AFD
:10705000B0EEC00AF4EE400AF1EE10FA02D50120BB
:10706000B0400743761C032ECBDB3800FEBD00008A
:107070002DE9FC4104000D0000266B4603220D2182
:10708000DFF814094068007800F040FE002801D0C5
:1070900007206AE09DF8000010F01F008DF8000046
:1070A0006F46787810F01F007870B87810F01F00E5
:1070B000B8705FF0000836E0DFF8E40890ED040AED
:1070C000F4EE400AF1EE10FA06D490ED050AB4EEA3
:1070D000600AF1EE10FA24D5012010FA08F00643F8
:1070E0001FE09FED251A20EE010A17F80800401E48
:1070F00007F8080017F808000028F2D180EE800A8F
:10710000FFEE000A30EE200AD1ED060AB0EEC00A0A
:10711000F4EE400AF1EE10FA03D5012010FA08F05F
:10712000064318F10108B8F1030F1DDA54F82800DE
:1071300055F82810401A01F020F800EE100AB8EEB9
:10714000C00ADFED0C0AC0EE200A17F8080000287C
:10715000B2D0DFF84C1891ED000AB8EE400A9FED6E
:10716000071A81EE000AC0E73000BDE8F681000092
:107170001D5A843F0000804754E3853F00B04C45D2
:10718000000003430000834233330342333383411F
:107190002DE9F84787B005000E00140001208DF896
:1071A0000000E846002088F80100DFF8EC976B4605
:1071B0000222D9F80000817CD9F80400007800F0A0
:1071C000CBFD002802D05FF0FF3006E2C820FFF7B9
:1071D00022F800208DF800006B460122D9F800004B
:1071E000C17BD9F80400007800F0B6FD002802D079
:1071F0005FF0FF30F1E16B460122D9F800004179E0
:10720000D9F80400007800F0A7FD002802D05FF054
:10721000FF30E2E16B460122D9F80000817CD9F809
:107220000400007800F098FD002802D05FF0FF30E5
:10723000D3E16B460122D9F80000C17DD9F80400E2
:10724000007800F089FD002802D05FF0FF30C4E133
:107250006B460122D9F800000179D9F804000078C2
:1072600000F07AFD002802D05FF0FF30B5E10C207D
:107270008DF800006B460122D9F800000179D9F899
:107280000400007800F068FD002802D05FF0FF30B5
:10729000A3E10F20FEF7BFFFD9F82800407A8DF850
:1072A00000006B460122D9F800008178D9F804006B
:1072B000007800F051FD002802D05FF0FF308CE133
:1072C000D9F82800007A8DF800006B460122D9F821
:1072D00000004178D9F80400007800F03DFD002856
:1072E00002D05FF0FF3078E12000C0B2002807D064
:1072F000D9F82800807A50F0E0008DF8000004E012
:10730000D9F82800807A8DF800006B460122D9F860
:1073100000008179D9F80400007800F01DFD0028F4
:1073200002D05FF0FF3058E12000C0B2002807D043
:10733000D9F82800C07A50F0E0008DF8000004E091
:10734000DFF85C06C07A8DF800006B460122D9F8A0
:107350000000C179D9F80400007800F0FDFC002895
:1073600002D05FF0FF3038E1E4B2002C02D0C82038
:10737000FEF751FF40208DF800006B460122D9F83E
:1073800000000179D9F80400007800F0E5FC00283D
:1073900002D05FF0FF3020E178208DF800006B46CE
:1073A0000122D9F800004179D9F80400007800F0F2
:1073B000D3FC002802D05FF0FF300EE1DFF8E0756B
:1073C000B889FEF728FF00208DF800006B460122E7
:1073D000D9F800004179D9F80400007800F0BCFC2D
:1073E000002802D05FF0FF30F7E06B460222D9F8A8
:1073F0000000817AD9F80400007800F087FC0028AA
:1074000002D05FF0FF30E8E09DF8001098F801002E
:1074100050EA012080B20C2190FBF1F40020A8601A
:10742000686028600020B060706030605FF0000A23
:107430004FE09DF8000098F8011051EA0021ADF8E6
:10744000141005A898F802109DF8032052EA0122B2
:10745000428098F8041098F8052052EA01228280B0
:107460003168BDF9142001FA82F131607168B0F918
:10747000022089187160B168B0F904000818B06082
:1074800098F8060098F8071051EA0021ADF80C10A2
:1074900003A898F8081098F8092052EA01224280BF
:1074A00098F80A1098F80B2052EA01228280296885
:1074B000BDF90C2001FA82F129606968B0F9022057
:1074C00089186960A968B0F904000818A8601AF161
:1074D000010A50462100C0B2C9B288420ED26B46A2
:1074E0000C22D9F80000C17AD9F80400007800F025
:1074F0000DFC00289DD05FF0FF306EE02868C117BA
:10750000090441EA104100043A68002300F076FEC5
:107510002200D2B2002300F071FE28606868C11713
:10752000090441EA104100043A68002300F066FEB5
:107530002200D2B2002300F061FE6860A868C11783
:10754000090441EA104100043A68002300F056FEA5
:107550002200D2B2002300F051FEA8603068C117AB
:10756000090441EA104100047A68002300F046FE55
:107570002200D2B2002300F041FE30607068C117D3
:10758000090441EA104100047A68002300F036FE45
:107590002200D2B2002300F031FE7060B068C11743
:1075A000090441EA104100047A68002300F026FE35
:1075B000E4B22200002300F021FEB060B068012890
:1075C00006DBB06800F17F4010F57F00B06003E09B
:1075D000B06810F58030B060002008B0BDE8F087DA
:1075E0002DE9F04788B005000E000227DFF8A883D8
:1075F00098F82400002804D0002000F088F9012425
:1076000000E000240DF10600FFF790F80DF10100F5
:10761000FFF7EFF80DF10200FFF74EF901A8FFF7B1
:10762000BCF998F80A906846FFF762FA5FF0000A22
:1076300001E01AF1010A3800C0B2824506DA0022E0
:1076400031002800FFF7A4FD0028F2D13800C0B2B5
:10765000824501D1002528E05FF0000A01E01AF11F
:10766000010A3800C0B2824506DA012202A905A843
:10767000FFF78EFD0028F2D1FFB2BA4501D10025F7
:1076800013E002A93000FFF79FFC060005A92800BF
:10769000FFF7EEFC0025C0B2002801D155F001052E
:1076A000F6B2002E01D155F00205FF2088F808003F
:1076B00088F8090088F80B004FF6FF71A8F80E1043
:1076C00088F80A0088F81000012088F80C00BDF83E
:1076D0000600FFF749F89DF80100FFF7ABF8BDF889
:1076E0000200FFF70EF9BDF80400FFF763F9484602
:1076F000C0B2FFF73EFA9DF80000FFF7FFF9E4B2D1
:10770000002C02D0012000F002F9280008B0BDE8EA
:10771000F0877CB50E001400002C02D15FF0FF3022
:1077200034E0DFF8D855A97A002902D15FF0FF30A4
:107730002CE0010089B2090A8DF8001069464870F2
:1077400068684089497811FA86F1884202DA5FF068
:10775000FF301BE06B4602222868017E68680078D3
:1077600000F0FAFA002802D05FF0FF300EE02300AC
:107770003200D2B22868417D6868007800F0ECFAE7
:10778000002802D05FF0FF3000E0002076BD7CB51D
:107790000E001400002C02D15FF0FF3034E0DFF85F
:1077A0005C55A97A002902D15FF0FF302CE001007E
:1077B00089B2090A8DF800106946487068684089E6
:1077C000497811FA86F1884202DA5FF0FF301BE057
:1077D0006B4602222868017E6868007800F0BCFAD7
:1077E000002802D05FF0FF300EE023003200D2B25A
:1077F0002868417D6868007800F088FA002802D087
:107800005FF0FF3000E0002076BD2DE9F84789B039
:1078100007000C0015001E0001A8102100F028FE32
:10782000DFF8D88498F82500002802D05FF0FF30F8
:107830006AE0002C02D15FF0FF3065E05FF00009E4
:1078400014E005AA514689B2484680B2FFF79FFF6F
:1078500000282CD1524692B205A9484680B2204455
:1078600000F026FE002825D11AEB09094846390008
:1078700080B289B288422BD2390089B2484680B2A0
:10788000091A112902DB5FF0100A01E0B7EB090ABF
:10789000484680B204EB0002514689B2484680B2A5
:1078A000FFF737FF0028CCD05FF0FF302CE05FF00F
:1078B000FF3029E01FFA8AFA1FFA89F904EB09015F
:1078C00001AC5246200000F027FE7FF001001BE0D3
:1078D000280080B2000A8DF800008DF801506B4638
:1078E0000222D8F80000817ED8F80400007800F069
:1078F00033FA002802D05FF0FF3005E0012088F85D
:107900002500A8F8266000200AB0BDE8F0871CB565
:10791000214C94F824100200D2B2914201D10020EF
:1079200038E0C0B2002822D094F82500002802D107
:107930005FF0FF302EE00020FEF779FC0020FFF71B
:10794000F7F9E08CFFF736F800208DF800006B4661
:10795000012223216068007800F0FEF9012084F8FC
:1079600024000120FEF763FCFEF702FE11E0002078
:10797000FEF75DFC207C8DF800006B460122232180
:107980006068007800F0E8F9002084F82400FEF731
:10799000EFFD002016BD0000845900207B14AE3E90
:1079A00080AB030080B588B002A905A8FFF718FED8
:1079B000032842D101A8FFF753F89DED050AB8EE60
:1079C000C00ADDED010A20EE200ABDEEC00A8DEDF1
:1079D000050A05A890ED010AB8EEC00ADDED010A1E
:1079E00020EE200ABDEEC00A80ED010A90ED020AE9
:1079F000B8EEC00ADDED010A20EE200ABDEEC00A95
:107A000080ED020A05A800F088FE6846FFF74AF8F4
:107A10000299BDF800004143029102A94A68BDF8ED
:107A2000000042434A608A68BDF8000042438A6011
:107A300002A800F00EFF002000E0012009B000BD08
:107A400038B50400200000F00EF80500E01C00F03E
:107A50000AF855EAC005A01D00F005F855EA8015A2
:107A6000280080B232BD90F90010012901DB00200E
:107A70001EE090F90010002901D5042018E090F9CB
:107A80000110012901DB012012E090F90110002909
:107A900001D505200CE090F90210012901DB02203C
:107AA00006E090F90200002801D5062000E007203A
:107AB00080B27047704780B5002001F067FCFEF788
:107AC00003FC002849D17820FFF753F8C0B2002802
:107AD00001D0012042E07820FFF710F8C0B2002862
:107AE00001D002203AE06420FEF764FFC0B2002813
:107AF00001D0032032E000F063FDC0B2002801D0C5
:107B000004202BE07E48FFF79BFF80B200F064FD6D
:107B1000C0B2002801D0052020E040F2731001F02F
:107B2000D7F8C0B2002801D0062017E0642000F08A
:107B300024FFC0B2002801D007200FE0FFF732FF7A
:107B4000C0B2002801D0082008E00120FFF7DFFEC6
:107B5000C0B2002801D0092000E0002002BD0000D2
:107B600070B52DED0A8B8CB004000E001500B7EE39
:107B7000000A9FED600A9FED5F0A9FED5E0A02A872
:107B800001900DF10A00009003AB04AA08A90AA80D
:107B900001F016FA002801D00120A6E0BDF90A0084
:107BA000C00540F1A1809DED040AB8EEC00ADFEDEA
:107BB000520A80EE20AA9DED050AB8EEC00ADFED5C
:107BC0004E0AC0EE20AA9DED060AB8EEC00ADFED0F
:107BD0004A0A80EE20BA9DED070AB8EEC00ADFED32
:107BE000460AC0EE20BA9FED479BB0EE00CAB8EE41
:107BF000008A2AEE880A20EE2B0A6AEE0C0A00EEB2
:107C00008B0A10EE100A01F0E7FC41EC100B01F0BA
:107C10000AFD53EC102B51EC190B01F013FD01F090
:107C2000E3FD20602AEE880A20EE2A0A6BEE0C0A99
:107C300000EECB0AF7EE000A30EE200A10EE100A32
:107C400001F0CAFC41EC110BB0EE418AF0EE618A02
:107C50002BEE0C0A20EE2B0A6AEE0C0A00EEAA0AA2
:107C600010EE100A01F0B8FC41EC100BB0EE481A0F
:107C7000F0EE681A01F0DDFC53EC102B51EC190BFF
:107C800001F0E0FC01F0B0FD30602AEE0A0A0AEED5
:107C9000AA0A0BEE4B0A0BEEEB0A10EE100A01F0EB
:107CA0009BFC41EC110BB0EE418AF0EE618A2AEEAA
:107CB0008B0A0AEE2B0A20EE0C0A10EE100A01F0D5
:107CC0008BFC41EC100BB0EE481AF0EE681A01F094
:107CD000B0FC53EC102B51EC190B01F0B3FC01F08C
:107CE00083FD2860002000E002200CB0BDEC0A8B70
:107CF00070BD0000000000000000804E845900208C
:107D0000B05900206666666666A64C4073B582B0C0
:107D1000040015001E0000200190012000900123A6
:107D2000012203A92000C0B201F0B1FAC0B20128BB
:107D300001D001200EE00023EDB22A0092B2310002
:107D40002000C0B201F0E3FAC0B2002801D1012046
:107D500000E0002004B070BD73B582B004001500CF
:107D60001E0000200190012000900123012203A9A0
:107D70002000C0B201F08BFAC0B2012801D001206E
:107D800012E000200190002000900023EDB22A00B4
:107D900092B231002000C0B201F079FAC0B20128DD
:107DA00001D0012000E0002004B070BD80B56B461A
:107DB000022241216820FFF7A9FF9DF800109DF8DD
:107DC000010050EA012000B201F042FD0022C04B48
:107DD00001F050FDBF4AC04B01F070FE01F004FD00
:107DE00000EE100ADFEDB90A20EE200ABDEEC00A4F
:107DF00010EE100A00B202BD7CB506000C001500A2
:107E00006B46062243216820FFF780FF0100C9B2BC
:107E1000002914D19DF800109DF8012052EA01229A
:107E200032809DF802109DF8032052EA0122228040
:107E30009DF804109DF8052052EA01222A80C0B264
:107E400076BD7CB506000C0015006B4606223B2172
:107E50006820FFF75BFF0100C9B2002914D19DF82B
:107E600000109DF8012052EA012232809DF8021094
:107E70009DF8032052EA012222809DF804109DF80B
:107E8000052052EA01222A80C0B276BD007802287D
:107E9000704780B58AB004A89049182200F04CFBC6
:107EA0008F4800904FF4807001908E4902910390AA
:107EB00007238D4A694604A801F06CFF0BB000BD92
:107EC00070B588B014002200D2B21D2A44DA002214
:107ED0006B462500EDB22B44DA7088228DF8002025
:107EE0006D4668708DF80240002008E00200D2B2B2
:107EF0008A5C6B460600F6B23344DA70401C02001E
:107F00002300D2B2DBB29A42F0D300210EE06846E1
:107F10002200D2B21044C2780800C0B2285C821895
:107F200068462300DBB21844C270491C0800C0B286
:107F30002200D2B2D21C9042E9DB002605E03000DC
:107F4000C0B2285C01F07AFF761C3000C0B221007C
:107F5000C9B2091D8842F2DB08B070BD2DE9F841B5
:107F600087B0002405E000256E462700FFB2F555D6
:107F7000641C2500EDB21C2DF5DBBDF94840BDF9B0
:107F80004450BDF94060BDF93C70BDF938E0804611
:107F90000FFA88F85FEA28288DF80080E84688F80C
:107FA0000100080000B200128DF802008DF80310E5
:107FB000100000B200128DF804008DF805201800A2
:107FC00000B200128DF806008DF80730704600B23E
:107FD000001288F808008DF809E0380000B200129D
:107FE0008DF80A008DF80B70300000B200128DF889
:107FF00012008DF81360280000B200128DF81400F2
:108000008DF81550200000B200128DF816008DF882
:1080100017401C226946AF20FFF752FF08B0BDE8A9
:10802000F081000018B58BB0012408AA09A90AA89C
:10803000FFF796FD0028F8D1FFF7B8FE0DF11A0200
:1080400007A90DF11E00FFF7FCFE05AA0DF11601B0
:1080500006A8FFF7D1FE2000C0B2002831D09FED66
:108060001B0ADDED080AB2EE041A60EE810AFDEE8D
:10807000E00A10EE900A00B20490DDED0A0A60EE0C
:10808000800AFDEEE00A10EE900A00B20390DDEDEA
:10809000090A20EE800ABDEEC00A10EE100A00B2F6
:1080A0000290BDF914000190BDF916000090BDF9D1
:1080B0001830BDF91A20BDF91C10BDF91E00FFF7DC
:1080C0004DFFC82002F014F8AFE700000000C842DE
:1080D00000407540A4703D0AD743424064B303009A
:1080E00010E6002010E700208D7E02000EB4C0B51F
:1080F000024603A800210190009101AB0121044830
:1081000078440C3002F002FC06BC5DF810FB00BFA6
:10811000A533010062F30F2262F31F42401810F0F2
:10812000030308D0C91A1FD3DB0748BF00F8012D8D
:1081300028BF20F8022D130030B41446154610391C
:1081400028BF20E93C00FAD8490728BF20E90C00E5
:1081500048BF40F8042D890028BF20F8022D48BFF1
:1081600000F8012D30BC7047C91818BF00F8012D68
:10817000CB0728BF00F8012D7047002848BF4042B8
:108180007047F0B40246106895681318506803EB06
:108190005004C0071DD54D441BE013F8017B05F8C2
:1081A000017B491EF9D1A0B1B60813F8011B06F0F6
:1081B0000306032E08BF13F8016B01EB06214942A9
:1081C000801C294405D011F8016B05F8016B401E95
:1081D000F9D1A3420ED013F8016B16F0030104BFCE
:1081E00013F8011BC91C30090F28DAD113F8010B51
:1081F0000F30D6E7F0BC02F10C00704713F0004CD2
:1082000003D55B42524263F100039CEA210C00F06B
:10821000178010B5644603D34942404261F1000122
:1082200000F00EF8640004D34942404261F10001BD
:10823000244203D55B42524263F1000310BD0000AB
:10824000BBBBE1B1B2F5803F80F07E80022A1ED92F
:108250008C46B1FBF2F102FB11C31B0443EA10434D
:10826000B3FBF2FC02FB1C3380B240EA0343B3FBD6
:10827000F2F002FB103240EA0C4000237047022A61
:1082800005D98446B0FBF2F002FB10C270474AB138
:1082900005D100F0010249085FEA30007047002272
:1082A0000023704702F09ABD0B000200002100205D
:1082B0007047904271EB030CF6D3B3F5803F2FD299
:1082C000F0B5B3FA83F7B1FA81F4A7F10F0E3D1BB5
:1082D0005340CEF1200602FA0EF2F3415340B5F1BD
:1082E0000F0746D80F3C2C444140C4F12006A04063
:1082F000F1414140B1FBF3F603FB1611A2FB064529
:10830000001BA94102D2761E8018594180EA010261
:1083100021FA0EF362FA0EF200215A403046F0BD07
:1083200030B4B1FBF3FC03FB1C11A2FB0C45001B9A
:10833000A94103D2ACF1010C8018594130BC02466E
:108340000B46604600217047B2F1807F65D3F0B5DF
:10835000B2FA82F7B1FA81F4C7F10F063D1B22FA97
:1083600006F307F1110EF24120355A40B5F10F071F
:10837000B8D94140C4F12006A040F1414140B1FBD1
:10838000F3FC03FB1C11A2FB0C45001BA94103D20B
:10839000BCF1010C801859410F2F12D30F3FC903B4
:1083A00041EA5041B1FBF3F603FB1611A2FB06456F
:1083B000D4EBC030A94102D2761E8018594146EA5A
:1083C000CC3C07B34140C7F12006B840F1414140E1
:1083D000B1FBF3F603FB1611A2FB0645001BA941F6
:1083E00002D2761E8018594180EA010221FA0EF36A
:1083F000C7F1200462FA0EF20CFA07F05A402CFA88
:1084000004F13043F0BD80EA010221FA0EF30021AD
:1084100062FA0EF260465A40F0BD8C46B1FBF2F1B2
:1084200002FB11C31B0243EA1063B3FBF2FC02FB25
:108430001C331B024CEA002043EA1063B3FBF2FC3E
:1084400002FB1C331B024CEA002043EA1063B3FB1F
:10845000F2FC02FB1C331B024CEA002043EA1063CF
:10846000B3FBF2FC02FB1C324CEA002000237047F5
:10847000002202F0B5BC30B4002513E050F8042B04
:10848000D30744BFA9F101039A18091F042942F830
:10849000045BFAD213468C0744BF15809B1CC907A6
:1084A00048BF1D7050F8041B0029E7D130BC70474D
:1084B0000300002013F0030F09D0521E22BF13F84F
:1084C000010B11F801CBB0EB0C00F3D0704711F0A9
:1084D000030F14D1121F22BF53F8040B51F804CB21
:1084E0006045F7D0121D0AD200BA9CFA8CFCB0EBA2
:1084F0000C0038BF6FF0000088BF01207047521E8B
:1085000022BF13F8010B11F801CBB0EB0C00F6D031
:10851000521C08BF1046704762B38B0708D0521E2A
:1085200011F8013B00F8013B00F024808B07F6D1E5
:10853000830740F0208000BF103A07D330B4B1E881
:108540003810103AA0E83810F9D230BC530724BFD5
:10855000B1E80810A0E8081044BF51F8043B40F807
:10856000043BD20724BF31F8022B20F8022B44BF72
:108570000B7803707047121F17D35B0009D151F8B5
:10858000043B20F8023B1B0C121F20F8023BF6D2E2
:108590000BE051F8043B00F8013B1B0A20F8023BBA
:1085A0001B0C121F00F8013BF3D238BF121D521EE4
:1085B00024BF11F8013B00F8013BF8D870470004D4
:1085C00080B5C823DFF8F40B0288DFF8F41B40F60F
:1085D000F630FFF71AF902BDF8B586B0040005A819
:1085E000DFF8E01B0A68026004A8DFF8DC1B0A68F9
:1085F000026003A8DFF8D41B0A68026002A8DFF853
:10860000D01B0A68026005A8210089B211F003019D
:10861000415C8DF8041001AD210089B2C1F3C101A4
:10862000415C6970210089B2C1F38111405CA8707E
:1086300004A8210089B211F00301415C8DF80010FB
:108640006E46210089B2C1F3C101415C7170210005
:1086500089B2C1F38111405CB07001AA032140F2DC
:108660002640FFF756F8002802D05FF0FF3052E0B6
:108670006A46032140F22A40FFF74BF8002802D057
:108680005FF0FF3047E0032203A901AF3800FFF796
:1086900043FF032202A96F463800FFF73DFF600742
:1086A0000BD59DF8040050F001008DF804009DF8F2
:1086B000000050F001008DF80000A00607D5687892
:1086C00050F001006870707850F001007070E005A3
:1086D00007D5A87850F00100A870B07850F00100DC
:1086E000B07001AA03214FF48860FFF712F8002848
:1086F00002D05FF0FF300EE06A46032140F23140C5
:10870000FFF707F8002802D05FF0FF3003E0DFF842
:10871000C40A0481002007B0F0BDF8B584B0DFF8CA
:10872000B42A117A11F0030150F821100191117A45
:10873000490704D5019B5FF0FF314B43019301AC26
:108740001189C1F3C10150F821106160117A8906C5
:1087500004D563685FF0FF314B4363601189C1F357
:10876000811150F82100A0601089C00504D5A168CE
:108770005FF0FF304143A160DFF85C2A0023019ED7
:10878000F717A2FB060102FB071103FB0611800F7E
:1087900040EA8100891701906668F717A2FB06017D
:1087A00002FB071103FB0611800F40EA81008917C5
:1087B0006060A068C117A2FB006702FB017703FBA2
:1087C0000077B60F46EA8706BF17A6600198001625
:1087D0008DF800006D460198001468700198001231
:1087E000A8700198E8706A4604214FF47470FEF78F
:1087F00090FF002802D05FF0FF3028E0606800168C
:108800008DF8000060680014687060680012A8703D
:108810006068E8706A4604214FF47570FEF779FFCE
:10882000002802D05FF0FF3011E0A06800168DF83C
:108830000000A06800146870A0680012A870A0680A
:10884000E8706A4604214FF47670FEF762FF05B0C7
:10885000F0BD78B587B004006846FEF723F9BDF88F
:1088600000200023DB0343EA5243D203DFF86419FC
:10887000087A10F0030054F820000490087A4007AA
:1088800004D5049D5FF0FF304543049504AE08898C
:10889000C0F3C10054F820007060087A800604D547
:1088A00075685FF0FF30454375600889C0F381103B
:1088B00054F82000B0600889C00504D5B1685FF0A5
:1088C000FF304143B160049CE517A2FB040102FBA9
:1088D000051103FB0411800F40EA81008917049001
:1088E0007468E517A2FB040102FB051103FB0411E8
:1088F000800F40EA810089177060B068C117A2FB41
:10890000004502FB015503FB0055A40F44EA850412
:10891000AD17B460049800168DF804000498001494
:108920008DF80500049800128DF8060001A804993E
:10893000C170716809160171716809148DF8091008
:10894000716809128DF80A1071688DF80B10B16802
:1089500009160172B06800148DF80D00B06800129D
:108960008DF80E00B0688DF80F0001AA0C214FF4AD
:108970002570FEF7CEFE08B070BD30B585B004009E
:1089800002A8DFF8581891E82C0080E82C0020009D
:1089900080B2C92802DB5FF0FF3026E0C82021004A
:1089A00089B290FBF1F0401E010089B2090A8DF8EE
:1089B00000108DF801006A46022140F21620FEF7F1
:1089C000A8FE002802D05FF0FF300EE002AA0C21C2
:1089D00040F6C120FEF79DFE002802D05FF0FF3078
:1089E00003E0DFF8F0078481002005B030BD00000F
:1089F00010B52DED028B82B0040014F0070F05D0E6
:108A0000080080B240F24162904202DB5FF0FF302A
:108A1000AEE089B200EE101AB8EE400ADFED560A59
:108A200080EE208A6846FDF7E4FE9DF800000228EB
:108A300006D004282DD008283AD0102847D055E079
:108A4000B0EE480ABFEE410A10EE100A9FED4B0A45
:108A500028EE000ABDEEC00A10EE101A020092B213
:108A6000120A8DF804208DF80500080080B2000A73
:108A70008DF806008DF80710E00746D501AA0221FF
:108A80004FF4EA70FEF745FE002832D05FF0FF3069
:108A90006EE0B0EE480ABFEE610A10EE100A9FEDDC
:108AA000380A28EE000ABDEEC00A10EE101AD5E70B
:108AB000B0EE480ABFEE420A10EE100A9FED310AEE
:108AC00028EE000ABDEEC00A10EE101AC6E7B0EE9E
:108AD000480ABFEE620A10EE100A9FED2B0A28EE3C
:108AE000000ABDEEC00A10EE101AB7E75FF0FF30C3
:108AF0003EE00DF1060202214FF49270FEF709FEEE
:108B0000002802D05FF0FF3032E0A00716D501AA9E
:108B100002214FF4EC70FEF7FCFD002802D05FF05C
:108B2000FF3025E00DF1060202214FF49470FEF7AC
:108B3000F0FD002802D05FF0FF3019E0600716D585
:108B400001AA02214FF4EE70FEF7E3FD002802D0E7
:108B50005FF0FF300CE00DF1060202214FF4967039
:108B6000FEF7D7FD002802D05FF0FF3000E00020C4
:108B700002B0BDEC028B10BD00004843000040462F
:108B80000000C045000040450000C04480B5002101
:108B90008DF80010C10705D59DF8001051F0300187
:108BA0008DF80010810705D59DF8001051F00C01DB
:108BB0008DF80010400705D59DF8000050F0030027
:108BC0008DF800006A4601214FF4A470FEF7A1FD64
:108BD00002BD80B50100C9B2002901D1012004E025
:108BE0000100C9B2052900DB0420401E8DF80000F9
:108BF0006A46012140F24F10FEF78BFD02BD80B5A1
:108C000080B2052190FBF1F0010089B2090A8DF8CC
:108C100000108DF801006A4602214FF4EF70FEF754
:108C200078FD02BD80B580B2052190FBF1F0010016
:108C300089B2090A8DF800108DF801006A460221F8
:108C40004FF4ED70FEF765FD02BD80B54FF47A720A
:108C500090FBF2F089B201FB00F1080000168DF8DC
:108C60000000080000148DF80100080000128DF8C3
:108C700002008DF803106A4604214FF4AE70FEF72F
:108C800048FD02BD80B580B2052190FBF1F00100E6
:108C900089B2090A8DF800108DF801006A46022198
:108CA0004FF4AD70FEF735FD02BD80B580B20521F1
:108CB00090FBF1F0010089B2090A8DF800108DF8DF
:108CC00001006A4602214FF4AC70FEF722FD02BD9E
:108CD0003EB5040002208DF800006D46CA20687081
:108CE000E320A8700920E8706A4604216820FEF796
:108CF00010FDA3208DF80000600606D5C020687026
:108D0000C820A870C220E87005E0A3206870A320E6
:108D1000A870A320E87014F4C07F06D0C420287186
:108D2000CC206871C620A87105E0A3202871A3207B
:108D30006871A320A871A320E871A3202872A32042
:108D400068726A460A2140F6A720FEF7E2FC20007E
:108D500010F0030F03D020208DF8000002E0D8208F
:108D60008DF800006A46012140F6B620FEF7D1FCDE
:108D7000A00603D5012000F097F802E0002000F0E3
:108D800093F814F4C07F1AD0E00509D5B2208DF80D
:108D900000008B206870B620A8709B20E87008E067
:108DA000B0208DF8000080206870B420A87090205A
:108DB000E8706A46042140F6A220FEF7AAFCE0070C
:108DC00025D5F8208DF800006A4601214FF40B608C
:108DD000FEF79FFCFA210720FFF70AFE0720FFF7A6
:108DE000D5FE0120FFF7F5FE6420FFF708FF4FF4E2
:108DF000FA70FFF717FFC821DFF8DC03FFF725FF44
:108E00002820FFF73FFF0A20FFF74FFF08E0D82098
:108E10008DF800006A4601214FF40B60FEF779FCE3
:108E2000A00703D5D9208DF8000002E0D8208DF8E6
:108E300000006A46012140F23D70FEF76AFC6007BF
:108E400003D5012000F050F802E0002000F04CF8BB
:108E5000E00603D5012000F067F802E0002000F0F2
:108E600063F8DFF8705354F008006881FDF780FB69
:108E70000020A873600602D5A87B801DA87314F497
:108E8000C07F02D0A87B801DA873200010F0140FB3
:108E900002D0A87B1030A87314F0030F02D0A87B77
:108EA000001DA87300203EBD10B586B0C0B20028DA
:108EB0000CD003A8CA4991E81C0080E81C0003AA52
:108EC00009214FF49760FEF724FC0BE06846C54982
:108ED00091E81C0080E81C006A4609214FF4976065
:108EE000FEF717FC06B010BD1CB5C0B200280CD0B0
:108EF000C0208DF80000C2208DF80100C4208DF83C
:108F00000200C6208DF8030005E004218B226C4688
:108F10002000FFF7FFF86A46042140F69820FEF78C
:108F2000F8FBFDF725FB16BD1CB5C0B200280CD020
:108F300020208DF8000028208DF8010030208DF8C9
:108F4000020038208DF8030005E00421A3226C46BE
:108F50002000FFF7DFF86A46042140F69E20FEF766
:108F6000D8FBFDF705FB16BD38B50500EC7814F00D
:108F7000C004E97811F03F016878C00712D50A00F3
:108F8000D2B2D208C9B2082091FBF0F300FB131152
:108F9000491C904B1868002804D0C9B21000C0B218
:108FA0001A6890476878000708D58A4948680028F9
:108FB00004D0E4B2A409200049688847002032BDEB
:108FC0002DE9F0478CB005000E0092461C00149F5E
:108FD000159A5FF0000800203880DFF8F8916946A4
:108FE00099F80E0080B2FDF73BFE002802D05FF03A
:108FF000FF30DFE099F80A0010F0140F6AD06946DC
:109000009DF800004A78120452EA0062887852EA19
:109010000022C8780243CAF8002008794A7912046D
:1090200052EA0062887952EA00229DF80700024362
:10903000CAF80420087A9DF80920120452EA006256
:10904000887A52EA00229DF80B000243CAF80820F1
:10905000087B9DF80D20120452EA0062887B52EAD8
:1090600000229DF80F000243CAF80C2018F11008E6
:10907000DAF800000014089008A9DAF804000014D7
:109080004860DAF8080000148860DAF80C00001470
:10909000C860089A089BD1F804C0486800FB0CFC23
:1090A00003FB02C28B68886800FB0322CB68C86898
:1090B00000FB0323B3F170634B48834206D3FDF7F3
:1090C00057FA002038805FF0FF3073E0388850F4A2
:1090D0008070388099F80A0040062BD568464146D2
:1090E000C9B2405C69464246D2B21144497851EA5D
:1090F0000021318068464146C9B2084480786946FB
:109100004246D2B21144C97851EA002171806846C2
:109110004146C9B20844007969464246D2B2114478
:10912000497951EA0021B18018F10608388850F0D9
:1091300008003880B9F80A0010F4C07F2BD06846C8
:109140004146C9B2405C69464246D2B211444978B0
:1091500051EA0021298068464146C9B20844807816
:1091600069464246D2B21144C97851EA0021698069
:1091700068464146C9B20844007969464246D2B2BF
:109180001144497951EA0021A98018F1060838886C
:1091900050F07000388099F80A0010F0030F05D0E5
:1091A00068465FFA88F84044FFF7DEFE2000FEF7CD
:1091B00081FC00200CB0BDE8F0870000BE850200F5
:1091C0003473030030BD030034BD030038BD030019
:1091D0003CBD0300E0EF002009E3CA0210BA03001F
:1091E0001CBA030028BA03000100000280B5002861
:1091F00006D0DFF8D42352F00102402148439047C3
:1092000001BD5FF0A04070472DE9F14181B00E0033
:1092100017009846089D099C01A8FFF7F2FFF6B2D7
:10922000FFB256EA47065FFA88F856EA8806EDB2BA
:1092300056EA0526E4B256EA0446019900EB81009D
:10924000C0F80067BDE8F38101B56846FFF7D9FFB4
:109250000121009A914000F014F801BD01B5684663
:10926000FFF7CFFF0121009A914000F00DF801BDFA
:1092700080B5002902D1FFF7F1FF01E0FFF7E4FF1D
:1092800001BDC0F808157047C0F80C1570472DE9EE
:10929000F04107000D0016001C0006980021002177
:1092A000C0B2002818D07F00DDF81C8001E0B8F1C2
:1092B000010800F0BEF83800C0B200F085F80100E7
:1092C000C9B2002903D14146C9B20029EFD1C0B2C9
:1092D000002801D1002018E0002700E07F1C3800A2
:1092E000310080B289B2884209D2380080B2285C4D
:1092F00000F06AF8C0B20028F0D1002005E0E4B226
:10930000002C01D100F0B1F80120BDE8F0812DE979
:10931000F04106000C001700984600250020380098
:1093200080B2002801D100202EE0760056F0010620
:1093300001E0B8F1010800F07CF83000C0B200F0A4
:1093400043F80100C9B2002903D14146C9B200293E
:10935000EFD1C0B2002801D1002015E07E1E300000
:1093600080B2002801D0012000E00020C0B200F04F
:10937000F9F8290089B260546D1C3000461E80B295
:109380000028ECD12800C0B2BDE8F081E0B5002093
:109390000190062000900323012201211A20FFF7EB
:1093A00033FF0020019000200090032301220121BF
:1093B0001B20FFF729FF01211A20FFF759FF012188
:1093C0001B20FFF755FF07BD70B5040000200F20DC
:1093D0007E490860002524E07D48016831F0006185
:1093E00001600AE02000C0B2C009C0B20028F3D07A
:1093F0007748016851F00061016064000520FFF7C3
:10940000F5FE734E306850F0806030600520FFF745
:10941000EDFE306830F0806030600520FFF7E6FE3A
:109420006D1C2800C0B20828DCDB00F03AF870BDE3
:10943000000010B50F2065490860654C206850F0A9
:1094400080602060206850F0006020600520FFF7F9
:10945000CDFE206830F0006020600520FFF7C6FEDA
:10946000206830F08060206010BD10B50F20574993
:109470000860574C206830F080602060206830F031
:10948000006020600520FFF7B1FE206850F080608A
:109490002060206850F0006020600520FFF7A6FEE5
:1094A00010BD38B500244A4D286850F0006028608F
:1094B0000C20464908600520FFF798FE286850F008
:1094C000806028600520FFF791FE42480068C0F3E5
:1094D000C060002808D0641C2000C0B2FB28F4DB68
:1094E000FFF7C3FF002004E0286830F080602860A8
:1094F000012032BD10B5364C206830F0806020600D
:109500000F2032490860206830F00060206005209C
:10951000FFF76CFE206850F0806020600520FFF7A8
:1095200065FE206830F08060206010BD10B5284CCA
:10953000206830F0806020600F2024490860206897
:1095400050F0006020600520FFF750FE206850F0CA
:10955000806020600520FFF749FE206830F08060C1
:10956000206010BDF8B5040000250C2017490860E4
:10957000002617E0164F386830F08060386005200C
:10958000FFF734FE386850F0806038606D00114895
:109590000068C0F3C060002800D06D1C0520FFF7F4
:1095A00025FE761C3000C0B20828E3DBE4B2002CB4
:1095B00002D0FFF79FFF03E0FFF7B8FFFFF755FF6B
:1095C0002800C0B2F2BD0000F0BC03006C070050E0
:1095D0000405005010050050C0F3C75181B1FF29A8
:1095E00006D0C110400721F0E04101F16051704701
:1095F00041020CBF40F4E0016FF0004100207047D1
:1096000000F0004100020AD0B0FA80FC00FA0CF031
:1096100001F16051A1EB0C5101EBD02140057047E5
:1096200041EC100B01BD80B551EC100B01F0F2FBC9
:10963000F6E780B553EC112B51EC100B01F060FCF8
:10964000EEE7FEE7B0B581EA030C0CF0004C40F207
:10965000FF7515EA11541DBF15EA1357AC42AF420E
:1096600039E0E41923EA455343F48013C90241F079
:10967000004141EA505EC7021100A7FB0202002828
:109680004FF00000EEFB01204FF00001E3FB07214B
:1096900018BF42F00102401800214941E3FB0E01CE
:1096A000A4F580640F0302D252004041494154F1B5
:1096B00001046CDD470872F1004250F1000051EBEB
:1096C0000451A1F580115CBF41EA0C01B0BD4CEA28
:1096D00005510020B0BD05EA1357AC4214BFAF429C
:1096E00041E050EA410E1CBF52EA430E02E06146DF
:1096F0000020B0BD24423C441BD15FEA070EF6D0E7
:10970000090302BF01460020AEF1140EB1FA81F741
:10971000AEEB070401FA07FE0C37C7F1200100FA8F
:1097200007F7C8404EEA000E23EA455343F480137E
:10973000A2E733F00043B3FA83F704BFB2FA82FE24
:1097400077440B3FE41BB7F1200E2FBF02FA0EF354
:10975000BB40C7F1200E22FA0EFE38BF43EA0E03CB
:10976000BA40641C82E750EA410E14BF52EA430E2D
:109770006FF000014FF4001717EB430F8ABF194633
:1097800017EB410FB5E74CEA05510020B0BDD4F10D
:109790000104B4F120070FDAC4F12007520828BFF2
:1097A00042F0010210FA07F501FA07F7E1BF2A4378
:1097B000E0403843E1400FE0352C98DCC7F120044D
:1097C00052EA400220FA07F218BF42F0010231FAD1
:1097D00007F0A1400A43002172F1004250F100005D
:1097E00051EB0C01B0BDFEE701F000428B1AA3F172
:1097F0006051B1F5801F0ADBB1F17F6F1FD242EAE1
:10980000C102C10071F1004142EB507070470B156D
:10981000C3F10903212B10D2890241EA9051800241
:109820000128494141F0004121FA03F0C3F120032E
:10983000994071F1004150417047100070476FF03E
:10984000000013EB103F5CBF000E42EAC0507047AF
:10985000C11768B14840401AB0FA80F29040D21C5B
:10986000C907C2F5846241EA025202EBD0214005E9
:109870007047FEE7F0B540F2FF7581EA030C0CF08B
:10988000004C15EA11541DBF15EA1357AC42AF4204
:10989000E5E0BC41C1F31301C3F31303801A9941FE
:1098A00043F4801304D2641E40004941801859419A
:1098B000C90241EA5051B1FBF3F603FB1611A2FBBA
:1098C0000675D7EBC020A94102D2761E80185941F7
:1098D000C90241EA5051B1FBF3FE03FB1E11A2FB8A
:1098E0000E75D7EBC020A94103D2AEF1010E80184E
:1098F0005941890241EA9051760546EA8E2EB1FB24
:10990000F3F603FB1611A2FB0675D7EB8020A941E5
:1099100002D2761E80185941C90241EA50514EEADE
:10992000060EB1FBF3F603FB1611A2FB0675D7EB8F
:10993000C020A94102D2761E80185941C90241EACD
:109940005051B1FBF3F703FB1711A2FB0735D3EB23
:10995000C020A94167F100070CBF004247F0010792
:1099600066F3D5274FEA1E31B80814F5806412DD7E
:10997000BD0775F1004250EB0E5051EB045111F54B
:10998000801F5CBF41EA0C01F0BD4CF07F6141F0EB
:10999000E0410020F0BDBD076D0840EA0E5041F4E3
:1099A0008011D4F10104B4F120060ADAC4F12006D2
:1099B0000200E04001FA06F3E1401843B2401543CB
:1099C0000EE0342C13DCC6F1200445EA40056D0896
:1099D00020FA06F2154321FA06F0A1400D430021BA
:1099E00075F1004250F1000051EB0C01F0BD002078
:1099F0005FEA0C01F0BDCFB992185B41B3FA83F76F
:109A000004BFB2FA82F6BF190B3FB7F120062FBF91
:109A100002FA06F3BB40C7F1200622FA06F638BF69
:109A20003343BA401CB1E419641E33E77F4231F07E
:109A30000041B1FA81F404BFB0FA80F6A4190B3CDE
:109A4000B4F120062FBF00FA06F1A140C4F12006B0
:109A500020FA06F638BF3143A0403C1B1AE7AC425F
:109A60001ABF05EA1357AF4212E050EA41061CBF85
:109A700052EA4306BFE750EA4107304661461CBF41
:109A800041EA0551F0BD52EA430C08BFC143F0BDA5
:109A900000204FF4001616EB410F98BF16EB430F52
:109AA00008BF16EB410F24BFC14305E016EB430F7F
:109AB0000CBF61464CEA0551F0BDFEE770B44FF0B3
:109AC000004591EA030F41F1C1826B40841A71EBAA
:109AD000030604D26E40001BB141121973414FF4CA
:109AE000001C1CEB410F34BF7CEB430683E00C0DE4
:109AF000A4EB1356362E00F37C80012E45EAC323D7
:109B000041DC43EA525312BFD20292025B082405A1
:109B100045EAC12141EA5051D2EBC020994125D4F8
:109B200007D1B0FA80F610FA06F162D00020203694
:109B300008E0B1FA81F6B140C6F1200220FA02F243
:109B40001143B0404FEAF474B4EB465434F00106CC
:109B50004FEA74040AD8D6F50016760D04F00044D6
:109B6000F04061FA06F25040F1404840C00A40EA35
:109B7000415021F0004128BF5FEA500550F100003C
:109B800044EBD12135E0DB0A45EAC121C90AB6F12F
:109B900020050EDD42EA0242120CC5F1200603FA4E
:109BA00006F6EB4042EA06056D42984161F100017C
:109BB0000DE062FA06F5F240554063FA06FC82EACF
:109BC0000C02F3405A406D42904161EB030111F4E5
:109BD000801F05D1641E620502D06D0040414941DD
:109BE00021F48011430875F1004350F1000041EB6E
:109BF000045170BC70471CEB410F15D223F0004399
:109C000052EA43060BD04FEA4C0CBCEB410F04D890
:109C10000C0D661E342EB7DDEBE7801A994150EA31
:109C2000410608BF0021E4E708BF1CEB430F28BF33
:109C30006FF00001DDE7FEE738B500238F4D0478B3
:109C40002C5D002C05D0D2B2001D01F0EEFB03000C
:109C500008E004782C5D002C04D1D2B20C3001F065
:109C60004AFF0300180032BD80B50021834B027803
:109C70009A5C002A04D0001D01F02FFC010007E0CF
:109C800002789A5C002A03D10C3001F075FF0100C4
:109C90000800C0B202BD38B50023784D04782C5DB1
:109CA000002C05D0D2B2001D01F026FC030008E014
:109CB00004782C5D002C04D1D2B20C3001F09AFF54
:109CC0000300180032BD01008868C968081A70478F
:109CD0001CB50178002947D0022936D059D2017A23
:109CE000002905D1012266496648FFF7D4FF50E0FC
:109CF000654C40680178200002F046F9002808D041
:109D000001218DF800100190684660490968884774
:109D10000BE02000FFF7D7FF002806D000208DF8C9
:109D2000000068465949096888472000FFF7CBFFC3
:109D3000A188814205D3012251495248FFF7ABFF68
:109D400002E001205249087023E002218DF8001042
:109D5000C068019001224A494A48FFF79CFF6846C3
:109D60004A490968884714E04A4C21004A4802F0F1
:109D70001DF9002805D1012221004248FFF75CFFB0
:109D800006E003208DF800006846404909688847CE
:109D9000FFE713BD70B588B005000C001E003B48FE
:109DA0000260002C01D1072046E0626892B221686F
:109DB000354802F0CDF800283ED1E26892B2A168A1
:109DC000354802F0C5F8002836D1684633492022CC
:109DD000FEF7B2FB68690690287C002801D10020BC
:109DE00000E001208DF814008DF81C60687C0028CC
:109DF00001D00E2000E000208DF81500E8680290E8
:109E0000A868039028680190686800901D4C244A57
:109E10006946200002F006F900280DD100201C49F7
:109E20000870286810F1010F05D0012214492000A4
:109E3000FFF731FF00E0002008B070BDF8B5010069
:109E4000154DC9B2280002F09FF80400002C12D171
:109E50000C4E3000FFF708FF00280CD10D4F3900E1
:109E6000280002F0A3F8002805D1012239003000B3
:109E7000FFF7E2FE04002000F2BD0000A9F100207F
:109E80009DF100206859002090EF0020D0F00020C4
:109E90009EF100209CF10020A0EF0020B0AE030056
:109EA000D19C0200EFF31180402181F311887047AB
:109EB0002DE9F84384B006000F00914698464846C5
:109EC00080B2800002F0ECF80500002D0BD0542089
:109ED00002F0E6F80400002C01D0256304E028001D
:109EE00002F04AF900E00024002C13D00D990C98E0
:109EF0000022039202940191009043461FFA89F9CF
:109F00004A463900300000F00AF8200000F05AF804
:109F1000012001E05FF0FF3005B0BDE8F0832DE9DE
:109F2000F84306000C0090461D000A9F5FEA880176
:109F3000A522D7F830904846FEF7ECF8386B00EBD6
:109F40008800B0F104085FEAD8085FEAC808002179
:109F500000E0491C102907D2605C07EB010282F87F
:109F60003400605C0028F4D1DDF82090002087F8F0
:109F70004300B9F1060F01D35FF00509099CC7F84A
:109F80002C90C7F844900020B864381D02F095F971
:109F900017F1180002F091F93F61D9F10609C7F8ED
:109FA00018907F620020F864002087F850002A0093
:109FB0003100404602F0D0F93860002C00D0276014
:109FC000BDE8F18338B5040002F0F9F9DFF8B41602
:109FD0000868401C0860DFF8E8562868002806D1A9
:109FE0002C60086801280DD100F00AFB0AE0DFF8B8
:109FF000D4060068002805D1E06A2968C96A884249
:10A0000000D32C60DFF8E0060168491C0160DFF82E
:10A01000DC060168E26A914201D2E16A0160211D19
:10A02000DFF83427E36A1420434302EB030002F015
:10A0300047F902F0CCF9DFF88C06006800280ED052
:10A040002868C06AE16A884209D25FF08050DFF870
:10A050008817086040BFBFF34F8FBFF36F8F31BDCC
:10A0600038B5040002F0ABF9002C03D1DFF850063C
:10A070000468FFE7201D02F04AF9A06A002803D017
:10A0800014F1180002F043F9DFF85C060168491C7E
:10A090000160DFF82C56286884420AD1211DDFF8C0
:10A0A000500602F00DF9DFF84C060168491C01600A
:10A0B00009E0DFF8D0050168491E0160200000F0CA
:10A0C000E3FA00F0EAFA02F082F9DFF8F805006836
:10A0D00000280CD02868844209D15FF08050DFF856
:10A0E000F816086040BFBFF34F8FBFF36F8F31BDCD
:10A0F00010B504000020002C07D000F0CFF800219C
:10A10000200000F0B5FB00F0CFF8002809D15FF087
:10A110008050DFF8C816086040BFBFF34F8FBFF311
:10A120006F8F10BD70B5040002F049F9002C03D107
:10A13000DFF88C050468FFE7201D02F0E8F8A06A4C
:10A14000002803D014F1180002F0E1F8DFF81456EB
:10A15000211D280002F0B4F894F85000012802D123
:10A16000002084F8500002F032F9DFF858653068BA
:10A17000002805D002F023F900F08FFA02F027F949
:10A18000DFF83C150868844218D1306800280AD0EE
:10A190005FF08050DFF84016086040BFBFF34F8F7C
:10A1A000BFF36F8F0AE02868DFF8D8241268904266
:10A1B00002D10020086001E000F04DF970BD0100FF
:10A1C00000204A69DFF89C359A4208D18A6ADFF894
:10A1D000FC369A4203D0896A002900D101207047D9
:10A1E00038B50400002C31D0DFF8D45428688442FC
:10A1F0002CD002F0E4F82000FFF7E1FF002823D084
:10A20000201D02F084F8DFF8E4040168E26A91425C
:10A2100001D2E16A0160211DDFF83C25E36A1420C8
:10A22000434302EB030002F04BF8E06A2968C96A75
:10A23000884209D35FF08050DFF8A015086040BF66
:10A24000BFF34F8FBFF36F8F02F0C1F831BDE0B5A0
:10A25000DFF8100601900020009000233C22DFF878
:10A2600008160FF27530FFF723FE012801D102F026
:10A27000CFF8012811D1402080F311885FF0FF3022
:10A28000DFF8E81508600120DFF8381408600020C6
:10A29000DFF83C16086002F075F807BDDFF83806F5
:10A2A0000168491C0160704770B50024002502F068
:10A2B00086F8DFF82C050168491E01600068002857
:10A2C00056D1DFF8C0030068002826D150E0C868E6
:10A2D000C46814F1180002F01AF8201D02F017F8F3
:10A2E000DFF808040168E26A914201D2E16A016084
:10A2F000211DDFF86424E36A1420434302EB0300CA
:10A3000001F0DEFFE06ADFF8B8130968C96A884225
:10A3100003D30120DFF8C4150860DFF8B015086822
:10A320000028D4D1002C01D000F0B7F9DFF8B065D7
:10A330003468002C0CD000F028F8002803D001204D
:10A34000DFF898150860641E002CF4D100203060FE
:10A35000DFF88805006800280AD001255FF08050EA
:10A36000DFF87814086040BFBFF34F8FBFF36F8FE3
:10A3700002F02DF8280070BDDFF854050068704722
:10A380000020DFF84C0500687047F8B50025DFF8BD
:10A3900050040068002851D1DFF8B8030468641C39
:10A3A0000460002C0ED1DFF8B4030168DFF8B0239D
:10A3B000136803601160DFF830050168491C016013
:10A3C00000F06BF9DFF8A464306884423BD323E0EB
:10A3D000381D01F09CFFB86A002803D017F118005F
:10A3E00001F095FFDFF804030168FA6A914201D297
:10A3F000F96A0160391DDFF86023FB6A14204343CA
:10A4000002EB030001F05CFFF86ADFF8B4120968A0
:10A41000C96A884200D30125DFF840130868006844
:10A42000002807D00868C068C76878688442CFD21F
:10A43000306008E05FF0FF30306004E0DFF8A00437
:10A440000168491C0160DFF894040068002800D00E
:10A4500001252800F2BD10B4DFF88403006800284D
:10A4600004D00120DFF87414086023E00020DFF836
:10A470006C1408609D490A6800E0521E1423DFF83E
:10A48000D84203FB02F020580028F6D003FB02F369
:10A4900004EB030043685B684360436810F1080401
:10A4A000A34202D143685B6843604068C068844B44
:10A4B00018600A6010BC704710B50C00DFF8241457
:10A4C0000968183101F008FF0121200000F0D0F9DF
:10A4D00010BD38B50D001400DFF8081409681831F4
:10A4E00001F0EEFE002C01D05FF0FF3521002800C6
:10A4F00000F0BEF931BD10B5C068C46814F1180091
:10A5000001F005FFDFF8D8020068002814D1201DF3
:10A5100001F0FDFE75480168E26A914201D2E16AEC
:10A520000160211DDFF83022E36A1420434302EB6F
:10A53000030001F0C5FE05E014F11801DFF88C03FB
:10A5400001F0BEFE5E480068C06AE16A884205D23A
:10A5500001200121DFF88423116000E0002010BDFC
:10A56000DFF8841309680160DFF86413096841604B
:10A57000704738B504000D0001F021FF75480068F0
:10A580006168411A2A6812F1010F01D1002418E014
:10A59000DFF85423126823689A4204D0626890421C
:10A5A00001D301240DE02868814207D22868411AAE
:10A5B00029602000FFF7D4FF002402E0002028607B
:10A5C000012401F004FF200032BD0120DFF80C134C
:10A5D000086070470000000080B500F038F85E4861
:10A5E0000068022809D35FF08050DFF8F01108609E
:10A5F00040BFBFF34F8FBFF36F8F02F0FEF8ECE761
:10A6000038B5002407E05448142101FB04F1084444
:10A6100001F044FE641C062CF5D3DFF8D042200084
:10A6200001F03CFEDFF8C852280001F037FEDFF8E9
:10A630009C0201F033FE2E4801F030FE494801F043
:10A640002DFE46480460DFF8AC02056031BD38B528
:10A6500013E001F0B4FE2648C068C468201D01F074
:10A6600056FE08480168491E01602868401E28609F
:10A6700001F0ADFE200000F007F81E4D286800280C
:10A68000E7D131BD50F1002010B50400206B01F07E
:10A6900073FD200001F070FD10BD304908680068AE
:10A6A000002805D15FF0FF30DFF8C011086006E038
:10A6B0000868C068C0684068DFF8B011086070477B
:10A6C00040F100205CF10020DFF80802006800285B
:10A6D00001D1012007E0DFF800020068002801D165
:10A6E000022000E0002070476CF1002058F10020AB
:10A6F00040EF00204CF1002010B50400002100289C
:10A7000025D0A06C401EA064E06A626C90421ED00E
:10A71000A06C00281BD1201D01F0F9FD606CE062E7
:10A72000E06AD0F10600A061DFF8CC010168E26ABE
:10A73000914201D2E16A0160211DDFF8C021E36A84
:10A740001420434302EB030001F0BAFD012108008D
:10A7500010BD000054F1002024EC002044F1002042
:10A7600048F1002054EF002070B504000D0001F006
:10A7700026FEDFF870613068C06C002812D101201D
:10A78000316881F85000002D0CD00121280000F024
:10A790006FF85FF080501149086040BFBFF34F8FE2
:10A7A000BFF36F8F01F013FE01F009FE3068C56C36
:10A7B000002D08D0002C03D000203168C86402E0CE
:10A7C000681E3168C8640020316881F8500001F0CB
:10A7D000FEFD280070BD000004ED00E004ED00E087
:10A7E00078F1002070B506000C00FFF75BFB050058
:10A7F00096F85000022186F85010F16C491CF16463
:10A80000C0B201282AD134480068002813D1301D75
:10A8100001F07DFD38480168F26A914201D2F16A87
:10A820000160311D354AF36A1420434302EB0300F3
:10A8300001F046FD04E016F11801244801F040FD46
:10A8400028480068C06AF16A884207D2002C02D00A
:10A850000120206002E001202049086085F3118872
:10A8600070BD000074F10020D8BC030070F100201E
:10A87000F8B505000C00164806681A4F3868001D28
:10A8800001F045FD15F1010F07D1002C05D0386806
:10A89000011D1B4801F014FD16E0AD193868456034
:10A8A000B54206D23868011D1248006801F014FD57
:10A8B0000AE03868011D1348006801F00DFD1248D8
:10A8C00001688D4200D20560F1BD00002CEF002030
:10A8D00054F100205CF1002078F1002064F10020A8
:10A8E00060F1002040F1002068F1002004EF00201A
:10A8F00018EF002048F1002058F1002024EC00203F
:10A9000054EF002044F1002070F100202DE9F84FB1
:10A9100092B01546029100211C9ADFF804828DF84E
:10A920002F2081469A4608910FF28C464FF0FF3750
:10A930000CE025280FD015F8011B0298C847002805
:10A94000029000F0D7800898401C089028780028D2
:10A95000EFD10898E6E00020002100220590069142
:10A96000079201E041F0010115F8010F2028F9D00C
:10A9700023280CD02B2804D02D2805D0302809D02E
:10A98000BAE041F00201EFE741F00401ECE741F0E9
:10A990000801E9E741F01001E6E70A9209E00A98A8
:10A9A000404505DA00EB800402EB4402303A0A929B
:10A9B0006D1C2A78A2F130000A28F0D328782E28BE
:10A9C00018BF099725D115F8010F2A280AD1DAF8FE
:10A9D0000000CAF800006D1C50F8042BCAF80000F3
:10A9E000099216E02D280CBF6D1C00200022099250
:10A9F0000AE040B9099A424505DA02EB820403EB0A
:10AA00004403303B09936D1C2B78A3F130020A2AD2
:10AA1000EFD3ADF82C103046297802F015FA08B1C2
:10AA200015F8010B8DF82E009DF82E00682804BF44
:10AA30002978682903D162208DF82E006D1C0CA89E
:10AA40000490524615F8013B01A9484600F098F8D9
:10AA500000284FD10A980599079A069C401A801A37
:10AA6000041B9DF82C0041070FD42020002C8DF8EA
:10AA700000000ADDA34601236A4601A9484600F00A
:10AA800084F9B8BBBBF1010BF5D1059B0CAA01A958
:10AA9000484600F07AF968BBDDF81CB03020BBF105
:10AAA000000F8DF8000009DD01236A4601A9484620
:10AAB00000F06BF9F0B9BBF1010BF5D1069B039ADD
:10AAC00001A9484600F061F9A0B99DF82C004107A2
:10AAD0007FF53CAF2020002C8DF800007FF736AFCB
:10AAE00001236A4601A9484600F04FF910B9641ED7
:10AAF000F6D12BE7384615E02A287FF44EAFDAF876
:10AB00000020CAF8002052F8040BCAF800200028E0
:10AB10000A9003D540420A9041F004016D1C4DE7B4
:10AB2000CBCCCC0C13B0BDE8F08F62280ED06828D7
:10AB300019D1002A0A680A60106803D0121D0A6041
:10AB400000B217E0121D0A6080B217E0002A0A68FE
:10AB50000A60106803D0121D0A6040B20AE0121D9C
:10AB60000A60C0B20AE0002A0A680A60106803D0CE
:10AB7000121D0A60C1177047121D0A60002170473C
:10AB800070B51C460D46252CEE68114600F08480F9
:10AB9000582C37D0632C0ED0642C18BF692C14D0DD
:10ABA0006F2C2FD0702C49D0732C53D0752C18BF1C
:10ABB000782C27D076E02869421C2A610A680A604E
:10ABC00052F8043B0A60335476E095F82A000122DB
:10ABD000FFF7ABFF0028286004D52869411C2961D4
:10ABE0002D220DE0288D810704D52869411C29619B
:10ABF0002B2205E0C0071CD52869411C29612022B1
:10AC0000325416E095F82A000022FFF78EFF2860E4
:10AC100095F8280001070CD5286850B144F02001B0
:10AC2000782906D1286930213154401C421C2A6100
:10AC30003454214628693044A86007E00868086059
:10AC400050F8042B08602A60AE607821284600F096
:10AC500035F831E00868086050F8044B0860AC60D3
:10AC60003CB900BF56A002F0FBF84FF0FF34201AA9
:10AC700070BD2E6A002E04D5204602F011F904465C
:10AC800008E032460021204602F026F9002814BFD1
:10AC9000041B34466C610FE02869411C29612522A0
:10ACA000325409E02969481C286125227254210088
:10ACB00002D0431C2B613454002070BDF0B4024616
:10ACC0006F29D46808BF082605D041F020007828F5
:10ACD00014BF0A26102618251368642918BF69298D
:10ACE000184602D1002B48BF4042F0B9136AE3B9BD
:10ACF000082E39D192F82800010735D530201725C4
:10AD0000E07531E000280ED592F8280000F014001C
:10AD1000102808D1546A11699069641A241AE31A38
:10AD2000012BA8BF9361F0BC7047B0FBF6F706FBA0
:10AD3000170030306D1EC3B23A2BA4BFA1F15103EE
:10AD400018186055380003D093686719BB42ECD3DC
:10AD5000082E09D192F82800010705D5605D30283A
:10AD600002D06D1E30206055C5F11803106A536182
:10AD7000611983429160C5DA118DC31A4FF6EF70E5
:10AD8000014093611185F0BC7047F8B505460E4649
:10AD900017461C46002074B117F8011B7068A847BD
:10ADA000706030B1F069401CF0610020641EF3D186
:10ADB000F2BD4FF0FF30F2BD686C747A4C000000B9
:10ADC0007072696E74665F733A20626164202573E5
:10ADD00020617267756D656E740000007047FEE754
:10ADE00000B500BF130096469446103928BFA0E86E
:10ADF0000C50FAD85FEA417C28BF0CC048BF40F82D
:10AE0000042BC90728BF20F8022B48BF00F8012BEC
:10AE100000BDFEE7D0B52DED048B41EC180B4800CA
:10AE20004015401C01D1090317D151EC180B20F03B
:10AE3000000231F0004308BF002A0ED0C80F1ABF2D
:10AE400043EC182B0824002451EC180B00224FF07F
:10AE5000795302F06DF805D234BB51EC180BBDEC00
:10AE6000048BD0BD9FED229B51EC190B53EC182B9A
:10AE700000F0E4F806460F4653EC182B51EC190B82
:10AE8000FEF71CFE32463B46FEF7DCFB02F068F89C
:10AE900041EC190B51EC180B174A184B02F048F80B
:10AEA00007D253EC192B0FE081F0004141EC180B55
:10AEB000D3E701220D4B02F03BF80ED284F00204DE
:10AEC00051EC190B53EC182BFEF7D4FCBDEC048BA2
:10AED0002246BDE8D04002F0BDB8AFF30080BDEC23
:10AEE000048B4FF0FF306FF00041D0BD0000F03F09
:10AEF000000000000000F03FCE3B7F669EA0E63FD2
:10AF000010B52DED048B41EC180B43EC192B51ECD3
:10AF1000190B48004015401C3AD051EC180B480062
:10AF20004015401C34D0C80F08D021F0004053EC2D
:10AF3000182B034643EC182B082400E0002451ECA6
:10AF4000190BC80F08D021F0004053EC192B034611
:10AF500043EC192B84F0060451EC190B53EC182B1D
:10AF600001F0E6FF04D2FEF785FC41EC100B4EE049
:10AF700031F0004104BF00289FED2C0B49D051EC6B
:10AF8000180B53EC192BFEF775FC41EC100B40E04D
:10AF900051EC180B48004015401C04D1090318BFA0
:10AFA00051EC180B3ED151EC190B48004015401CD8
:10AFB00004D1090318BF51EC190B33D151EC190B13
:10AFC00048004015401C0CD109030AD151EC180B64
:10AFD00048004015401C04D1090308BF9FED150B24
:10AFE00001D09FED120B51EC180BC80F14BF0824B1
:10AFF000002451EC190BC80F18BF84F0060451EC63
:10B00000180B48004015401C03D1090301D184F0FE
:10B010000204BDEC048B2246BDE8104051EC100B3D
:10B0200002F018B8BDEC048B10BD00BF000000009A
:10B0300000000000000000000000F03F70B44FF07E
:10B04000004591EA030F7EF541AD6B40841A71EB28
:10B05000030603D2001BB141121973414FF4001CC7
:10B060001CEB410F34BF7CEB430442E00C0DA4EB1E
:10B070001356352E4FDC45EAC323DB0A45EAC121CE
:10B08000C912B6F120050DDD63FA05F6EB4086EA3C
:10B090000305124218BF45F00105C01851F1000127
:10B0A0000CD213E062FA06F5F2405540F3415A40E3
:10B0B000B340F3405A408018594107D349085FEA2A
:10B0C00030005FEA350528BF45F0010501F5801124
:10B0D000420875F1004250F1000041EB04514E006E
:10B0E00016F5001F70BC38BF70470020090D090518
:10B0F00070471CEB410F10D252EA43060BD0BCEB59
:10B10000410F05D80C0DAB43661E342EB6DD02E0B0
:10B11000AB438018594170BC704770BC7047FEE764
:10B12000010049B2002909D4012210F01F018A4010
:10B13000DFF8841640B2400941F820207047020031
:10B1400052B2002A05D44901DFF8702640B21154EA
:10B1500008E04901DFF8682640B210F00F00104403
:10B1600000F8041C704710F06040B0F1005F01D19E
:10B17000012000E00020C0B27047000B40B27047D1
:10B1800080B5C9B240B2FFF7DAFF01BD80B540B269
:10B19000FFF7C6FF01BD81B000220B001BB2C250F9
:10B1A00009B240580090009801B0704709B2405869
:10B1B000002801D0012000E00020C0B27047D0F884
:10B1C00000221143C0F800127047D0F8002232EA82
:10B1D0000101C0F800127047C0F804137047C0F8AE
:10B1E000081370470100D1F88004C1F8800470474B
:10B1F0000821C0F800157047C0F80C15C0F81425D8
:10B200007047C0F80815C0F8102570470122C9B270
:10B2100042507047C9B2D2B21143C0F86C157047A2
:10B22000C0F824157047C0F84415C0F84825704789
:10B23000D0F84C057047C0F83415C0F83825704771
:10B24000D0F83C0570475FF0A04070472DE9F14110
:10B2500081B00E0017009846089D099C01A8FFF7D1
:10B26000F2FFF6B2FFB256EA47065FFA88F856EAEE
:10B270008806EDB256EA0526E4B256EA044601997C
:10B2800000EB8100C0F80067BDE8F381E0B5002164
:10B29000019100210091002301220121FFF7D6FF37
:10B2A00007BDE0B50B000021019100210091DBB248
:10B2B00000220021FFF7CAFF07BD01B56846FFF76E
:10B2C000C2FF0121009A914000F001F801BDC0F8D1
:10B2D0000815704738B504000D00286810F1010FFB
:10B2E00005D02868FFF7E9FF2868FFF7CFFF6868F7
:10B2F00010F1010F03D000216868FFF7D2FFA969A0
:10B300002068FFF78DFF2A7D697D2068FFF782FFA7
:10B310006A6829682068FFF76FFF287D012816D129
:10B32000A86810F1010F03D00021A868FFF7B9FF4A
:10B33000E86810F1010F05D0E868FFF7BEFFE86884
:10B34000FFF7A4FFAA68E9682068FFF75AFF31BD3C
:10B3500038B504000D004FF488712068FFF71BFF1B
:10B360004FF490712068FFF716FF4FF49271206838
:10B37000FFF711FF4FF4A2712068FFF70CFF4FF4A5
:10B38000AC712068FFF707FFDFF838142068FFF77B
:10B3900023FF2068FFF7F1FE2900C9B240B2FFF792
:10B3A000EFFE2068FFF7E9FE40B2FFF7EFFE31BD88
:10B3B0002DE9F04104000D001600DFF80C1422798D
:10B3C0002420424301EB02075FF0000897F82000B9
:10B3D000002801D0082026E0DFF8F003217950F89A
:10B3E0002110206801F02EFF002801D011201AE062
:10B3F00029002000FFF76EFF7E60286938607868BA
:10B40000002803D0297F2000FFF7A2FF2068FFF764
:10B41000EFFE0020B8610020F86100207861012073
:10B4200087F820004046BDE8F081F8B505000C0023
:10B430001700DFF894132A792420424301EB020617
:10B440002000FFF790FE002801D1102044E02800E2
:10B4500000F043F8002801D011203DE07761B4608E
:10B4600000274FF490712868FFF795FE4FF4AC71F8
:10B470002868FFF790FE7269B1682868FFF7D3FE6D
:10B4800008212868FFF7C2FE7068002823D14FF416
:10B4900090712868FFF78AFE04004FF4AC712868A9
:10B4A000FFF784FEE4B2002C03D10100C9B20029E9
:10B4B000EDD0C0B2002801D00F270AE00C21286887
:10B4C000FFF7A4FE4FF4AC712868FFF76FFE002869
:10B4D000F8D0002070613800F2BDDFF8EC1202797C
:10B4E0002420424301EB02004069002801D00120E2
:10B4F00000E00020C0B270472DE9F04706000D00C3
:10B5000092462427DFF8C0823079784308EB00099F
:10B510002800FFF728FE002801D1102084E0002435
:10B52000D9F80400002804D04FF404713068FFF704
:10B5300056FED9F8180000280FD0D9F81C000028B2
:10B540000AD0D9F80400002804D04FF40471306800
:10B55000FFF742FE112067E001242000C0B200285E
:10B5600007D1C9F818A0C9F80C500020C9F81C0070
:10B5700003E0C9F81050C9F81CA05FF000094FF4AF
:10B5800088713068FFF707FE4FF4A2713068FFF74B
:10B5900002FE524629003068FFF74DFEE4B2002C4F
:10B5A00004D100213068FFF731FE03E0202130682C
:10B5B000FFF705FE307978434044406800282DD1DC
:10B5C0004FF488713068FFF7F1FD04004FF4A27169
:10B5D0003068FFF7EBFD05004FF492713068FFF71C
:10B5E000E5FDE4B2002C07D12900C9B2002903D13E
:10B5F0000100C9B20029E3D0317907FB01F708EB5C
:10B60000070100228A61C0B2002801D05FF003095F
:10B61000EDB2002D07D05FF00F0904E04FF4047184
:10B620003068FFF7D9FD4846BDE8F087F8B503005C
:10B6300001208DF8000002910192196868465A684D
:10B64000904705B000BDF8B5020000208DF800005D
:10B65000029190680190002050611168684652681C
:10B66000904705B000BDF8B584B005000C004FF45C
:10B6700092712800FFF79AFD00281AD04FF49271BA
:10B680002800FFF788FD02208DF800002800FFF752
:10B69000A9FD03902800FFF7D3FD0290E068019018
:10B6A0000020A0610020E061216868466268904740
:10B6B0002DE04FF488712800FFF778FD002826D090
:10B6C0004FF488712800FFF766FD2800FFF7B8FDEA
:10B6D0000600A06986421AD1E069002810D0E76808
:10B6E00020212800FFF771FDE069A0612069E0607A
:10B6F0000020E0613A0031002000FFF797FF06E0EC
:10B700000020A061E26831002000FFF78FFF4FF4B6
:10B71000A2712800FFF74AFD002813D04FF4A27150
:10B720002800FFF738FDA06900280BD00020A06199
:10B730000020E0612800FFF783FDE268010020009F
:10B74000FFF774FF4FF490712800FFF72FFD0028DA
:10B7500012D04FF490712800FFF71DFD0C21280036
:10B76000FFF754FD6069002806D02800FFF760FD50
:10B7700001002000FFF767FF4FF4AC712800FFF7CE
:10B7800015FD00280ED04FF4AC712800FFF703FD23
:10B790006069002806D02800FFF74AFD010020005C
:10B7A000FFF751FF05B0F0BD80B507490848FFF726
:10B7B0005AFF01BD0000000000E100E000E400E0ED
:10B7C00018ED00E0100342001CEE002064BD0300F1
:10B7D00000200040010049B2002909D4012210F0E4
:10B7E0001F018A40DFF8001740B2400941F82020CD
:10B7F0007047020052B2002A05D44901DFF8EC2656
:10B8000040B2115408E04901DFF8E42640B210F0DC
:10B810000F00104400F8041C7047000B40B2704742
:10B8200080B5C9B240B2FFF7E4FF01BD80B540B2B8
:10B83000FFF7D0FF01BD81B000220B001BB2C25048
:10B8400009B240580090009801B0704709B24058C2
:10B85000002801D0012000E00020C0B27047C0F8ED
:10B8600004137047D0F80403084201D0012000E01F
:10B870000020C0B27047C0F8081370470100D1F82B
:10B880008004C1F8800470470421C0F80015704797
:10B89000C0F81425C0F80C157047C0F80815C0F89A
:10B8A00010257047D0F81805C0B27047C9B2C0F86B
:10B8B0001C1570470122C9B242507047C9B2D2B2BA
:10B8C0001143C0F86C157047C0F8241570475FF03D
:10B8D000A04070472DE9F14181B00E001700984655
:10B8E000089D099C01A8FFF7F2FFF6B2FFB256EAE5
:10B8F00047065FFA88F856EA8806EDB256EA05264A
:10B90000E4B256EA0446019900EB8100C0F80067F2
:10B91000BDE8F381E0B500210191002100910023F1
:10B9200001220121FFF7D6FF07BDE0B50B00002182
:10B93000019100210091DBB200220021FFF7CAFF34
:10B9400007BD01B56846FFF7C2FF0121009A91408B
:10B9500000F001F801BDC0F80815704738B50400C3
:10B960000D00286810F1010F05D02868FFF7E9FFE6
:10B970002868FFF7CFFF686810F1010F03D000219E
:10B980006868FFF7D2FFA9692068FFF79DFF2A7D4D
:10B99000697D2068FFF792FF6A6829682068FFF7D1
:10B9A00077FF287D012816D1A86810F1010F03D078
:10B9B0000021A868FFF7B9FFE86810F1010F05D072
:10B9C000E868FFF7BEFFE868FFF7A4FFAA68E96828
:10B9D0002068FFF762FF31BD38B504000D004FF459
:10B9E0008E712068FFF727FF4FF4A2712068FFF7E0
:10B9F00022FFDFF800152068FFF731FF2068FFF70E
:10BA00000CFF2900C9B240B2FFF70AFF2068FFF718
:10BA100004FF40B2FFF70AFF31BD2DE9F0410400F9
:10BA20000D001600DFF8D01422792C20424301EBE0
:10BA300002075FF0000897F82A00002801D00820CC
:10BA400029E0DFF8B804217950F82110206801F0CE
:10BA5000F9FB002801D011201DE029002000FFF78C
:10BA60007DFF7E60286938607868002803D0297FD0
:10BA70002000FFF7B1FF2068FFF706FF0020B86144
:10BA80000020F861002087F829000020786101205B
:10BA900087F82A004046BDE8F08138B504000D0063
:10BAA0004FF48E712000FFF7C6FEA868296A415C3A
:10BAB000286A401C2862C9B22000FFF7F7FE31BD9A
:10BAC00070B504000D006E6903E029002000FFF747
:10BAD000E4FF286AB0420CD24FF48E712000FFF7C9
