:020000040002F8
:1060000030F80020451D0500BB36040003AD040038
:10601000C3360400EB4104002F44040000000000DC
:1060200000000000000000000000000041F7040034
:10603000334E04000000000065F704009F65040073
:10604000A3CB0400BB67040031E204009DEF040011
:10605000A9EF0400A38204002DF204001FC904006C
:106060007FCF04007BD404009FE20400F3E7040028
:10607000C3F70400311305007B15050087150500E3
:1060800077030500CFF6040007210500092105006C
:106090000B2105000D210500650C05000F210500F1
:1060A0001121050013210500152105001721050008
:1060B000192105001B210500000000000000000060
:1060C0001D2105001F21050021210500E1DA040042
:1060D00007F504002321050025210500000000002C
:1060E00000000000000000000000000000000000B0
:1060F00000000000000000000000000000000000A0
:10610000000000000000000000000000000000008F
:10611000000000000000000000000000000000007F
:10612000000000000000000000000000000000006F
:10613000000000000000000000000000000000005F
:10614000000000000000000000000000000000004F
:10615000000000000000000000000000000000003F
:10616000000000000000000000000000000000002F
:10617000000000000000000000000000000000001F
:10618000000000000000000000000000000000000F
:1061900000000000000000000000000000000000FF
:1061A00000000000000000000000000000000000EF
:1061B00000000000000000000000000000000000DF
:1061C00000000000000000000000000000000000CF
:1061D00000000000000000000000000000000000BF
:1061E00000000000000000000000000000000000AF
:1061F000000000000000000000000000000000009F
:10620000101000F000EB011B084108410841084153
:106210000841084108410841084108410841084136
:106220000841084108410841084108410841084126
:106230000841084108410841084108410841084116
:106240000841084108410841084108410841084106
:106C7000084108610861086108610861086108410C
:106C800008410841084108410841084108410841BC
:106C900008410841084108410841084108410841AC
:106CA000084108410841084108410841084108419C
:106CB000084108410841084108410841084108418C
:106CC000084108410841084108410841084108417C
:106CD000084108410841084108410841084108416C
:106CE000084108410841084108410841084108415C
:106CF000084108410841084108410841084108414C
:106D0000084108410841084108410841084108413B
:106D1000084108410841084108410841084108412B
:106D2000084108410841084108410841084108411B
:106D3000084108410841084108410841084108410B
:106D400008410841084108410841084108410841FB
:106D500008410841084108410841084108410841EB
:106D600008410841084108410841084108410841DB
:106D700008410841084108410841084108410841CB
:106D800008410841084108410841084108410841BB
:106D900008410841084108410841084108410841AB
:106DA000084108410841084108410841084108419B
:106DB000084108410841084108410841084108418B
:106DC000084108410841084108410841084108417B
:106DD000084108410841084108410841084108416B
:106DE000084108410841084108410841084108415B
:106DF000084108410841084108410841084108414B
:106E0000084108410841084108410841084108413A
:106E100008410841082108210821082108410841AA
:106E2000084100200861086210620000082100206B
:106E30000862004108820041086108820041004068
:106E400008A208E311031924218629E732283A69A8
:106E500042AA42AA3A69324829E72186114411041C
:106E600010E308A20061006108820841084108415E
:106E700000410861084108211062084108410842A8
:106E80000021084108410821082108210821082182
:106E900008410841084108410841084108410841AA
:106EA000084108410841084108410841084108419A
:106EB000084108410841084108410841084108418A
:106EC000084108410841084108410841084108417A
:106ED000084108410841084108410841084108416A
:106EE000084108410841084108410841084108415A
:106EF000084108410841084108410841084108414A
:106F00000841084108410841084108410841084139
:106F10000841084108410841084108410841084129
:106F20000841084108410841084108410841084119
:106F30000841084108410841084108410841084109
:106F400008410841084108410841084108410841F9
:106F500008410841084108410841084108410841E9
:106F600008410841084108410841084108410841D9
:106F700008410841084108410841084108410841C9
:106F800008410841084108410841084108410841B9
:106F900008410841084108410841084108410841A9
:106FA0000841084108410841084108410841084199
:106FB0000841084108410841084108410841084189
:106FC0000841084108410841084108410841084179
:106FD0000841084108410841084108410841084169
:106FE0000841084108410841084108410841084159
:106FF0000041004100410041004100410841082199
:107000000821084208410862002100610062004135
:10701000004100A2322984939556A5B7B65AB659B5
:10702000B65AB67AAE19B639B639B659B659B67A2D
:10703000BE7AB67AB67AB65AB639B639AE39AE191C
:10704000B67AB659B639B65AA5D79D567452320992
:1070500000A2008200200062006100610861084017
:10706000084008400820084100410041004100401C
:1070700000400841084108410841084108410841D1
:1070800008410841084108410841084108410841B8
:1070900008410841084108410841084108410841A8
:1070A0000841084108410841084108410841084198
:1070B0000841084108410841084108410841084188
:1070C0000841084108410841084108410841084178
:1070D0000841084108410841084108410841084168
:1070E0000841084108410841084108410841084158
:1070F0000841084108410841084108410841084148
:107100000841084108410841084108410841084137
:107110000841084108410841084108410841084127
:107120000841084108410841084108410841084117
:107130000841084108410841084108410841084107
:1071400008410841084108410841084108410841F7
:1071500008410841084108410841084108410841E7
:1071600008410841084108410841084108410841D7
:1071700008410841084108410841084108410841C7
:1071800008410841084108410841084108410841B7
:1071900008410841084108410841084108410841A7
:1071A0000841084108410841084108410841084197
:1071B0000841084108410841084108410841084187
:1071C0000841084108410841084108410841084177
:1071D000084108410841084108610061084108412F
:1071E0000861088200611104324974319575B659FD
:1071F000B659B659BE7ABEBBB659A5F895767C92FB
:10720000638E428A3A2931C721861945190510E44F
:1072100010E410E410E419041925298631E83A49EC
:1072200042AB63AF7C939D76ADF8B65ABE9BB67AFF
:10723000B659B639B65995556C10322808E3004056
:107240000061004108410041004100410040084008
:1072500008400840084108410841084108410841E8
:1072600008410841084108410841084108410841D6
:1072700008410841084108410841084108410841C6
:1072800008410841084108410841084108410841B6
:1072900008410841084108410841084108410841A6
:1072A0000841084108410841084108410841084196
:1072B0000841084108410841084108410841084186
:1072C0000841084108410841084108410841084176
:1072D0000841084108410841084108410841084166
:1072E0000841084108410841084108410841084156
:1072F0000841084108410841084108410841084146
:107300000841084108410841084108410841084135
:107310000841084108410841084108410841084125
:107320000841084108410841084108410841084115
:107330000841084108410841084108410841084105
:1073400008410841084108410841084108410841F5
:1073500008410841084108410841084108410841E5
:1073600008410841084108410841084108410841D5
:1073700008410841084108410841084108410841C5
:1073800008410841084108410841084108410841B5
:1073900008410841084108410841084108410841A5
:1073A0000841084108410841084108410841084195
:1073B000084108210841086208410021006119655F
:1073C0004B2C9554AE38AE58B679B659ADF79535C5
:1073D0005B4D320810C20040002000410020002018
:1073E000000000000000000000000020000000007D
:1073F000000000000000000000000000000000206D
:10740000000000000000002000410040004008E3B0
:1074100032085B8E9535AE18B659B679B659B6595D
:107420008D144AEC194500820021084108410820CA
:107430000820084108410841084108410841084125
:1074400008410841084108410841084108410841F4
:1074500008410841084108410841084108410841E4
:1074600008410841084108410841084108410841D4
:1074700008410841084108410841084108410841C4
:1074800008410841084108410841084108410841B4
:1074900008410841084108410841084108410841A4
:1074A0000841084108410841084108410841084194
:1074B0000841084108410841084108410841084184
:1074C0000841084108410841084108410841084174
:1074D0000841084108410841084108410841084164
:1074E0000841084108410841084108410841084154
:1074F0000841084108410841084108410841084144
:107500000841084108410841084108410841084133
:107510000841084108410841084108410841084123
:107520000841084108410841084108410841084113
:107530000841084108410841084108410841084103
:1075400008410841084108410841084108410841F3
:1075500008410841084108410841084108410841E3
:1075600008410841084108410841084108410841D3
:1075700008410841084108410841084108410841C3
:1075800008410841084108410841084108410841B3
:10759000002008820041008229E7ADD7B679B6798C
:1075A000B679BE9AA5B7428A0020000000610000AB
:1075B000002100000020000000200000000000006A
:1075C000000000200020000000000000000000007B
:1075D000000000000000000000000000000000208B
:1075E000002000000000000000000000000000205B
:1075F00000000020002100410020008252ECA5B7CD
:10760000BE7AB659B67ABE7AA596216608A30062FC
:107610000021002008410841084108410841084173
:107620000841084108410841084108410841084112
:107630000841084108410841084108410841084102
:1076400008410841084108410841084108410841F2
:1076500008410841084108410841084108410841E2
:1076600008410841084108410841084108410841D2
:1076700008410841084108410841084108410841C2
:1076800008410841084108410841084108410841B2
:1076900008410841084108410841084108410841A2
:1076A0000841084108410841084108410841084192
:1076B0000841084108410841084108410841084182
:1076C0000841084108410841084108410841084172
:1076D0000841084108410841084108410841084162
:1076E0000841084108410841084108410841084152
:1076F0000841084108410841084108410841084142
:107700000841084108410841084108410841084131
:107710000841084108410841084108410841084121
:107720000841084108410841084108410841084111
:107730000841084108410841084108410841084101
:1077400008410841084108410841084108410841F1
:1077500008410841084108410841084108410841E1
:1077600008410841084108410841084108410861B1
:1077700008C3536D9DB6B679AE58BEFB8D13320863
:1077800008C30021002100000021000000000000CB
:107790000000080000000020002100200020002040
:1077A00000210882110421663A084AAB5B2D636E02
:1077B0006BAF6BAF6BAF636E5B4D4AAB3A2929A7DA
:1077C000212510C30021002000000000002100003E
:1077D0000800082100000000000000000000000078
:1077E000002008C23A488D13BEFBAE59B659A5D742
:1077F000534D088200610841084108410841084191
:107800000841084108410841004108410841084138
:107810000841084108410841084108410841084120
:107820000841084108410841084108410841084110
:107830000841084108410841084108410841084100
:1078400008410841084108410841084108410841F0
:1078500008410841084108410841084108410841E0
:1078600008410841084108410841084108410841D0
:1078700008410841084108410841084108410841C0
:1078800008410841084108410841084108410841B0
:1078900008410841084108410841084108410841A0
:1078A0000841084108410841084108410841084190
:1078B0000841084108410841084108410841084180
:1078C0000841084108410841084108410841084170
:1078D0000841084108410841084108410841084160
:1078E0000841084108410841084108410841084150
:1078F0000841084108410841084108410841084140
:10790000084108410841084108410841084108412F
:10791000084108410841084108410841084108411F
:10792000084108410841084108410841084108212F
:10793000082108410841084108410041004108412F
:107940000861002008410862004108C352ECA5B755
:10795000B67AAE79AE3863CF214500200000002012
:107960000020002000200020002000200020000037
:10797000002010C342497C109514A57594F38CB275
:107980006BEF4AEB31E72185190408E308C208A22E
:10799000088274100882088208A210C310E32145EF
:1079A0003207428A638E84929D76951495356BAF2B
:1079B0004A6A21250021002100000021002000004A
:1079C0000020002000000020002021666BF0B63966
:1079D000AE19B67A9D964AEB088200410821004014
:1079E00008410821082108410041084108210841B7
:1079F000084108410841084108410841084108413F
:107A0000084108410841084108410841084108412E
:107A1000084108410841084108410841084108411E
:107A2000084108410841084108410841084108410E
:107A300008410841084108410841084108410841FE
:107A400008410841084108410841084108410841EE
:107A500008410841084108410841084108410841DE
:107A600008410841084108410841084108410841CE
:107A700008410841084108410841084108410841BE
:107A800008410841084108410841084108410841AE
:107A9000084108410841084108410841084108419E
:107AA000084108410841084108410841084108418E
:107AB000084108410841084108410841084108417E
:107AC000084108410841084108410841084108416E
:107AD000084108410841084108410841084108415E
:107AE000084108410841084108410841084108414E
:107AF000084108410841084108410841084108413E
:107B0000084108410841084108410841084108412D
:107B10000841084108410841082110210841084155
:107B200008410841008221869D96B659B679AE3843
:107B30006BCF0021002108210000000000000000A0
:107B4000002000200021004118E3424994F3ADB623
:107B50008CB252EB10C329660000002000000041E7
:107B6000000000200861000000000000000000206C
:107B700000208C510841002000000000002000007F
:107B8000000000000000002162EC00210021004103
:107B900008A24A898471A595A57552EB1924004164
:107BA00000210041002000000000000008620041A8
:107BB00000217430AE38BE9AB659955521A70041C0
:107BC00008820001082108210821084108410841D4
:107BD000084108410841084108410841084108415D
:107BE000084108410841084108410841084108414D
:107BF000084108410841084108410841084108413D
:107C0000084108410841084108410841084108412C
:107C1000084108410841084108410841084108411C
:107C2000084108410841084108410841084108410C
:107C300008410841084108410841084108410841FC
:107C400008410841084108410841084108410841EC
:107C500008410841084108410841084108410841DC
:107C600008410841084108410841084108410841CC
:107C700008410841084108410841084108410841BC
:107C800008410841084108410841084108410841AC
:107C9000084108410841084108410841084108419C
:107CA000084108410841084108410841084108418C
:107CB000084108410841084108410841084108417C
:107CC000084108410841084108410841084108416C
:107CD000084108410841084108410841084108415C
:107CE0000841084108410841084108410841004154
:107CF0000841084108410841084108410861006203
:107D000000615BAFB659B659C6DB849208A2004049
:107D100000000801000000000000082000210020F1
:107D200021866BAEC67A849239E708410021002093
:107D300000410000000010C3088200200000000085
:107D400000000000000000000821002100000020C9
:107D5000002084310000002000200000000000000E
:107D600000000020002000008C71002000000000B6
:107D700000200020002000200020006121667C30CF
:107D8000C6597C1021860000002100000020000060
:107D900000000000004108C37C72BEBBAE7AB67A18
:107DA0005B8E0061004108410840084108410841DC
:107DB000084108410841084108410841084108417B
:107DC000084108410841084108410841084108416B
:107DD000084108410841084108410841084108415B
:107DE000084108410841084108410841084108414B
:107DF000084108410841084108410841084108413B
:107E0000084108410841084108410841084108412A
:107E1000084108410841084108410841084108411A
:107E2000084108410841084108410841084108410A
:107E300008410841084108410841084108410841FA
:107E400008410841084108410841084108410841EA
:107E500008410841084108410841084108410841DA
:107E600008410841084108410841084108410841CA
:107E700008410841084108410841084108410841BA
:107E800008410841084108410841084108410841AA
:107E9000084108410841084108410841084108419A
:107EA000084108410841084108410841084108418A
:107EB000084108410841084108410841084108417A
:107EC000084108410841084108410841084108416A
:107ED00008410841084108410061006108E3851339
:107EE000B6BAAE79A5D73A080862002100000000B2
:107EF0000861000000000061004052CA9D558C924C
:107F0000636E0882002100200020080008000000A5
:107F1000082108210000088218E40021086229864F
:107F20004AAA6BAE84518CB29D14A575ADD6B5F737
:107F3000B618BE59BE38B5F7ADB6A5759D348CB22E
:107F40007C106BCE52CB29C684510041002000200A
:107F50000820000008200800000000000041000088
:107F60000041004173EF73EFADF75B4C08C2002096
:107F7000002000000821082100210042426AAE18BA
:107F8000B69AAE5984D308E3008100400041004115
:107F90000841084108410841084108410841084199
:107FA0000841084108410841084108410841084189
:107FB0000841084108410841084108410841084179
:107FC0000841084108410841084108410841084169
:107FD0000841084108410841084108410841084159
:107FE0000841084108410841084108410841084149
:107FF0000841084108410841084108410841084139
:108000000841084108410841084108410841084128
:108010000841084108410841084108410841084118
:108020000841084108410841084108410841084108
:1080300008410841084108410841084108410841F8
:1080400008410841084108410841084108410841E8
:1080500008410841084108410841084108410841D8
:1080600008410841084108410841084108410841C8
:1080700008410841084108410841084108410841B8
:1080800008410841084108410841084108410841A8
:108090000841084108410841084108410841084198
:1080A0000841084108410841084108410841084188
:1080B000084108410061008119659575AE38BE7AA6
:1080C00094F310E40041002000200020000008216B
:1080D000004108834A8BAD9673CF192400410041BB
:1080E00010A2084100200841000000200041088241
:1080F00029655B0C8471ADB69D1473F05B2C29C7A8
:1081000010A20020002000410020002000200000DC
:108110000000086100200020000000000020002076
:108120000000002018E439E852CB73F0A576ADB614
:10813000845152CB2145088200210000002000001C
:10814000000000402145004100000061634DA596FC
:10815000634E190400200000000000000020000011
:1081600019248D14AE59AE3895751945006100413A
:1081700008410841082108410841084108410841D7
:1081800008410841084108410841084108410841A7
:108190000841084108410841084108410841084197
:1081A0000841084108410841084108410841084187
:1081B0000841084108410841084108410841084177
:1081C0000841084108410841084108410841084167
:1081D0000841084108410841084108410841084157
:1081E0000841084108410841084108410841084147
:1081F0000841084108410841084108410841084137
:108200000841084108410841084108410841084126
:108210000841084108410841084108410841084116
:108220000841084108410841084108410841084106
:1082300008410841084108410841084108410841F6
:1082400008410841084108410841084108410841E6
:1082500008410841084108410841084108410841D6
:1082600008410841084108410841084108410841C6
:1082700008410841084108410841084108410841B6
:10828000084108410841084108410841084110419E
:10829000084100611924ADF7AE18B65974310021B8
:1082A00000010000000000400000002000213A080A
:1082B000B5F873D0088300000021000100000061C0
:1082C000000073AE08811082636DAD96BE385B4CC2
:1082D00019450020000000200020000000200020A0
:1082E0000820000000000000002000000000000046
:1082F000000000000000000000000000000000007E
:10830000000000000000000100010001000000006A
:108310000041004121866BCFC69A94F352CB08826C
:108320000000214500200020000000000000002186
:1083300000015B0CBE385B2C0040004000000800D0
:108340000821000000417C92B639B618ADB6110381
:1083500000610841084108410841084108410841BD
:1083600008410841084108410841084108410841C5
:1083700008410841084108410841084108410841B5
:1083800008410841084108410841084108410841A5
:108390000841084108410841084108410841084195
:1083A0000841084108410841084108410841084185
:1083B0000841084108410841084108410841084175
:1083C0000841084108410841084108410841084165
:1083D0000841084108410841084108410841084155
:1083E0000841084108410841084108410841084145
:1083F0000841084108410841084108410841084135
:108400000841084108410841084108410841084124
:108410000841084108410841084108410841084114
:108420000841084108410841084108410841084104
:1084300008410841084108410841084108410841F4
:1084400008410841084108410841084108410841E4
:1084500008410841084108410841084108410841D4
:1084600008410840084008400840108100200021D1
:1084700010E39575B69AC6DB5B6E004100200000E4
:10848000004100200041002110C39D148C9218E48B
:10849000002108410000002000210000002100828E
:1084A0006BAEBE5994F329C7088200200841000032
:1084B0000000000000000000000000000000084173
:1084C000084008000821002008C200200000000029
:1084D0000000082100210000084200410061004125
:1084E000000000410000000000200000000000002B
:1084F00000000000000000000020002010A331E870
:1085000094F4B6185B0C00610020002000200021CC
:1085100000000000006110A284B2A57511030000E4
:108520000021000000210020086163AFBE9AB679E7
:108530009D7608A3004108410841082108410841EF
:1085400000410841084108410841084108410841EB
:1085500008410841084108410841084108410841D3
:1085600008410841084108410841084108410841C3
:1085700008410841084108410841084108410841B3
:1085800008410841084108410841084108410841A3
:108590000841084108410841084108410841084193
:1085A0000841084108410841084108410841084183
:1085B0000841084108410841084108410841084173
:1085C0000841084108410841084108410841084163
:1085D0000841084108410841084108410841084153
:1085E0000841084108410841084108410841084143
:1085F0000841084108410841084108410841084133
:108600000841084108410841084108410841084122
:108610000841084108410841084108410841084112
:108620000841084108410841084108410841084102
:1086300008410841084108410841084108410841F2
:1086400008410840084000610041088208827CB26D
:10865000AE59BEBA5BCE0061004108410020002047
:10866000000000413A28C6594AAB00410041004190
:10867000002000200020004129658451A53452CB00
:1086800010A2000000000000000000000020000018
:10869000000000000000000000000020002000009A
:1086A000002000422146ADF8BE5900000000000045
:1086B0000000006129C79D75BE7AB659BE9ABE9A60
:1086C000B67963AE00410020000000000000000009
:1086D000000000000000002000000020002000003A
:1086E0000021004118E352CBA5757C3021450000E4
:1086F00000200020002000204A8A002039E8A595AB
:10870000532C0061002000000821084100626BCF5B
:10871000BE7ABE597C7210C408620021084108412B
:108720000820084108410841084108410841084122
:1087300008410841084108410841084108410841F1
:1087400008410841084108410841084108410841E1
:1087500008410841084108410841084108410841D1
:1087600008410841084108410841084108410841C1
:1087700008410841084108410841084108410841B1
:1087800008410841084108410841084108410841A1
:108790000841084108410841084108410841084191
:1087A0000841084108410841084108410841084181
:1087B0000841084108410841084108410841084171
:1087C0000841084108410841084108410841084161
:1087D0000841084108410841084108410841084151
:1087E0000841084108410841084108410841084141
:1087F0000841084108410841084108410841084131
:108800000841084108410841084108410841084120
:108810000841084108410841084108410841084110
:10882000084108400060006108A2638EAE18B65986
:108830007C9200820000000008210000000000205F
:1088400052CBB5D729A619040882002100210020A7
:10885000002119048451B5D731A600410000000061
:1088600000010000000000210000000000000000E6
:108870000000000000000000000000200020A514FF
:108880008D34B639BE9BAE59AE18004100000000D1
:10889000002063EFB6598D5500820062002129E85F
:1088A000BEDBB659ADF7002000200000000000003C
:1088B00000000000000000000000000000000000B8
:1088C0000000002000000020004000204249B5B612
:1088D0007C101904000000417C1000210000000001
:1088E00008A29D1473EF0882000000200020000001
:1088F00000418D14B639BE7A532D008200410840E4
:108900001020084108410841084108410841084138
:10891000084108410841084108410841084108410F
:1089200008410841084108410841084108410841FF
:1089300008410841084108410841084108410841EF
:1089400008410841084108410841084108410841DF
:1089500008410841084108410841084108410841CF
:1089600008410841084108410841084108410841BF
:1089700008410841084108410841084108410841AF
:10898000084108410841084108410841084108419F
:10899000084108410841084108410841084108418F
:1089A000084108410841084108410841084108417F
:1089B000084108410841084108410841084108416F
:1089C000084108410841084108410841084108415F
:1089D000084108410841084108410841084108414F
:1089E000084108410841084108410841084108413F
:1089F000084108410841084108410841084108412F
:108A00000841000008A221C7AE38BE7AADB710C435
:108A1000000100001021000000000861634DB5D77F
:108A20000882006100410062634D006200215B2DFD
:108A3000C65931C7000000000000002000000000FF
:108A40000000000000000000000000000000000026
:108A50000000000000000000000000200020738ED5
:108A60006BAF638FAE39AE9AAE18000100000041C3
:108A70001965AE59AE381145000000000000000134
:108A800029C8BE9AB67A7C7200000000000000007F
:108A900000000000000000000000000000000000D6
:108AA0000000000000000000000000000000004185
:108AB00000414249C6595B4C192400410000104155
:108AC0000000000000418CF38D13002000200020E6
:108AD0000020002100A2A5B7B639B638198510A22A
:108AE00000000841002008410841084108410841B0
:108AF000084108410841084108410841084108412E
:108B0000084108410841084108410841084108411D
:108B1000084108410841084108410841084108410D
:108B200008410841084108410841084108410841FD
:108B300008410841084108410841084108410841ED
:108B400008410841084108410841084108410841DD
:108B500008410841084108410841084108410841CD
:108B600008410841084108410841084108410841BD
:108B700008410841084108410841084108410841AD
:108B8000084108410841084108410841084108419D
:108B9000084108410841084108410841084108418D
:108BA000084108410841084108410841084108417D
:108BB000084108410841084108410841084108416D
:108BC000084108410841084108410841084108415D
:108BD000084108410841084108410841084108612D
:108BE000086108A39535B679AE3829C70021002061
:108BF00008200000000000215B0C9D3419040020B7
:108C00000020086100000041634D9D3473CF10A225
:108C100000210020000000200000000000000000F3
:108C20000000000000000000000000000000000044
:108C300000000000000000000000002000000020F4
:108C4000000000219D96AE9AAE1800000821002079
:108C50005B8EAE59BEBA4ACB00000000000008216E
:108C60000021B679AE9AB63900210000000000005C
:108C700000000000000000000000000000000000F4
:108C800000000000000000000000000000000021C3
:108C90000000000000202165847195341904000053
:108CA000000000000000002108827C71849208828C
:108CB00000000821002000213208B659B65984D39B
:108CC000006200200841084108410841084108416C
:108CD000084108410841084108410841084108414C
:108CE000084108410841084108410841084108413C
:108CF000084108410841084108410841084108412C
:108D0000084108410841084108410841084108411B
:108D1000084108410841084108410841084108410B
:108D200008410841084108410841084108410841FB
:108D300008410841084108410841084108410841EB
:108D400008410841084108410841084108410841DB
:108D500008410841084108410841084108410841CB
:108D600008410841084108410841084108410841BB
:108D700008410841084108410841084108410841AB
:108D8000084108410841084108410841084108419B
:108D9000084108410841084108410841084108418B
:108DA000084108410841084108410841084108417B
:108DB0000841086000610060004110610841004105
:108DC0003A49B639B63974300061002000200000FD
:108DD000002000204ACB9D9610E3002000000041B7
:108DE000000000004249AD7542290020002000002B
:108DF0000000000000000000000000000000000073
:108E00000000000000000000000000000000000062
:108E10000000000000000000000000000000000052
:108E200000000001A5B7AE9AAE1800000000004196
:108E30004ACBBE9AB6594AAB0000000000000020A1
:108E40000082B679AE9AAE18002100000000000042
:108E50000000000000000000000000000000000012
:108E60000000000000000000000000000000000002
:108E700000000020000000000020004152EBA596F9
:108E800031E70021000008210000002100418C9200
:108E900073AE004100200020000000627430BE5913
:108EA000BE7A426900410020084100400040004174
:108EB000004100410840084008400841084108417D
:108EC000084108410841084108410841084108415A
:108ED000084108410841084108410841084108414A
:108EE000084108410841084108410841084108413A
:108EF000084108410841084108410841084108412A
:108F00000841084108410841084108410841084119
:108F10000841084108410841084108410841084109
:108F200008410841084108410841084108410841F9
:108F300008410841084108410841084108410841E9
:108F400008410841084108410841084108410841D9
:108F500008410841084108410841084108410841C9
:108F600008410841084108410841084108410841B9
:108F700008410841084108410841084108410841A9
:108F80000841084108410841084100610841084181
:108F900008400860006008400861086108A39DB6A9
:108FA000B679AE1808A20000000000000000002101
:108FB0001904CEDA21860020000010620841002149
:108FC0004269BE182145000000000020000000009A
:108FD0000000000000000000000000000000000091
:108FE0000000000000000000000000000000000081
:108FF0000000000000000000000000000000000071
:10900000000000009D96AE9AAE180000000000001F
:10901000002031E731E70000000000000000000000
:109020000062B69AAE7AADF8084100000000000078
:109030000000000000000000000000000000000030
:109040000000000000000000000000000000000020
:1090500000000000000000000020000000000021CF
:1090600029A7B5F82966004100000821000000008A
:1090700010A2CE9A31E7086100000841000010C339
:10908000BE59AE998D3410C30861084100200841D3
:10909000004100400840084008400841084108419C
:1090A0000841084108410841084108410841084178
:1090B0000841084108410841084108410841084168
:1090C0000841084108410841084108410841084158
:1090D0000841084108410841084108410841084148
:1090E0000841084108410841084108410841084138
:1090F0000841084108410841084108410841084128
:109100000841084108410841084108410841084117
:109110000841084108410841084108410841084107
:1091200008410841084108410841084108410841F7
:1091300008410841084108410841084108410841E7
:1091400008410841084108410841084108410841D7
:1091500008410841084108410841084108410841C7
:10916000084108410841084108410061084108419F
:10917000084108610861102100013229A617B69A3A
:10918000538D0041000000000000000000219D758B
:1091900042CA10A218E30841000000205B2CB5B6BB
:1091A00018E300200020086100000000000000001B
:1091B00000000000000000000000000000000000AF
:1091C000000000000000000000000000000000009F
:1091D000000000000000000000000000000000008F
:1091E000000000009D96AE9AAE180000000000211D
:1091F0000020000000000821000000000000002105
:109200009DB7B67AB69A194500200000000000000C
:10921000000000000000000000000000000000004E
:10922000000000000000000000000000000000003E
:10923000000000000000000000200000000000000E
:10924000002100002965BE184249000000000020EE
:10925000004152CB31C7B5F818E4002100000020CE
:1092600000405BCFB679A5F731E808410801082135
:1092700008410840084008400840084108410841AA
:109280000841084108410841084108410841084196
:109290000841084108410841084108410841084186
:1092A0000841084108410841084108410841084176
:1092B0000841084108410841084108410841084166
:1092C0000841084108410841084108410841084156
:1092D0000841084108410841084108410841084146
:1092E0000841084108410841084108410841084136
:1092F0000841084108410841084108410841084126
:109300000841084108410841084108410841084115
:109310000841084108410841084108410841084105
:1093200008410841084108410841084108410841F5
:1093300008410841084108410841084108410841E5
:1093400008410841084108410841006008410841BE
:1093500010621082086208627431AE79AE382166FC
:10936000002108200000000000215ACC9D14086153
:109370000041002073EF00414A8AA5952124002076
:1093800000200000000000000000000000000000BD
:1093900000000000000000000000000000000000CD
:1093A00000000000000000000000000000000000BD
:1093B00000000000000000000000000000000000AD
:1093C000000000009D96AE9AAE180000002100003B
:1093D00000200000082100000000002000206BEFAA
:1093E000AE39B69A4ACB00410000000000000000F0
:1093F000000000000000000000000000000000006D
:10940000000000000000000000000000000000005C
:10941000000000000000000000000000000000004C
:10942000000000000020002031C7AD7531C70020CA
:109430006BAE0021000000216B8E73F00020000055
:10944000002000012186AE59B6BA63EF0062082100
:1094500008211041084108400040084108410841E6
:1094600008410841084108410841084108410841B4
:1094700008410841084108410841084108410841A4
:109480000841084108410841084108410841084194
:109490000841084108410841084108410841084184
:1094A0000841084108410841084108410841084174
:1094B0000841084108410841084108410841084164
:1094C0000841084108410841084108410841084154
:1094D0000841084108410841084108410841084144
:1094E0000841084108410841084108410841084134
:1094F0000841084108410841084108410841084124
:109500000841084108410841084108410841084113
:109510000841084108410841084108410841084103
:1095200008410841084108410841006008410841DC
:1095300010A3086210E49DF7B6997CB200610000A8
:1095400010210020000010A2AD96318700011021EB
:10955000000000201965ADF729E700200000086130
:1095600000000000000000000000000000000000FB
:1095700000000000000000000000000000000000EB
:1095800000000000000000000000000000000000DB
:1095900000000000000000000000000000000000CB
:1095A000000000009D96AE9AAE180000000000007A
:1095B0000000000008410000004029A6BE39C67A1C
:1095C000849208A20041000000400000000000005A
:1095D000000000000000000000000000000000008B
:1095E000000000000000000000000000000000007B
:1095F000000000000000000000000000000000006B
:109600000000000000200020000000204249A55575
:1096100031E7088208620000084118E4A575214579
:1096200000000800084100418D55B69A8D9610E360
:109630000041082108210840004008410841084134
:1096400008410841084108410841084108410841D2
:1096500008410841084108410841084108410841C2
:1096600008410841084108410841084108410841B2
:1096700008410841084108410841084108410841A2
:109680000841084108410841084108410841084192
:109690000841084108410841084108410841084182
:1096A0000841084108410841084108410841084172
:1096B0000841084108410841084108410841084162
:1096C0000841084108410841084108410841084152
:1096D0000841084108410841084108410841084142
:1096E0000841084108410841084108410841084132
:1096F0000841084108410841084108410841084122
:1097000008410841084108410841086008610861B2
:1097100000211966B69AB699322800000020000090
:109720000040002052EB8CB200820021000000219A
:109730000041A5964AAA08A20020002000000821A6
:109740000000000000000000000000000000000019
:109750000000000000000000000000000000000009
:1097600000000000000000000000000000000000F9
:1097700000000000000000000000000000000000E9
:10978000000000009D96AE9AAE1800000000000098
:109790000000000000811104ADF7BE7A6BD00062BA
:1097A0000020000000000820086100000000000008
:1097B00000000000000000000000000000000000A9
:1097C0000000000000000000000000000000000099
:1097D0000000000000000000000000000000000089
:1097E00000000000000000200000000010820000C7
:1097F000636D9514002000000841000000205B0C00
:109800007C10000000200000000042CBAE59C6FBD7
:10981000196500210821084100410841084108411B
:1098200008410841084108410841084108410841F0
:1098300008410841084108410841084108410841E0
:1098400008410841084108410841084108410841D0
:1098500008410841084108410841084108410841C0
:1098600008410841084108410841084108410841B0
:1098700008410841084108410841084108410841A0
:109880000841084108410841084108410841084190
:109890000841084108410841084108410841084180
:1098A0000841084108410841084108410841084170
:1098B0000841084108410841084108410841084160
:1098C0000841084108410841084108410841084150
:1098D0000841084108410841084108410841086120
:1098E000084108410841086108611061086108A346
:1098F00063D0B659B65910C30041080008000020D3
:109900000081ADB621650040002000410061534C4C
:109910008492002000000000000000000000000011
:1099200000000000000000200000002000000000F7
:109930000000000000000000000000000000000027
:109940000000000000000000000000000000000017
:1099500000000000000000000000000000200000E7
:1099600000000021A5D8AE59AE380040000000200C
:109970000041002184B2B679632C00410000000050
:1099800000000000080008200000000000000000A7
:1099900000000000000000000000000000000000C7
:1099A00000000000000000000000000000000000B7
:1099B00000000000000000000000000000000000A7
:1099C0000000000000000040002000000021000016
:1099D000002008828CD34A8A002000200020002129
:1099E00018C39D5419040041000000002125B6BA97
:1099F000AE595B4D0042084108200841084108412A
:109A0000084100410041084108410841084108411E
:109A100008410841084108410841084108410841FE
:109A200008410841084108410841084108410841EE
:109A300008410841084108410841084108410841DE
:109A400008410841084108410841084108410841CE
:109A500008410841084108410841084108410841BE
:109A600008410841084108410841084108410841AE
:109A7000084108410841084108410841084108419E
:109A8000084108410841084108410841084108418E
:109A9000084108410841084108410841084108417E
:109AA000084108410841084108410841084108416E
:109AB000084108410841084108410841084108613E
:109AC00008410841084108610061088200618CF486
:109AD000C6BB95550081002000000020002031A663
:109AE0009513108200000041002018E3AD96216616
:109AF0000041082108210000002100410000000071
:109B000000000000000000200000004000000000F5
:109B10000000000000000000000000000000000045
:109B20000000000000000000000000000000000035
:109B30000000000000000000000000200000000005
:109B400000000021AE19B67AAE17004000000041B7
:109B500010C3B618B67A3AAB3A083A2932083A082E
:109B60003A283A283A283A28214500000000000007
:109B700000000000000000000000000000000000E5
:109B800000000000000000000000000000000000D5
:109B900000000000000000000000000000000000C5
:109BA00000000000002000200020004100210000F3
:109BB0000000004100203A28A57508A2000000001E
:109BC0000862002173CF5B2C004108410000008235
:109BD0009D76B65A849300410841084008400841E8
:109BE000084100410041084108410841084108413D
:109BF000084108410841084108410841084108411D
:109C0000084108410841084108410841084108410C
:109C100008410841084108410841084108410841FC
:109C200008410841084108410841084108410841EC
:109C300008410841084108410841084108410841DC
:109C400008410841084108410841084108410841CC
:109C500008410841084108410841084108410841BC
:109C600008410841084108410841084108410841AC
:109C7000084108410841084108410841084108419C
:109C8000084108410841084108410841084108418C
:109C9000084108410841084108410841084108417C
:109CA0000841084108410861088100C3A5B7C69A68
:109CB0007430004100200821002000416BCE52AAE0
:109CC0000020000000200041634D8451000000008E
:109CD0000821000100210041A5759D3400400000CD
:109CE0000000000000000021000052CCBDF810620E
:109CF0000000000000000000000000000000000064
:109D00000000000000000000000000000000000053
:109D100000000000000000000000000008410020DA
:109D200008822187C6FDB6BBAE59532C08A200415C
:109D30009555BEBBB67AA639AE7BAE5AAE7AAE7B2F
:109D4000AE7BAE7AAE7AB67A5B8E00200000000061
:109D50000000000000000000000000000000000003
:109D600000000000000000000000000000000000F3
:109D700000000000000000000000000000000000E3
:109D800000000000000000418CD3AD9600210020AF
:109D900000000000000000200020A5554AAA004154
:109DA00000200862843118E4A55508610000000015
:109DB00000207C31C69AB61808A30041084108412A
:109DC000082108410841084108410841084108416B
:109DD000084108410841084108410841084108413B
:109DE000084108410841084108410841084108412B
:109DF000084108410841084108410841084108411B
:109E0000084108410841084108410841084108410A
:109E100008410841084108410841084108410841FA
:109E200008410841084108410841084108410841EA
:109E300008410841084108410841084108410841DA
:109E400008410841084108410841084108410841CA
:109E500008410841084108410841084108410841BA
:109E600008410841084108410841084108410841AA
:109E7000084108410841084108410841084108419A
:109E800008410841084108A308A2AE18B6594ACBB8
:109E900000410000080010210020A5B621A608619D
:109EA000000000200041BDF72965002100210020AD
:109EB0000062192463CFB679AE99A5B700200020BF
:109EC0000000088210C34ACBA5F8B67ABE9A0041BA
:109ED0000000000000000000000000000000000082
:109EE0000000000000000000000000000000000072
:109EF0000000000000000000000000000000D6BAD2
:109F0000CEBBC6BBC6BBBEBBC6BBC6BAC67ABE7AD4
:109F1000A5B7BEBBBEBBBEDBBEDBBEDBBEDBBEDBF6
:109F2000BEDBBEDBC6DCBE7A73F0000000000000C2
:109F30000000000000000000000000000000000021
:109F40000000000000000000000000000000000011
:109F50000000000000000000000000000000000001
:109F6000006121466BCFB67AAE7AADD800210000F1
:109F700000000000000000000000002031E7A5B64E
:109F8000004052AB086200210041A57510A20000FC
:109F9000000000214AAAB639AE18008200620021F2
:109FA0000841082108610841084108410841084169
:109FB0000841084108410841084108410841084159
:109FC0000841084108410841084108410841084149
:109FD0000841084108410841084108410841084139
:109FE0000841084108410841084108410841084129
:109FF0000841084108410841084108410841084119
:10A000000841084108410841084108410841084108
:10A0100008410841084108410841084108410841F8
:10A0200008410841084108410841084108410841E8
:10A0300008410841084108410841084108410841D8
:10A0400008410841084108410841084108410841C8
:10A050000841084108410841084108410841086198
:10A060000861086208821925B639BE7A32080020D4
:10A070000000002100212104A57508824AAA006180
:10A080000041426994F300410041000000001904BE
:10A09000C69AC69AB679AEBAA6798D140021000088
:10A0A0000000C659C69AC6BAAE9AAEBAAE7900409A
:10A0B00000000000000000000000000000000000A0
:10A0C0000000000000000000000000000000000090
:10A0D0000000000000000000000000200020002020
:10A0E0000020002100210001002100210061006109
:10A0F000006100200020002000000000000000009F
:10A10000000000000001002100200000000000000D
:10A11000000000000000000000000000000000003F
:10A12000000000000000000000000000000000002F
:10A13000000000000000000000000000000008C255
:10A14000C6DABE9AB679AE9AA69AADF8002100207A
:10A150000000000000000000000000000020088255
:10A16000A5553A290000002100200020843039E85C
:10A170000021002000203A69BE79AE1808C30041D2
:10A1800008410840082008410841084108410841A9
:10A190000841084108410841084108410841084177
:10A1A0000841084108410841084108410841084167
:10A1B0000841084108410841084108410841084157
:10A1C0000841084108410841084108410841084147
:10A1D0000841084108410841084108410841084137
:10A1E0000841084108410841084108410841084127
:10A1F0000841084108410841084108410841084117
:10A200000841084108410841084108410841084106
:10A2100008410841084108410841084108410841F6
:10A2200008410841084108410841084108410841E6
:10A230000841084108410841086108610861088136
:10A24000088108821945B67AB69A19250040082077
:10A25000082000213A2984710000000008617C3048
:10A260007C714ACA00410020000000000841002023
:10A27000000000010042C6DBAE597CB200000000C5
:10A280000000000000200040A5D7AE39B6790020BC
:10A2900000000000000000000000000000000000BE
:10A2A00000000000000000000000000000000000AE
:10A2B000000000000000000000000000000000009E
:10A2C000000000000000000000000000002000204E
:10A2D000002000000000000000000000000000005E
:10A2E000000000000820082000000000000000001E
:10A2F000000000000000000000000000000000005E
:10A30000000000000000000000000000000000004D
:10A31000000000000000000000000000000000201D
:10A32000002000200041AE39B69AADF70041002070
:10A3300000000000000000000000000000200021DC
:10A340000000638E5B2D00000000002008615B0DA3
:10A35000636E0040004000412166AE9AB659112557
:10A3600000410841084108410841084108410841AD
:10A370000841084108410841084108410841084195
:10A380000841084108410841084108410841084185
:10A390000841084108410841084108410841084175
:10A3A0000841084108410841084108410841084165
:10A3B0000841084108410841084108410841084155
:10A3C0000841084108410841084108410841084145
:10A3D0000841084108410841084108410841084135
:10A3E0000841084108410841084108410841084125
:10A3F0000841084108410841084108410841084115
:10A400000841084108410841084108410841084104
:10A41000084100410861084108410861086108409D
:10A4200008A21965B679BE9A0061080000000020F4
:10A4300000205B2C52EC0000000000210021C679B6
:10A4400008A2000000000000000000000000000062
:10A45000000000000021BE9BAE7A84B30000000023
:10A460000000000000000020A5D7B67ABE7A0000E8
:10A4700000000000000000000000000000000000DC
:10A4800000000000000000000000000000000000CC
:10A4900000000000000000000000000000000000BC
:10A4A00000000000000000000000000000000000AC
:10A4B000000000000000000000000000000000009C
:10A4C000000000000000000000000000000000008C
:10A4D000000000000000000000000000000000007C
:10A4E000000000000000000000000000000000006C
:10A4F000000000000000000000000000000000005C
:10A50000000000000021BE7AAE7AA5F800410000EC
:10A51000000000000000000000000000000000003B
:10A52000000000202124AD96002000410020000002
:10A5300021459D1308820020002008C3BEBBB67AC7
:10A5400008E300000840004008400820084100419E
:10A5500000410841084108410841084108410841BB
:10A5600008410841084108410841084108410841A3
:10A570000841084108410841084108410841084193
:10A580000841084108410841084108410841084183
:10A590000841084108410841084108410841084173
:10A5A0000841084108410841084108410841084163
:10A5B0000841084108410841084108410841084153
:10A5C0000841084108410841084108410841084143
:10A5D0000841084108410841084108410841084133
:10A5E0000841084108410841084108410841084123
:10A5F000084108610861104110411061086108A21A
:10A6000021A6BE9ABE9A08A2002010410021000097
:10A610007C513A2800410021004121459D140062EF
:10A620000021000000000000000000000000000009
:10A63000000000000021BEBAAE7A84B30000000022
:10A640000000000000000020A5D7AE7AB67A0020F6
:10A6500000000000000000000000000000000000FA
:10A6600000000000000000000000000000000000EA
:10A6700000000000000000000000000000000000DA
:10A6800000000000000000000000000000000000CA
:10A6900000000000000000000000000000000000BA
:10A6A00000000000000000000000000000000000AA
:10A6B000000000000000000000000000000000009A
:10A6C000000000000000000000000000000000008A
:10A6D000000000000000000000000000000000007A
:10A6E000000000000021B67AAE9AA5F80021000013
:10A6F000000000000000000000000000000000005A
:10A700000000000008620882B5D711030020004154
:10A7100000412124AD7500200020000008A2B65998
:10A72000B659190408610040084008410841084131
:10A7300008410841084108410841084108410841D1
:10A7400008410841084108410841084108410841C1
:10A7500008410841084108410841084108410841B1
:10A7600008410841084108410841084108410841A1
:10A770000841084108410841084108410841084191
:10A780000841084108410841084108410841084181
:10A790000841084108410841084108410841084171
:10A7A0000841084108410841084108410841084161
:10A7B0000841084108410841084108410841084151
:10A7C0000841084108410841084108410841084141
:10A7D000084108411041104110611062088221C7F0
:10A7E000B659B63908E300200820000000218C92F9
:10A7F00019040000084100203A297C100862002159
:10A800000021000000000000000000000000000027
:10A81000000000000021BEBAAE7A84B30000000040
:10A820000000000000000020A5D7AE7AB67A002014
:10A830000000000000000000000000000000000018
:10A840000000000000000000000000000000000008
:10A8500000000000000000000000000000000000F8
:10A8600000000000000000000000000000000000E8
:10A8700000000000000000000000000000000000D8
:10A8800000000000000000000000000000000000C8
:10A8900000000000000000000000000000000000B8
:10A8A00000000000000000000000000000000000A8
:10A8B0000000000000000000000000000000000098
:10A8C000000000000021B67AAE9AA5F80021000031
:10A8D0000000000000000000000000000000000078
:10A8E0000000002000200020004194D331A6000089
:10A8F000002000410882ADB608820000002011044B
:10A90000B639B659192508610041084108210841A6
:10A9100008410841084108410841084108410841EF
:10A9200008410841084108410841084108410841DF
:10A9300008410841084108410841084108410841CF
:10A9400008410841084108410841084108410841BF
:10A9500008410841084108410841084108410841AF
:10A96000084108410841084108410841084108419F
:10A97000084108410841084108410841084108418F
:10A98000084108410841084108410841084108417F
:10A99000084108410841084108410841084108416F
:10A9A000084108410841084108410841084108415F
:10A9B00008611061104110411062004110C3AE5A8D
:10A9C000AE39006200200000082000409D3408A23B
:10A9D0000841000000005B2C4A8A0841000000008A
:10A9E0000000000000000000000000000000000067
:10A9F000000000000021BEBAAE7A84B3000000005F
:10AA00000000000000000020A5D7AE7AB67A002032
:10AA10000000000000000000000000000000000036
:10AA20000000000000000000000000000000000026
:10AA30000000000000000000000000000000000016
:10AA40000000000000000000000000000000000006
:10AA500000000000000000000000000000000000F6
:10AA600000000000000000000000000000000000E6
:10AA700000000000000000000000000000000000D6
:10AA800000000000000000000000000000000000C6
:10AA900000000000000000000000000000000000B6
:10AAA000000000000021B67AAE9AA5F8002100004F
:10AAB0000000000000000000000000000000000096
:10AAC00000000000000000000000002173AE4A8A70
:10AAD0000041002000000020B5B6106100200020D9
:10AAE00010C3B659B65919450041084108410841FB
:10AAF000084008410841084108410841084108410F
:10AB000008410841084108410841084108410841FD
:10AB100008410841084108410841084108410841ED
:10AB200008410841084108410841084108410841DD
:10AB300008410841084108410841084108410841CD
:10AB400008410841084108410841084108410841BD
:10AB500008410841084108410841084108410841AD
:10AB6000084108410841084108410841084108419D
:10AB7000084108410841084108410841084108418D
:10AB8000084108410841084108410841084108615D
:10AB90000861106110611062086210C3B659BE9B53
:10ABA00008A30841002008410861ADF708A2086128
:10ABB00000000020847129A6002000400000000051
:10ABC0000000000000000000000000000000000085
:10ABD000000000000021BEBAAE7A84B3000000007D
:10ABE0000000000000000020A5D7AE7AB67A002051
:10ABF0000000000000000000000000000000000055
:10AC00000000000000000000000000000000000044
:10AC10000000000000000000000000000000000034
:10AC20000000000000000000000000000000000024
:10AC30000000000000000000000000000000000014
:10AC40000000000000000000000000000000000004
:10AC500000000000000000000000000000000000F4
:10AC600000000000000000000000000000000000E4
:10AC700000000000000000000000000000000000D4
:10AC8000000000000021B67AAE9AA5F8002100006D
:10AC900000000000000000000000000000000000B4
:10ACA000000000000000000000210000004152AA46
:10ACB00073CF0020000008820041ADB700210020C2
:10ACC00000200882BE9ABE7A00410862084108400E
:10ACD000084008410841084108410841084108412D
:10ACE000084108410841084108410841084108411C
:10ACF000084108410841084108410841084108410C
:10AD000008410841084108410841084108410841FB
:10AD100008410841084108410841084108410841EB
:10AD200008410841084108410841084108410841DB
:10AD300008410841084108410841084108410841CB
:10AD400008410841084108410841084108410841BB
:10AD500008410841084108410841084108410841AB
:10AD6000084108410841084108410841086108615B
:10AD7000086108610861108208C3ADF8AE7A110459
:10AD80000021188200000021953529C64ACA0021F9
:10AD900000209D34298600000020002000000000D3
:10ADA00000000000000000000000000000000000A3
:10ADB000000000000021BEBAAE7A84B3000000009B
:10ADC0000000000000000020A5D7AE7AB67A00206F
:10ADD0000000000000000000000000000000000073
:10ADE0000000000000000000000000000000000063
:10ADF0000000000000000000000000000000000053
:10AE00000000000000000000000000000000000042
:10AE10000000000000000000000000000000000032
:10AE20000000000000000000000000000000000022
:10AE30000000000000000000000000000000000012
:10AE40000000000000000000000000000000000002
:10AE500000000000000000000000000000000000F2
:10AE6000000000000021B67AAE9AA5F8002100008B
:10AE700000000000000000000000000000000000D2
:10AE800000000000000000000000000000200000A2
:10AE9000424984300000086131C721A7ADB718A22C
:10AEA000084100201104AE5AADF80882004100604C
:10AEB0000040084108410841084108410841084153
:10AEC000084108410841084108410841084108413A
:10AED000084108410841084108410841084108412A
:10AEE000084108410841084108410841084108411A
:10AEF000084108410841084108410841084108410A
:10AF000008410841084108410841084108410841F9
:10AF100008410841084108410841084108410841E9
:10AF200008410841084108410841084108410841D9
:10AF300008410841084108410841084108410841C9
:10AF40000841084108410041086108610861086141
:10AF500008811081086108C3A618B6592145082147
:10AF600000000000004095140862002118E44AAB7C
:10AF7000AD9610E30000000000000000000000009B
:10AF800000000000000000000000000000000020A1
:10AF9000000000000021B67AAE7984D300400000A2
:10AFA00000000000000008619DB7AE7AB67A00414B
:10AFB0000000000000000000000000000000000091
:10AFC0000000000000000000000000000000000081
:10AFD0000000000000000000000000000000000071
:10AFE0000000000000000000000000000000000061
:10AFF0000000000000000000000000000000000051
:10B000000000000000000000000000000000000040
:10B010000000000000000000000000000000000030
:10B020000000000000000000000000000000000020
:10B0300000000000000000000000000000000020F0
:10B04000000000000021B639AE9AADD70020000004
:10B0500000000000000000000000000000000000F0
:10B0600000000000000000000000000000000000E0
:10B07000002031C6847129C6298508210020A595A4
:10B0800008A20000000029A6B659AE1800610861A8
:10B090000840084008400040004000400841084186
:10B0A0000841084108410841084108410841084158
:10B0B0000841084108410841084108410841084148
:10B0C0000841084108410841084108410841084138
:10B0D0000841084108410841084108410841084128
:10B0E0000841084108410841084108410841084118
:10B0F0000841084108410841084108410841084108
:10B1000008410841084108410841084108410841F7
:10B1100008410841084108410841084108410841E7
:10B120000841084108410861086208611061106126
:10B13000088110821924AE18B65931E7002000208A
:10B14000000000618CB218E3000000000862ADB698
:10B15000002000410001000000000000000000008D
:10B1600000000000000000000000000000000000DF
:10B17000000000000062C6BBB67A7C72086208203C
:10B180000000000000000000A5B7B69BB65A0041C1
:10B1900000000000000000000000000000000000AF
:10B1A000000000000000000000000000000000009F
:10B1B000000000000000000000000000000000008F
:10B1C000000000000000000000000000000000007F
:10B1D000000000000000000000000000000000006F
:10B1E000000000000000000000000000000000005F
:10B1F000000000000000000000000000000000004F
:10B20000000000000000000000000000000000003E
:10B21000000000000000000000000000000000002E
:10B22000000000000842B65AB6BAAE18004100410C
:10B23000000000000000000000000000000000000E
:10B2400000000000000000000000000000000841B5
:10B250000000086108818CD20881002000000020D5
:10B26000B5D70020004100203A49B6599D550061EC
:10B270001081084008400840084008400841084143
:10B280000841084108410841084108410841084176
:10B290000841084108410841084108410841084166
:10B2A0000841084108410841084108410841084156
:10B2B0000841084108410841084108410841084146
:10B2C0000841084108410841084108410841084136
:10B2D0000841084108410841084108410841084126
:10B2E0000841084108410841084108410841084116
:10B2F0000841084108410841084108410841084106
:10B30000084108410861086108611061106210621B
:10B31000088208C384D3BE7952EB0021104100207B
:10B32000002084512145002000000041A57510E354
:10B3300000000021082100000000000000000000C3
:10B3400000000000000000000000000000000000FD
:10B350000000000110E4BEBBAE59B65A0062000006
:10B360000000000100000082A5F8B69BAE7A11240F
:10B37000004100200000000000000000000000006C
:10B3800000000000000000000000000000000000BD
:10B3900000000000000000000000000000000000AD
:10B3A000000000000000000000000000000000009D
:10B3B000000000000000000000000000000000008D
:10B3C000000000000000000000000000000000007D
:10B3D000000000000000000000000000000000006D
:10B3E000000000000000000000000000000000005D
:10B3F000000000000000000000000000000000004D
:10B400000001000108A3B69AAE7AAE3900210062AD
:10B41000000000000000000000000000000000002C
:10B42000000000000000000000000000000000001C
:10B4300000000020002010E38C91008108410821C9
:10B440001082B5D70081002000206BCFBE797C71BF
:10B45000006208410841084108400840084108418D
:10B460000841084108410841084108410841084194
:10B470000841084108410841084108410841084184
:10B480000841084108410841084108410841084174
:10B490000841084108410841084108410841084164
:10B4A0000841084108410841084108410841084154
:10B4B0000841084108410841084108410841084144
:10B4C0000841084108410841084108410841084134
:10B4D0000841084108410841084108410841084124
:10B4E000084108410861086110611062106208811A
:10B4F00010A24B0CBE597C710041000000000020DE
:10B50000636D4228002000000841A57510C300416A
:10B51000000000000000000000000000000000002B
:10B520000000000000000000000000000000088291
:10B530008CD3ADD7B659AE9AAE7AB69AAE399D9540
:10B5400063AE74109D76AE38AE9AAE9AAE9AB69A45
:10B55000AE1884B2002000000000000000000000CF
:10B5600000000000000000000000000000000000DB
:10B5700000000000000000000000000000000000CB
:10B5800000000000000000000000000000000000BB
:10B5900000000000000000000000000000000000AB
:10B5A000000000000000000000000000000000009B
:10B5B000000000000000000000000000000000008B
:10B5C000000000000000000000000000000000007B
:10B5D000000000000000000000000000000000412A
:10B5E0008472ADD7B659AE79A699AE79B659A5761B
:10B5F0006B6E002100210000000000000000000030
:10B60000000000000000000000000000000000003A
:10B61000000000000841086129A67C710020084153
:10B62000000010A295130040002000208CB3AE391A
:10B630003A6A0061002108210820084008400841BA
:10B6400008410841084108410841084108410841B2
:10B6500008410841084108410841084108410841A2
:10B660000841084108410841084108410841084192
:10B670000841084108410841084108410841084182
:10B680000841084108410841084108410841084172
:10B690000841084108410841084108410841084162
:10B6A0000841084108410841084108410841084152
:10B6B0000841084108410841084108410841084142
:10B6C0000841086108610861106110820861086121
:10B6D0001965BE7AADF80020002000000020426904
:10B6E00052AA00000021002194F310E308610841F0
:10B6F000000000000000000000000000000000004A
:10B70000000000000000000000000000000008A28F
:10B7100073CF73EF740F6C0F6C106C106BEF6BEEDC
:10B720004ACA5B6D6BEF6C0F6C0F6C306C0F6C303A
:10B7300073EF73CF00210000000000000000000044
:10B7400000000000000000000000000000000000F9
:10B7500000000000000000000000000000000000E9
:10B7600000000000000000000000000000000000D9
:10B7700000000000000000000000000000000000C9
:10B7800000000000000000000000000000000000B9
:10B7900000000000000000000000000000000000A9
:10B7A0000000000000000000000000000000000099
:10B7B00000000000000000000000000000000882FF
:10B7C0006BAF6BF06BF06C106C106BEF73EF73EF93
:10B7D0005ACB002000200000000000000000000004
:10B7E0000000000000000000000000000000000059
:10B7F0000000000000000000002031E773AE0020D0
:10B800000020084110C373F0000000000020ADF7D5
:10B81000AE59112408620801084008400040084160
:10B8200008410841084108410841084108410841D0
:10B8300008410841084108410841084108410841C0
:10B8400008410841084108410841084108410841B0
:10B8500008410841084108410841084108410841A0
:10B860000841084108410841084108410841084190
:10B870000841084108410841084108410841084180
:10B880000841084108410841084108410841084170
:10B890000841084108410841084108410841084160
:10B8A0000861086108610881088108A210C208C304
:10B8B000B659B65A08C400000000000029868C71F1
:10B8C0000000108200007410110300000841000005
:10B8D0000000000000000000000000000000000068
:10B8E000000000000000000000000000000008212F
:10B8F000000000000000082000000001000000001F
:10B9000000000000082100000000000000000020EE
:10B9100000000001082100000000000000000000FD
:10B920000000000000000000000000000000000017
:10B930000000000000000000000000000000000007
:10B9400000000000000000000000000000000000F7
:10B9500000000000000000000000000000000000E7
:10B9600000000000000000000000000000000000D7
:10B9700000000000000000000000000000000000C7
:10B9800000000000000000000000000000000000B7
:10B9900000000000000000000000000000000000A7
:10B9A0000000002100000000000000000000002056
:10B9B000082000000020000000000000000000003F
:10B9C0000000000000000000000000000000000077
:10B9D00000000000000008200020084142494AEB16
:10B9E000002000210000426A52CB0820004000A243
:10B9F000AE59B67A088208410841006000600841EB
:10BA000008410841084108410841084108410841EE
:10BA100008410841084108410841084108410841DE
:10BA200008410841084108410841084108410841CE
:10BA300008410841084108410841084108410841BE
:10BA400008410841084108410841084108410841AE
:10BA5000084108410841084108410841084108419E
:10BA6000084108410841084108410841084108418E
:10BA7000084108410841084108410841084108417E
:10BA800008410861086108A11061186208C39DF7A8
:10BA9000B67929650020000000200882AD960020BC
:10BAA000004100415B2C42490841000000000000B9
:10BAB0000000000000000000000000000000000086
:10BAC0000000000000000000000000000000000076
:10BAD0000000000000000000000000000000000066
:10BAE0000000000000000000000000000000000056
:10BAF0000000000000000000000000000000000046
:10BB00000000000000000000000000000000000035
:10BB10000000000000000000000000000000000025
:10BB20000000000000000000000000000000000015
:10BB30000000000000000000000000000000000005
:10BB400000000000000000000000000000000000F5
:10BB500000000000000000000000000000000000E5
:10BB600000000000000000000000000000000000D5
:10BB700000000000000000000000000000000000C5
:10BB800000000000000000000000000000000000B5
:10BB900000000000000000000000000000000000A5
:10BBA0000000000000000000000000000000000095
:10BBB0000000000000000000000000410041632C74
:10BBC00039E70020002008616B8E19240020002135
:10BBD00031A6B67985140042082100400060084172
:10BBE000084108410841084108410841084108410D
:10BBF00008410841084108410841084108410841FD
:10BC000008410841084108410841084108410841EC
:10BC100008410841084108410841084108410841DC
:10BC200008410841084108410841084108410841CC
:10BC300008410841084108410841084108410841BC
:10BC400008410841084108410841084108410841AC
:10BC5000084108410841084108410841084108617C
:10BC60000861086110820881084118C35BAEB6996B
:10BC7000530C0020000000000020AD9600410000A1
:10BC8000084129866B6D00200000000000000000C4
:10BC900000000000000000000000000000000000A4
:10BCA0000000000000000000000000000000000094
:10BCB0000000000000000000000000000000000084
:10BCC0000000000000000000000000000000000074
:10BCD0000000000000000000000000000000000064
:10BCE0000000000000000000000000000000000054
:10BCF0000000000000000000000000000000000044
:10BD00000000000000000000000000000000000033
:10BD10000000000000000000000000000000000023
:10BD20000000000000000000000000000000000013
:10BD30000000000000000000000000000000000003
:10BD400000000000000000000000000000000000F3
:10BD500000000000000000000000000000000000E3
:10BD600000000000000000000000000000000000D3
:10BD700000000000000000000000000000000000C3
:10BD800000000000000000000000000000000000B3
:10BD90000000000000000000000000000000002083
:10BDA0008C92190400410020636DA55508A2000083
:10BDB00008616BAFAE794B0C1062086100610841FD
:10BDC000084108410841084108410841084108412B
:10BDD000084108410841084108410841084108411B
:10BDE000084108410841084108410841084108410B
:10BDF00008410841084108410841084108410841FB
:10BE000008410841084108410841084108410841EA
:10BE100008410841084108410841084108410841DA
:10BE200008410841084108410841084108410841CA
:10BE3000084108410841084108410841086108617A
:10BE40000861086110820861190421C7AE59A5F77D
:10BE50000841000000000000845100610020002122
:10BE600018E39CF400000020000000000000000027
:10BE700000000000000000000000000000000000C2
:10BE800000000000000000000000000000000000B2
:10BE900000000000000000000000000000000000A2
:10BEA0000000000000000000000000000000000092
:10BEB0000000000000000000000000000000000082
:10BEC0000000000000000000000000000000000072
:10BED0000000000000000000000000000000000062
:10BEE0000000000000000000000000000000000052
:10BEF0000000000000000000000000000000000042
:10BF00000000000000000000000000000000000031
:10BF10000000000000000000000000000000000021
:10BF20000000000000000000000000000000000011
:10BF30000000000000000000000000000000000001
:10BF400000000000000000000000000000000000F1
:10BF500000000000000000000000000000000000E1
:10BF600000000000000000000000000000000000D1
:10BF70000000000000000000000000200020000081
:10BF80000020C63810A2843000410000B5B6002160
:10BF9000000000009DB6B6BA1124004108210841F6
:10BFA0000841084108410841084108410841084149
:10BFB0000841084108410841084108410841084139
:10BFC0000841084108410841084108410841084129
:10BFD0000841084108410841084108410841084119
:10BFE0000841084108410841084108410841084109
:10BFF00008410841084108410841084108410841F9
:10C0000008410841084108410841084108410841E8
:10C010000841084108410841084108410861086198
:10C020001082108210A218A30082A618B6790021EF
:10C030000821002100004A8A9CF310A20020004140
:10C04000AD960000000000000000000000000000AD
:10C0500000000000000000000000000000000000E0
:10C0600000000000000000000000000000000000D0
:10C0700000000000000000000000000000000000C0
:10C0800000000000000000000000000000000000B0
:10C0900000000000000000000000000000000000A0
:10C0A0000000000000000000000000000000000090
:10C0B0000000000000000000000000000000000080
:10C0C0000000000000000000000000000000000070
:10C0D0000000000000000000000000000000000060
:10C0E0000000000000000000000000000000000050
:10C0F0000000000000000000000000000000000040
:10C10000000000000000000000000000000000002F
:10C11000000000000000000000000000000000001F
:10C12000000000000000000000000000000000000F
:10C1300000000000000000000000000000000000FF
:10C1400000000000000000000000000000000000EF
:10C1500000000000000000000000000000000000DF
:10C1600000000041BDF700200000002018E38C9281
:10C17000004100000882BEDBA618088208210841A1
:10C180000841084108410841084108410841084167
:10C190000841084108410841084108410841084157
:10C1A0000841084108410841084108410841084147
:10C1B0000841084108410841084108410841084137
:10C1C0000841084108410841084108410841084127
:10C1D0000841084108410841084108410841084117
:10C1E0000841084108410841084108410841084107
:10C1F0000841084108410841086108610861086177
:10C200001082108210A210C384F3AE7931C70841A6
:10C2100000000021108284510020424931C6A575DA
:10C220000882002000000000000000000000000064
:10C2300000000000000000000000000000000000FE
:10C2400000000000000000000000000000000000EE
:10C2500000000000000000000000000000000000DE
:10C2600000000000000000000000000000000000CE
:10C2700000000000000000000000000000000000BE
:10C2800000000000000000000000000000000000AE
:10C29000000000000000000000000000000000009E
:10C2A000000000000000000000000000000000008E
:10C2B000000000000000000000000000000000007E
:10C2C000000000000000000000000000000000006E
:10C2D000000000000000000000000000000000005E
:10C2E000000000000000000000000000000000004E
:10C2F000000000000000000000000000000000003E
:10C30000000000000000000000000000000000002D
:10C31000000000000000000000000000000000001D
:10C32000000000000000000000000000000000000D
:10C3300000000000000000000000000000000000FD
:10C340000021002110C384710021000000414A69CE
:10C3500031C60041002129A7AE796BEF00410841A9
:10C360000841084108410841084108410841084185
:10C370000841084108410841084108410841084175
:10C380000841084108410841084108410841084165
:10C390000841084108410841084108410841084155
:10C3A0000841084108410841084108410841084145
:10C3B0000841084108410841084108410841084135
:10C3C0000841084108410841084108410841084125
:10C3D0000841084108410861086108610861088155
:10C3E000108210A210A229C7B69A7C920001080000
:10C3F00000200020B5B600210041002073CF216548
:10C4000000410021000000000000000000000000CA
:10C41000000000000000000000000000000000001C
:10C42000000000000000000000000000000000000C
:10C4300000000000000000000000000000000000FC
:10C4400000000000000000000000000000000000EC
:10C4500000000000000000000000000000000000DC
:10C4600000000000000000000000000000000000CC
:10C4700000000000000000000000000000000000BC
:10C4800000000000000000000000000000000000AC
:10C49000000000000000000000000000000000009C
:10C4A000000000000000000000000000000000008C
:10C4B000000000000000000000000000000000007C
:10C4C000000000000000000000000000000000006C
:10C4D000000000000000000000000000000000005C
:10C4E000000000000000000000000000000000004C
:10C4F000000000000000000000000000000000003C
